:100000000C943E000C9466000C9466000C94660000
:100010000C9466000C9466000C9466000C946600C8
:100020000C9466000C9466000C9466000C946600B8
:100030000C9466000C9466000C9466000C946600A8
:100040000C94EB040C9466000C9406040C94E003EE
:100050000C9466000C9466000C9466000C94660088
:100060000C9435050C94660072756E2D627269648D
:1000700067650A000A000A00A510911011241FBE2E
:10008000CFEFD8E0DEBFCDBF23E0AAE9B1E001C0E9
:100090001D92AC35B207E1F711E0A0E0B1E0EAE86B
:1000A000F8E202C005900D92AA39B107D9F710E025
:1000B000CDE3D0E004C02197FE010E941112CC33A1
:1000C000D107C9F70E944E0D0C9438140C9400000F
:1000D000CF92DF92EF92FF920F931F93CF93DF9314
:1000E0006C017A018B01C0E0D0E0CE15DF0581F014
:1000F000D8016D918D01D601ED91FC910190F081B7
:10010000E02DC6010995892B11F02196EECF7E01D5
:10011000C701DF91CF911F910F91FF90EF90DF907A
:10012000CF900895FC01538D448D252F30E0842F0E
:1001300090E0821B930B541710F0CF96089501970F
:100140000895FC01918D828D981761F0828DDF01F9
:10015000A80FB11D5D968C91928D9F5F9F73928FBA
:1001600090E008958FEF9FEF0895FC01918D828DAF
:10017000981731F0828DE80FF11D858D90E008957C
:100180008FEF9FEF0895FC01918D228D892F90E0D4
:10019000805C9F4F821B91098F739927089583E399
:1001A00092E00E94C30021E0892B09F420E0822F15
:1001B0000895FC01848DDF01A80FB11DA35ABF4F24
:1001C0002C91848D90E001968F739927848FA68956
:1001D000B7892C93A089B1898C91837080648C93AA
:1001E000938D848D981306C00288F389E02D808159
:1001F0008F7D80830895EF92FF920F931F93CF938B
:10020000DF93EC0181E0888F9B8D8C8D981305C066
:10021000E889F989808185FD26C0F62E0B8D10E0D6
:100220000F5F1F4F0F731127E02E8C8DE8120CC04B
:100230000FB607FCFACFE889F989808185FFF5CFF1
:10024000CE010E94D900F1CF8B8DFE01E80FF11D88
:10025000E35AFF4FF0829FB7F8940B8FEA89FB892E
:10026000808180620AC09FB7F894EE89FF8960831D
:10027000E889F98980818370806480839FBF81E0F1
:1002800090E0DF91CF911F910F91FF90EF90089533
:10029000CF93DF93EC01888D8823C9F0EA89FB892D
:1002A000808185FD05C0A889B9898C9186FD0FC024
:1002B0000FB607FCF5CF808185FFF2CFA889B989F9
:1002C0008C9185FFEDCFCE010E94D900E7CFDF9161
:1002D000CF91089580E090E0892B29F00E94CF0013
:1002E00081110C94000008953FB7F89480911C028E
:1002F00090911D02A0911E02B0911F0226B5A89BED
:1003000005C02F3F19F00196A11DB11D3FBFBA2FA7
:10031000A92F982F8827820F911DA11DB11DBC0107
:10032000CD0142E0660F771F881F991F4A95D1F7CC
:10033000089585ED8093BC008091BC0084FDFCCFC6
:100340001092F10108954091CD01262F30E0240F45
:10035000311D21323105DCF42091F1012430C9F442
:10036000FC0180E090E0861758F43091CD01219196
:10037000DC01A355BE4FA30FB11D2C930196F3CF03
:100380008091CD01680F6093CD0180E0089581E0F8
:10039000089582E0089508958FEF9FEF08958FEFFD
:1003A0009FEF08958091AC0190E09195819591091E
:1003B0000895CF93DF93CB01EA01642F0E94A3013C
:1003C000CE01DF91CF910895CF93DF931F92CDB7E8
:1003D000DEB7698361E0CE0101960E94A30181E04E
:1003E00090E00F90DF91CF9108954F925F926F92BE
:1003F0007F928F929F92AF92BF92CF92DF92EF92B5
:10040000FF920F931F93CF93DF934B015C01809179
:100410009A0190919B01A0919C01B0919D0188153A
:100420009905AA05BB0509F4D2C08CE3C82ED12CCE
:10043000E12CF12CC501B401A70196010E94D31152
:1004400060932002CA01B901A70196010E94D3114D
:1004500060932102C501B40120E13EE040E050E09C
:100460000E94D311CA01B90128E130E040E050E018
:100470000E94D31160932202C501B40120E831E546
:1004800041E050E00E94D31169017A01CA01B9012B
:100490006C5F7F4F8F4F9F4F27E030E040E050E090
:1004A0000E94D3116F5F60932302412C512C3201C3
:1004B00040E004E610E0C0E9D1E0242F30E02E5403
:1004C000384FF901E370FF27309789F4C901B8016B
:1004D0000E94BF11892B31F4C901BE010E94BF11D6
:1004E000892B29F48EE691E0A0E0B0E004C08DE60F
:1004F00091E0A0E0B0E0480E591E6A1E7B1ED301B9
:10050000C201AA27BB27C816D906EA06FB0610F0C7
:100510004F5FD3CF40932602309799F4C90164E628
:1005200070E00E94BF11892B39F4C90160E971E0C4
:100530000E94BF11892B29F48EE691E0A0E0B0E083
:1005400004C08DE691E0A0E0B0E0481A590A6A0ABA
:100550007B0AC418D508E608F708C90164E670E00C
:100560000E94BF11EC01C90160E971E00E94BF1156
:10057000A0E1B1E020E0213039F4309749F4209730
:1005800029F4009729F402C04C9103C04DE101C049
:100590004CE150E060E070E0C416D506E606F706D0
:1005A00040F0C41AD50AE60AF70A2F5F11962C30DC
:1005B00011F72F5F20932502C394C09224028092EA
:1005C0009A0190929B01A0929C01B0929D01DF91B3
:1005D000CF911F910F91FF90EF90DF90CF90BF9040
:1005E000AF909F908F907F906F905F904F90089505
:1005F000089580E090E00895CF93DF93EC016AE3E3
:100600008FE293E00E94170DCA30D1052CF460E30D
:100610008FE293E00E94170DCE01DF91CF910C94F1
:100620001E0DCF93DF93EC010E94740B8A8990E03A
:10063000DF91CF910895CF93DF93EC010E94740B6B
:100640008A89882331F08B89C80FD11D8C8990E06D
:1006500002C08FEF9FEFDF91CF910895CF93DF938B
:10066000EC010E94740B8A89882359F081508A8B8F
:100670008B8991E0980F9B8BC80FD11D8C8990E0DE
:1006800002C08FEF9FEFDF91CF9108950E94FE137C
:10069000CF93DF93EC010E94A40B8E85882341F059
:1006A0008F85E889F989E80FF11D808190E002C00B
:1006B0008FEF9FEFDF91CF910895CF93DF93EC0100
:1006C0000E94A40B8E85882369F081508E87E8896B
:1006D000F9898F8591E0980F9F87E80FF11D808140
:1006E00090E002C08FEF9FEFDF91CF910895CF93FD
:1006F000DF93EC010E94A40B8E8590E0DF91CF91F7
:1007000008958F929F92AF92BF92CF92DF92EF9215
:10071000FF920F931F93CF93DF931F92CDB7DEB756
:100720005C019B014A01DC0152968C91811105C04C
:100730008B017B01E40EF51E31C080E58983C12C5D
:10074000D12CE12CF12C8A0141E050E0BE016F5F19
:100750007F4FF501848595850E94F90822C0D50157
:100760005596ED91FC91569753968C91539791E045
:10077000980F53969C93D8019D918D01E80FF11D20
:100780009083F50193898489981308C00190F081C2
:10079000E02D0680F781E02DC5010995E016F106F0
:1007A000F1F6C4010F90DF91CF911F910F91FF904F
:1007B000EF90DF90CF90BF90AF909F908F90089573
:1007C0001F920F920FB60F9211242F933F934F93C6
:1007D0005F936F937F938F939F93AF93BF93EF93A9
:1007E000FF9383E392E00E94D900FF91EF91BF91C4
:1007F000AF919F918F917F916F915F914F913F91B9
:100800002F910F900FBE0F901F9018951F920F926F
:100810000FB60F9211242F938F939F93EF93FF9313
:10082000E0914302F09144028081E0914902F0910D
:100830004A0282FD12C0908180914C028F5F8F73BB
:1008400020914D02821751F0E0914C02F0E0ED5CF6
:10085000FD4F958F80934C0201C08081FF91EF91F5
:100860009F918F912F910F900FBE0F901F90189511
:100870008F929F92AF92BF92CF92DF92EF92FF92B0
:100880006B017C010E9474014B015C01C114D10415
:10089000E104F104F1F00E947401DC01CB0188193C
:1008A0009909AA09BB09883E9340A105B10570F3D7
:1008B00021E0C21AD108E108F10888EE880E83E031
:1008C000981EA11CB11CC114D104E104F10419F754
:1008D000DDCFFF90EF90DF90CF90BF90AF909F90D3
:1008E0008F9008952FB7F8946091180270911902B3
:1008F00080911A0290911B022FBF08956093A80166
:100900007093A9018093AA019093AB01DC01CB0104
:10091000845D9E4FAF4FBF4F8093A4019093A5017C
:10092000A093A601B093A70182E090E09093A30169
:100930008093A2010E94720460939E0170939F01B4
:100940008093A0019093A1010895CF92DF92EF923E
:10095000FF920F931F930E94720400919E011091C9
:100960009F012091A0013091A1016B017C01C01A6F
:10097000D10AE20AF30A6091A8017091A90180915D
:10098000AA019091AB0148EEC41643E0D406E104FD
:10099000F104D0F0DC01CB010196A11DB11D8093C3
:1009A000A8019093A901A093AA01B093AB010851AB
:1009B0001C4F2F4F3F4F00939E0110939F01209398
:1009C000A0013093A101C7CF1F910F91FF90EF902D
:1009D000DF90CF9008951F920F920FB60F921124BF
:1009E0002F933F938F939F93AF93BF938091180260
:1009F00090911902A0911A02B0911B023091170236
:100A000023E0230F2D3720F40196A11DB11D05C051
:100A100026E8230F0296A11DB11D20931702809393
:100A2000180290931902A0931A02B0931B028091AE
:100A30001C0290911D02A0911E02B0911F0201960E
:100A4000A11DB11D80931C0290931D02A0931E0254
:100A5000B0931F02BF91AF919F918F913F912F91C2
:100A60000F900FBE0F901F9018951F920F920FB608
:100A70000F9211242F933F934F935F936F937F9324
:100A80008F939F93AF93BF93EF93FF938091B900A0
:100A9000887F803609F49CC068F5883209F45BC011
:100AA00090F4803109F454C038F4882309F4F2C07A
:100AB000883009F44DC0F2C0883109F44CC080324E
:100AC00009F45DC0EBC0803409F468C048F4803399
:100AD00009F455C0883309F0E1C08093F001D4C017
:100AE000803509F44FC0883509F45DC0883409F0B9
:100AF000D5C0D2C0883909F4C3C0A8F4883709F436
:100B000067C038F4883609F463C0803709F460C0E0
:100B1000C5C0883809F4B4C0803909F45FC0803892
:100B200009F0BCC05BC0803B09F484C038F4803A53
:100B300009F466C0883A09F47DC0B0C0803C09F46D
:100B4000A3C0883C09F4A0C0883B09F486C0A6C0B5
:100B50008091160210C0909115028091140298178E
:100B600070F5E091150281E08E0F80931502F0E0A0
:100B7000EC50FE4F80818093BB0085EC82C0809357
:100B8000F0018AC0E091150281E08E0F809315027A
:100B90008091BB00F0E0EC50FE4F808390911502F5
:100BA000809114026AC0E091150281E08E0F80935B
:100BB00015028091BB00F0E0EC50FE4F80838091E5
:100BC000F301811169C081E08093F20184EA5DC084
:100BD00083E08093F1011092EF01CFCF8091EF017C
:100BE000803208F04DC0E091EF0181E08E0F8093DC
:100BF000EF018091BB00F0E0E153FE4F8083BDCF59
:100C000085EC8093BC001092F1018091EF0180325D
:100C100030F4E091EF01F0E0E153FE4F108260917B
:100C2000EF0170E08FEC91E0E0E0F0E009951092C8
:100C3000EF0134C084E08093F1011092CE01109254
:100C4000CD01E0E0F0E009958091CD01811105C072
:100C500081E08093CD011092AD01E091CE0181E061
:100C60008E0F8093CE01F0E0E355FE4F808180939C
:100C7000BB009091CE018091CD01981708F47DCFF3
:100C800085E88093BC000AC085EC8093BC0010927C
:100C9000F10104C01092F0010E949901FF91EF91BF
:100CA000BF91AF919F918F917F916F915F914F9184
:100CB0003F912F910F900FBE0F901F901895CF93DB
:100CC000DF93EC018D819E81DC01ED91FC9100842C
:100CD000F185E02D09951816190654F48D819E8131
:100CE000DC01ED91FC910284F385E02D0995EACFBA
:100CF000DF91CF9108958F929F92AF92BF92CF9242
:100D0000DF92EF92FF92CF93DF93EC016B010E9491
:100D100072044B015C01E12CF12C8D819E81DC0180
:100D2000ED91FC910284F385E02D099597FF0FC0AA
:100D30000E947204DC01CB0188199909AA09BB0938
:100D40008C159D05AE05BF0540F38FEF9FEFDF913A
:100D5000CF91FF90EF90DF90CF90BF90AF909F909A
:100D60008F900895FC01238134812627022E22953D
:100D7000207F2025032E322F22952F7002262695C4
:100D800032272327220F220F220F2025348323838B
:100D90000895CF92DF92EF92FF920F931F93680115
:100DA000790100E010E020E030E00E94F9081F9196
:100DB0000F91FF90EF90DF90CF9008950F931F93C6
:100DC00000E010E020E030E00E94C9061F910F9182
:100DD0000895CF93DF9300D01F92CDB7DEB729E4FB
:100DE0002983FC0126852A836B8343E050E0BE0102
:100DF0006F5F7F4F848595850E94DE0681E090E0DD
:100E00000F900F900F90DF91CF910895CF93DF93C4
:100E1000FC01228921110BC0EC01438950E0658956
:100E20007689848595850E94DE0681E08B8BDF9133
:100E3000CF910895CF93DF9300D0CDB7DEB7DC011B
:100E400052968C915297882379F080E589836A8342
:100E500042E050E0BE016F5F7F4F1C968D919C91E8
:100E60001D970E94DE061FC05596ED91FC91569786
:100E700053968C91539791E0980F53969C93539768
:100E8000E80FF11D608353969C91539754968C9173
:100E90005497981308C0ED91FC9111970680F78143
:100EA000E02DCD01099581E090E00F900F90DF914A
:100EB000CF910895CF92DF92EF92FF920F931F93FD
:100EC000CF93DF93CDB7DEB72E970FB6F894DEBF82
:100ED0000FBECDBF7C01C7010E945F0668EE73E0C4
:100EE00080E090E00E943804D70115968D919C9186
:100EF0001697DC01ED91FC910084F185E02D0995B8
:100F00001816190644F3DD24D39482E3C82E85E035
:100F1000E6E0F1E0DE01119601900D928A95E1F78D
:100F2000F701D08645E050E0BE016F5F7F4FC701FB
:100F30000E94DE0663E0D70115968D919C9116976D
:100F40000E94170D6AEF70E080E090E00E94380484
:100F500066E770E0F701858196810E94E40A6AEFF6
:100F600070E080E090E00E94380464E770E0D70110
:100F700015968D919C9116970E94E40A64EF71E09A
:100F800080E090E00E94380468E670E0F701858117
:100F900096810E94E40A64EF71E080E090E00E9494
:100FA0003804C7010E945F0685E0EBE0F1E0DE0156
:100FB000169601900D928A95E1F7D7011896CC927A
:100FC00004E010E09E01255F3F4F45E050E0BE0188
:100FD0006A5F7F4FC7010E94C9068F3FBFEF9B0723
:100FE00039F468EE73E080E090E00E9438048FCF1F
:100FF0002B852111FFCF049701F52C8530E020537C
:10100000310984E6829FA001839F500D11242D8514
:1010100030E0205331096AE0629FC001639F900D68
:101020001124840F951F2E8530E020533109820F43
:10103000931FF7019283818307C084E690E0D70174
:1010400012969C938E93119782E3F70180872E96D8
:101050000FB6F894DEBF0FBECDBFDF91CF911F91C9
:101060000F91FF90EF90DF90CF900895CF93DF9393
:1010700000D0CDB7DEB78091EC02882381F087E7FE
:1010800089838091E9028A8342E050E0BE016F5F6C
:101090007F4F8091E7029091E8020E94DE06109255
:1010A000EC020F900F90DF91CF9108958F929F9255
:1010B000AF92BF920F931F93CF93DF93CDB7DEB75D
:1010C000A1970FB6F894DEBF0FBECDBF19A2423074
:1010D00008F44AE08E010F5D1F4F842E912CA12C45
:1010E000B12CA50194010E94D311E62FB901CA01C8
:1010F00001501109EA3014F4E05D01C0E95CD80147
:10110000EC93232B242B252B61F70115110571F08E
:10111000F80101900020E9F73197AF01401B510B16
:10112000B8018FE293E00E94810302C080E090E06A
:10113000A1960FB6F894DEBF0FBECDBFDF91CF9161
:101140001F910F91BF90AF909F908F9008950F9334
:101150001F93CF93DF93EC0188819981009729F049
:101160002A813B812617370788F48B016F5F7F4FF9
:101170000E943813009761F0998388831B830A8348
:101180002C813D81232B11F4FC01108281E001C0F0
:1011900080E0DF91CF911F910F910895EF92FF9220
:1011A0000F931F93CF93DF93EC017B018A01BA0168
:1011B0000E94A7082881398181110DC021153105B0
:1011C00019F0C9010E94AF12198218821D821C8277
:1011D0001B821A8206C01D830C83B701C9010E94BD
:1011E0001714CE01DF91CF911F910F91FF90EF90D7
:1011F00008952F923F924F925F926F927F928F92BB
:101200009F92AF92BF92CF92DF92EF92FF920F9395
:101210001F93CF93DF93CDB7DEB72E970FB6F89419
:10122000DEBF0FBECDBF9E878D873B0129019A018E
:10123000200F311F3A8329838A80912C22242A94FB
:10124000322CCB01840F951F98878F83D201A00F7A
:10125000B11FBA87A987F701EC0DFD1DFC87EB874D
:10126000AD85BE8518968C911897981608F03FC1E9
:1012700014963C922E92139715968D919C911697E9
:10128000DC01ED91FC910190F081E02D6FEF09956B
:101290006FEF8D859E850E94B206ED85FE85858166
:1012A0009681DC01ED91FC910190F081E02DAD85FE
:1012B000BE856C910995ED85FE856081CF010E9408
:1012C000B206AD85BE8515968D919C911697DC0171
:1012D000ED91FC910190F081E02D682D0995682D2C
:1012E0008D859E850E94B206ED85FE85858196815D
:1012F000DC01ED91FC910190F081E02D698109956F
:1013000069818D859E850E94B2065301EF81F88523
:10131000AE16BF06C1F0AD85BE8515968D919C9128
:1013200016978501DC01ED91FC910190F081E02D93
:10133000D5016D915D010995F80160818D859E85CE
:101340000E94B206E3CF8201AD85BE8515968D91D0
:101350009C911697E985FA850E171F0791F05801A1
:10136000DC01ED91FC910190F081E02DD8016D91AF
:101370008D010995F50160818D859E850E94B206DB
:10138000E3CFAD85BE8514966C91DC01ED91FC91A7
:101390000190F081E02D0995ED85FE85858196818E
:1013A000DC01ED91FC910190F081E02DAD85BE85D1
:1013B00013966C91099568EC70E08D859E850E946E
:1013C0007B068F3F910509F086C0ED85FE8534824E
:1013D00023826FEFCF010E94B20665E070E08D8539
:1013E0009E850E947B06AD85BE856C91262F30E0E0
:1013F0008217930709F06FC0CD010E94B2066AE020
:1014000070E08D859E850E947B065C0197FD63C020
:10141000682F8D859E850E94B2066AE070E08D85FA
:101420009E850E947B068C0197FD55C0682F8D8597
:101430009E850E94B206AC821B82EB81FC810E0F5E
:101440001F1F57019701200F311F3E832D838D8170
:101450009E81A816B906C1F0AB85BC85AA16BB064D
:1014600099F065E070E08D859E850E947B0697FD72
:1014700007C0F5018083682F8D859E850E94B20686
:10148000FFEFAF1ABF0AE3CF65E070E08D859E8560
:101490000E947B065C0197FD1EC065E070E08D85B3
:1014A0009E850E947B0697FD16C0BA2CAA248A0D41
:1014B0009B1DAD85BE8513962D913C911497821787
:1014C000930749F48C918F5F8C93C801C016D106A5
:1014D00080F4C6010EC0939464E670E080E090E072
:1014E0000E9438048D859E850E945F06B9CE8FEFDD
:1014F0009FEF2E960FB6F894DEBF0FBECDBFDF91E3
:10150000CF911F910F91FF90EF90DF90CF90BF9000
:10151000AF909F908F907F906F905F904F903F9093
:101520002F9008950F931F93CF93DF938C010E9408
:10153000360886E090E00E941712EC0119821882AA
:101540001B821A821D821C820817190751F0F801AC
:10155000608171816115710521F0448155810E947E
:10156000CE08D093EB02C093EA02DF91CF911F9196
:101570000F9108950F931F93CF93DF9300D01F9285
:10158000CDB7DEB782E789838091E9028A8301E0E3
:1015900010E09E012D5F3F4F42E050E0BE016F5FC3
:1015A0007F4F8091E7029091E8020E94C90681E096
:1015B0009B81913009F080E00F900F900F90DF91A8
:1015C000CF911F910F910895EF92FF920F931F9368
:1015D000CF93DF938C017B01C0E0D0E0F701EC0FEB
:1015E000FD1F6491662361F0D801ED91FC9101909B
:1015F000F081E02DC8010995892B11F02196EECFDD
:10160000CE01DF91CF911F910F91FF90EF90089540
:101610008091410381110BC0809144039091450357
:10162000009711F00E94AF1281E0809341038091F6
:101630003F0390914003009731F00E94AF12109247
:10164000400310923F030895CF93DF93FC01248160
:1016500035816217730778F49B01C081D1816AE3F9
:1016600070E0CE01820F931F0E940C14009719F0B6
:101670008C1B9D0B02C08FEF9FEFDF91CF910895E0
:101680000F931F930E9472046093E3027093E4022D
:101690008093E5029093E6028BED92E00E942E0388
:1016A00097FF1FC00E9472040091E3021091E402B0
:1016B0002091E5023091E602DC01CB01801B910B09
:1016C000A20BB30B0091DF021091E0022091E10226
:1016D0003091E20280179107A207B307E8F28FEF7B
:1016E0009FEF1F910F910895EF92FF920F931F9319
:1016F000CF93DF9300D01F92CDB7DEB7FC012289D4
:10170000211118C07C01138A8FE4898380E48B83C4
:1017100086858A839F012C5E3F4F00E410E043E002
:1017200050E0BE016F5F7F4F848595850E94C9069A
:10173000F701828B0F900F900F90DF91CF911F9147
:101740000F91FF90EF900895EF92FF920F931F93E8
:10175000CF93DF9300D0CDB7DEB7FC0126852111F2
:1017600015C07C01178680E7898380E28A832089FF
:10177000318900E210E042E050E0BE016F5F7F4F30
:10178000848595850E94C906F70186870F900F9082
:10179000DF91CF911F910F91FF90EF900895FC0181
:1017A00080819181009711F00C94321160E070E01B
:1017B000CB010895EF92FF920F931F93CF93DF9386
:1017C0006115710511F480E01CC041155105C1F08F
:1017D0007B01EC018C819D818A01080F191FB801E2
:1017E000CE010E94A708882371F3288139818C815A
:1017F0009D81B701820F931F0E9417141D830C83D4
:1018000081E0DF91CF911F910F91FF90EF900895AC
:101810000F931F93CF93DF938C01CBEDD2E041E088
:1018200050E067E971E08F8598890E94DA0BF80132
:1018300044815581608171818F859889DF91CF9135
:101840001F910F910C94DA0BFC01808191810C9413
:10185000AF12CF92DF92EF92FF920F931F93CF932D
:10186000DF9300D000D0CDB7DEB782E58B83E09167
:10187000EA02F091EB02048115812081318142E07E
:10188000C42ED12CCE0101967C0141E050E0BE0176
:101890006D5F7F4F8091E7029091E8020E94F90806
:1018A0008A818093E9020091EA021091EB0201150E
:1018B000110531F0C8010E94240CC8010E94AF122A
:1018C0001092EB021092EA028981811103C081E03B
:1018D0008093EC020E94BA0A882339F064E670E033
:1018E00080E090E00E943804F5CF87E58B838091FB
:1018F000E9028C8302E010E09E012F5F3F4F42E03F
:1019000050E0BE016D5F7F4F8091E7029091E80249
:101910000E94C906898190E0982F88272A81820F2A
:10192000911D0F900F900F900F90DF91CF911F910D
:101930000F91FF90EF90DF90CF900895FC011182FE
:10194000108213821282158214826115710551F082
:10195000FB0101900020E9F73197AF01461B570BBF
:101960000C94CE080895BF92CF92DF92EF92FF922F
:101970000F931F93CF93DF937C016B01EA018901E1
:101980002417350720F48D2FE901042F182F66E95D
:1019900071E0C7010E949E0CD60114968D919C9116
:1019A0001597C817D907C0F58017910708F48C015F
:1019B000D601ED91FC911197E00FF11FB0801082DC
:1019C0006D917C916C0F7D1F6115710561F0FB01BC
:1019D00001900020E9F73197AF01461B570BC70173
:1019E0000E94CE0813C0F70180819181009711F009
:1019F0000E94AF12D70111961C921E9215961C924E
:101A00001E92149713961C921E921297D601ED9176
:101A1000FC91E00FF11FB082C701DF91CF911F91C0
:101A20000F91FF90EF90DF90CF90BF900895DC0171
:101A3000ED91FC910190F081E02D0994CF92DF921D
:101A4000EF92FF92CF93DF936C01990FEE08FF089E
:101A5000F7FE19C06DE28FE293E00E94170DEC01D2
:101A600066277727CB016C197D098E099F094AE00B
:101A70000E9456088C0F9D1FDF91CF91FF90EF9031
:101A8000DF90CF9008954AE0C701B601DF91CF9172
:101A9000FF90EF90DF90CF900C945608CF93DF9398
:101AA000CDB7DEB7E3970FB6F894DEBF0FBECDBF5C
:101AB000789484B5826084BD84B5816084BD85B529
:101AC000826085BD85B5816085BD80916E00816035
:101AD00080936E00109281008091810082608093DB
:101AE00081008091810081608093810080918000DD
:101AF0008160809380008091B10084608093B10008
:101B00008091B00081608093B00080917A00846001
:101B100080937A0080917A00826080937A0080912D
:101B20007A00816080937A0080917A008068809347
:101B30007A001092C100E091D902F091DA02A089F6
:101B4000B18982E08C93A485B5851C92A685B78562
:101B500087E08C93108EA489B58986E08C93A28946
:101B6000B3898C9180618C93A289B3898C918860B0
:101B70008C93A289B3898C9180688C930288F389B5
:101B8000E02D80818F7D80838091D702811107C0F5
:101B900081E08093D70280ED92E00E945A07809105
:101BA0003B0390913C03DC0117962C911797211170
:101BB00005C021E017962C930E945A070E94080B3B
:101BC00080E290E00E9417129093400380933F03BD
:101BD00031E6F32EF98201E010E09E012F5F3F4FC6
:101BE00041E050E0B90180913B0390913C030E9499
:101BF000C9068981813071F70E94BA0A81111EC01D
:101C000064E671E0CE0101960E949E0CCE01019621
:101C10000E94920ACE0101960E94240C69E671E0AE
:101C2000CE0101960E949E0CCE0101960E94080CE6
:101C3000CE0101960E94240C0E94290CE0913102F1
:101C4000F091320200912F021091300260902D022B
:101C500070902E02B0912B02BBA7B0902902A090E9
:101C60002702E436F1051CF0E25BF74001C07E96E6
:101C7000E09326020093250260922402A0922202A1
:101C8000B09221022BA520932002AE2FB0E020E8D5
:101C900033E341EE51E00E946E116B017C0122EBB7
:101CA00037E0FF27C901825B97408E179F07ECF44E
:101CB000C90183709927892BA9F4C90164E670E0F2
:101CC0000E94BF11892B39F4C90160E971E00E94BB
:101CD000BF11892B39F480E8C80E81E5D81E81E058
:101CE000E81EF11C2F5F3F4FDDCFEE54F84FCF01C0
:101CF00064E670E00E94BF119DA78CA7CF0160E948
:101D000071E00E94BF111C0190E1492E91E0592E13
:101D100088248394912C1127E370FF278016910665
:101D200054F592E08916910489F4309779F4ACA5C2
:101D3000BDA5AB2B19F42114310441F4B0E8CB0E4E
:101D4000BBE3DB1EB6E2EB1EF11C0EC0D2018C9190
:101D5000A82FB0E020E831E541E050E00E946E118C
:101D6000C60ED71EE81EF91EBFEF8B1A9B0A2FEF77
:101D7000421A520AD3CF2A2D30E0A0E1BEE00E94E1
:101D8000B0111B012C012B2D30E0ACE3B0E00E9420
:101D9000B011DC01CB01820D931DA41DB51D4C01BA
:101DA0005D01EBA58E0E911CA11CB11CD301BB27BC
:101DB000119720E831E541E050E00E94F511DC0187
:101DC000CB01880D991DAA1DBB1DBC01CD016C0D59
:101DD0007D1D8E1D9F1D0E947E040E94BA0A8111E6
:101DE0001EC064E671E0CE0101960E949E0CCE01F9
:101DF00001960E94920ACE0101960E94240C6FE780
:101E000071E0CE0101960E949E0CCE0101960E94C7
:101E1000080CCE0101960E94240C0E94290C8BED27
:101E200092E00E94740B8091ED02882309F427C18F
:101E300066E971E0CE0185960E949E0C0E94400BDF
:101E400097FD0CC089831A8241E050E0BE016F5FAC
:101E50007F4FCE0185960E94DA0BF0CF62E971E0E8
:101E6000CE0101960E949E0C89A59AA5892B69F046
:101E7000EDA0FEA069817A81C7010E941E1400971F
:101E800021F08C010E191F0902C00FEF1FEFCE01C8
:101E900001960E94240C5801FFEFAF1ABF0AB5014A
:101EA000CE0185960E94240B4C019C012F5F3F4F71
:101EB0003FA72EA7B901CE0185960E94240B2C01C5
:101EC0001C013FEF231A330AB101CE0185960E940F
:101ED000240B3C0162E971E0CE0101960E949E0C48
:101EE00089A59AA52D813E817C01E21AF30A21156C
:101EF000310589F1009779F18217930760F1E816AF
:101F0000F90620F07C01A1E0EA1AF108CDA0DEA0DC
:101F1000E981FA81F9ABE8ABC601FFEFFBA72FEF30
:101F20002CA7D601AE0DBF1DBBABAAABEAA9FBA97E
:101F3000E817F907A0F068A979A90E941E14009774
:101F400071F09C012C193D09E216F30610F02BA745
:101F50003CA70196EBCFEE24EA94FE2C02C0EBA442
:101F6000FCA4CE0101960E94240C980140E050E0B0
:101F7000BE016B5D7F4FCE014F960E94B30C940162
:101F8000A501BE016B5D7F4FCE0149960E94B30C47
:101F900092014EA55FA5BE016B5D7F4FCE014396BA
:101FA0000E94B30C9301A101BE016B5D7F4FCE0176
:101FB0000D960E94B30CA3014F5F5F4F9701BE01C6
:101FC0006B5D7F4FCE0107960E94B30C29A53AA501
:101FD000A7014F5F5F4FBE016B5D7F4FCE01019642
:101FE0000E94B30CCE014F960E94CF0B7093280233
:101FF00060932702CE0149960E94CF0B70932A026C
:1020000060932902CE0143960E94CF0B70932C025D
:1020100060932B02CE010D960E94CF0B70932E027F
:1020200060932D02CE0107960E94CF0B7093300271
:1020300060932F02CE0101960E94CF0B7093320263
:1020400060933102CE0101960E94240CCE010796C6
:102050000E94240CCE010D960E94240CCE014396C2
:102060000E94240CCE0149960E94240CCE014F966A
:102070000E94240CCE0185960E94240CD0CE0E9492
:10208000A5040E94F5018091220290E00E941E0D9D
:102090000E94A5040E94F5018091210290E00E9417
:1020A000FC020E94A5040E94F5018091200290E0AC
:1020B0000E94FC0260E28FE293E00E94170D0E94F2
:1020C000A5040E94F5018091240290E00E941E0D5B
:1020D00060E28FE293E00E94170D0E94A5040E9427
:1020E000F5018091250290E00E941E0D60E28FE2D2
:1020F00093E00E94170D0E94A5040E94F5018091B3
:10210000260290E08E54984F0E941E0D42E050E04F
:1021100064E971E08FE293E00E9481030E946A010A
:102120008DCD84E491E09093DC028093DB020E94E9
:10213000360882E593E00E94240C86E591E09093B6
:10214000300380932F030C94080BCF92DF92EF9211
:10215000FF92CF93DF93E3E3F2E01382128288EEE3
:10216000C82E83E0D82EE12CF12CC482D582E682E1
:10217000F78280E291E09183808385EC90E09587FF
:10218000848784EC90E09787868780EC90E0918B41
:10219000808B81EC90E0938B828B82EC90E0958B2E
:1021A000848B86EC90E0978B868B118E128E138E2B
:1021B000148EA6E4B3E013961C921E921297149606
:1021C000CD92DD92ED92FC92179782E391E08D9390
:1021D0009C93AFE2B3E013961C921E921297149652
:1021E000CD92DD92ED92FC92179786E591E01196E3
:1021F0009C938E93C0EDD2E01D96DC93CE931C97FA
:102200001E961C921E971F961C921F9751961C9209
:102210001E92509781E052968C931882FE83ED8334
:102220001F821886FA87E98766E971E082E593E004
:102230000E949E0CEBEDF2E013821282C482D582E2
:10224000E682F78284E491E091838083D587C48716
:10225000118A128A138ADF91CF91FF90EF90DF905D
:10226000CF9008951F93FC0199278827BC01E8941B
:1022700011911032E9F3193010F01E30C8F31B32FF
:1022800051F01D3249F4689406C00E945911610F43
:10229000711D811D911D119110531A30B0F33EF440
:1022A00090958095709561957F4F8F4F9F4F1F91AF
:1022B0000895592F482F372F262F660F771F881F15
:1022C000991F660F771F881F991F620F731F841F46
:1022D000951F660F771F881F991F08950E94B011E0
:1022E000A59F900DB49F900DA49F800D911D11246A
:1022F00008952F923F924F925F926F927F928F92AA
:102300009F92AF92BF92CF92DF92EF92FF920F9384
:102310001F93CF93DF93CDB7DEB7CA1BDB0B0FB68E
:10232000F894DEBF0FBECDBF09942A88398848884B
:102330005F846E847D848C849B84AA84B984C884E1
:10234000DF80EE80FD800C811B81AA81B981CE0FD8
:10235000D11D0FB6F894DEBF0FBECDBFED010895BD
:10236000A29FB001B39FC001A39F700D811D1124D6
:10237000911DB29F700D811D1124911D089597FB31
:10238000072E16F4009407D077FD09D00E94FD11A6
:1023900007FC05D03EF4909581959F4F0895709568
:1023A00061957F4F0895A1E21A2EAA1BBB1BFD0168
:1023B0000DC0AA1FBB1FEE1FFF1FA217B307E40724
:1023C000F50720F0A21BB30BE40BF50B661F771F7C
:1023D000881F991F1A9469F760957095809590955C
:1023E0009B01AC01BD01CF010895B7FF0C946E11A4
:1023F0000E946E11821B930B0895AA1BBB1B51E117
:1024000007C0AA1FBB1FA617B70710F0A61BB70B64
:10241000881F991F5A95A9F780959095BC01CD0109
:102420000895EE0FFF1F0590F491E02D09940F938E
:102430001F93CF93DF938230910510F482E090E0F8
:10244000E0915A03F0915B0320E030E0A0E0B0E0BF
:10245000309719F140815181028113814817590742
:10246000C8F08417950769F4109731F012960C9311
:10247000129713961C9327C000935A0310935B0383
:1024800022C02115310519F04217530718F49A019B
:10249000BD01EF01DF01F801DBCF21153105F9F0B6
:1024A000281B390B2430310580F48A819B8161150A
:1024B000710521F0FB019383828304C090935B0339
:1024C00080935A03FE01329644C0FE01E20FF31FCF
:1024D0008193919322503109398328833AC0209106
:1024E000580330915903232B41F42091020130917C
:1024F0000301309359032093580320910001309138
:1025000001012115310541F42DB73EB74091040179
:1025100050910501241B350BE0915803F0915903AC
:10252000E217F307A0F42E1B3F0B2817390778F0AA
:10253000AC014E5F5F4F2417350748F04E0F5F1F09
:1025400050935903409358038193919302C0E0E064
:10255000F0E0CF01DF91CF911F910F910895CF93BC
:10256000DF93009709F481C0FC0132971382128235
:10257000A0915A03B0915B03109781F420813181BF
:10258000820F931F20915803309159032817390760
:1025900051F5F0935903E093580367C0ED0120E033
:1025A00030E0CE17DF0740F44A815B819E01411580
:1025B0005105F1F0EA01F5CFD383C2834081518107
:1025C000840F951FC817D90759F488819981840F02
:1025D000951F0296918380838A819B819383828356
:1025E0002115310529F4F0935B03E0935A033DC0B4
:1025F000E901FB83EA8349915991C40FD51FEC1778
:10260000FD0761F480819181840F951F0296E90195
:1026100099838883828193819B838A83E0E0F0E0C1
:1026200012968D919C911397009719F0FD01DC0192
:10263000F7CF8D919C9111979D012E5F3F4F820F97
:10264000931F20915803309159032817390769F4D3
:10265000309729F410925B0310925A0302C0138240
:102660001282B0935903A0935803DF91CF9108953C
:10267000A0E0B0E0EEE3F3E10C947D11EC010097F3
:1026800021F4CB010E941712B4C0FC01E60FF71F22
:102690009C0122503109E217F30708F4A8C0D901C0
:1026A0000D911C91119706171707B0F00530110511
:1026B00008F49BC0C80104978617970708F495C0D3
:1026C00002501109061B170B019311936D937C9314
:1026D000CF010E94AF1289C05B01A01AB10A4C0160
:1026E000800E911EA0915A03B0915B03612C712C56
:1026F000E12CF12C109709F446C08D919C91119713
:10270000A815B905B1F56C0142E0C40ED11CCA147C
:10271000DB0478F14C018A189B08640142E0C40E86
:10272000D11C1296BC9012971396AC91B5E0CB16C3
:10273000D10440F0B282A38391828082D9016D934B
:102740007C9309C00E5F1F4F800F911FF901918389
:102750008083EB2DFA2FE114F10431F0D7011396A9
:10276000FC93EE93129741C0F0935B03E0935A03FE
:102770003CC06816790608F43C017D0112960D9064
:10278000BC91A02DB7CF8091580390915903881622
:102790009906E1F466167706C8F4809100019091DD
:1027A0000101009741F48DB79EB74091040150910B
:1027B0000501841B950BE817F907C8F4F09359033A
:1027C000E0935803F901718360830FC0CB010E942D
:1027D00017127C01009759F0A801BE010E94031452
:1027E000CE010E94AF12C70104C0CE0102C080E03A
:1027F00090E0CDB7DEB7EEE00C94991181E090E067
:10280000F8940C943814FB01DC0102C001900D9285
:1028100041505040D8F70895FC018191861721F06E
:102820008823D9F7992708953197CF010895FB019F
:10283000DC0101900D920020E1F70895FB01519118
:102840005523A9F0BF01DC014D9145174111E1F776
:1028500059F4CD010190002049F04D9140154111EE
:10286000C9F3FB014111EFCF81E090E0019708959A
:1028700010E0CDE3D0E004C0FE010E9411122196C9
:0A288000CE33D107C9F7F894FFCF5B
:10288A0000005C0380005858585858585831303066
:10289A001F1C1F1E1F1E1F1F1E1F1E1F00000000C1
:1028AA00FB00680092004801C300A100B5000000C7
:1028BA000000E401D901F902CB01D201CF01CC0118
:1028CA0000000000E9066800F902CB0111032E039B
:1028DA001B03000000001A078103F90206077703A9
:1028EA005D03480364617465002B256D2C25642CF7
:1028FA0025792C25412C25482C254D2C2553002B98
:10290A0025483A254D3A25533A25643A256D3A2504
:0A291A0079003A000D0A00FE0000EB
:00000001FF
