:100000000C943E000C9466000C9466000C94660000
:100010000C9466000C9466000C9466000C946600C8
:100020000C9466000C9466000C9466000C946600B8
:100030000C9466000C9466000C9466000C946600A8
:100040000C94EC010C9466000C94BF0F0C94990F67
:100050000C9466000C9466000C9466000C94660088
:100060000C9436020C94660072756E2D627269648F
:1000700067650A000A000A003B102B1011241FBEFE
:10008000CFEFD8E0DEBFCDBF23E0AAEBB1E001C0E7
:100090001D92AC3CB207E1F711E0A0E0B1E0EEEE5A
:1000A000FAE202C005900D92AA3BB107D9F710E021
:1000B000CDE3D0E004C02197FE010E944313CC336E
:1000C000D107C9F70E94DC100C946A150C9400004B
:1000D00085ED8093BC008091BC0084FDFCCF109224
:1000E0001B0208954091F701262F30E0240F311DA7
:1000F00021323105DCF420911B022430C9F4FC01CB
:1001000080E090E0861758F43091F7012191DC01EE
:10011000A952BE4FA30FB11D2C930196F3CF80912E
:10012000F701680F6093F70180E0089581E008957A
:1001300082E008958FEF9FEF08958FEF9FEF08956E
:100140008091D60190E09195819591090895CF9382
:10015000DF93CB01EA01642F0E947200CE01DF9190
:10016000CF910895CF93DF931F92CDB7DEB7698308
:1001700061E0CE0101960E94720081E090E00F9054
:10018000DF91CF910895089580E090E00895CF9396
:10019000DF93EC010E947F0B8A89882331F08B89E1
:1001A000C80FD11D8C8990E002C08FEF9FEFDF91C7
:1001B000CF910895CF93DF93EC010E947F0B8A8942
:1001C000882359F081508A8B8B8991E0980F9B8B03
:1001D000C80FD11D8C8990E002C08FEF9FEFDF9197
:1001E000CF910895CF93DF93EC010E947F0B8A8912
:1001F00090E0DF91CF910895CF93DF93EC010E94BF
:10020000630C8E85882341F08F85E889F989E80F92
:10021000F11D808190E002C08FEF9FEFDF91CF91C1
:100220000895CF93DF93EC010E94630C8E858823A1
:1002300069F081508E87E889F9898F8591E0980F60
:100240009F87E80FF11D808190E002C08FEF9FEF44
:10025000DF91CF910895CF93DF93EC010E94630C5F
:100260008E8590E0DF91CF9108958F929F92AF920B
:10027000BF92CF92DF92EF92FF920F931F93CF9393
:10028000DF931F92CDB7DEB75C019B014A01DC0111
:1002900052968C91811105C08B017B01E40EF51EF5
:1002A00031C080E58983C12CD12CE12CF12C8A014D
:1002B00041E050E0BE016F5F7F4FF5018485958579
:1002C0000E94E60922C0D5015596ED91FC91569702
:1002D00053968C91539791E0980F53969C93D80125
:1002E0009D918D01E80FF11D9083F501938984891B
:1002F000981308C00190F081E02D0680F781E02D71
:10030000C5010995E016F106F1F6C4010F90DF91E1
:10031000CF911F910F91FF90EF90DF90CF90BF9002
:10032000AF909F908F9008953FB7F89480914602C8
:1003300090914702A0914802B091490226B5A89B2E
:1003400005C02F3F19F00196A11DB11D3FBFBA2F67
:10035000A92F982F8827820F911DA11DB11DBC01C7
:10036000CD0142E0660F771F881F991F4A95D1F78C
:1003700008952FB7F89460914202709143028091E2
:100380004402909145022FBF08956093D20170936B
:10039000D3018093D4019093D501DC01CB01845D1E
:1003A0009E4FAF4FBF4F8093CE019093CF01A0934C
:1003B000D001B093D10182E090E09093CD01809381
:1003C000CC010E94B9016093C8017093C901809368
:1003D000CA019093CB0108951F920F920FB60F920E
:1003E00011242F933F938F939F93AF93BF9380914B
:1003F000420290914302A0914402B0914502309193
:10040000410223E0230F2D3720F40196A11DB11DD9
:1004100005C026E8230F0296A11DB11D20934102BD
:100420008093420290934302A0934402B09345020A
:100430008091460290914702A0914802B0914902F2
:100440000196A11DB11D8093460290934702A0938F
:100450004802B0934902BF91AF919F918F913F9114
:100460002F910F900FBE0F901F9018951F920F9213
:100470000FB60F9211242F933F934F935F936F9377
:100480007F938F939F93AF93BF93EF93FF9380914D
:10049000B900887F803609F49CC068F5883209F479
:1004A0005BC090F4803109F454C038F4882309F417
:1004B000F2C0883009F44DC0F2C0883109F44CC054
:1004C000803209F45DC0EBC0803409F468C048F4A0
:1004D000803309F455C0883309F0E1C080931A02D3
:1004E000D4C0803509F44FC0883509F45DC0883424
:1004F00009F0D5C0D2C0883909F4C3C0A8F4883740
:1005000009F467C038F4883609F463C0803709F409
:1005100060C0C5C0883809F4B4C0803909F45FC030
:10052000803809F0BCC05BC0803B09F484C038F45B
:10053000803A09F466C0883A09F47DC0B0C0803CB6
:1005400009F4A3C0883C09F4A0C0883B09F486C024
:10055000A6C08091400210C090913F0280913E025F
:10056000981770F5E0913F0281E08E0F80933F0273
:10057000F0E0E25EFD4F80818093BB0085EC82C09D
:1005800080931A028AC0E0913F0281E08E0F80932F
:100590003F028091BB00F0E0E25EFD4F80839091CE
:1005A0003F0280913E026AC0E0913F0281E08E0FDF
:1005B00080933F028091BB00F0E0E25EFD4F8083BC
:1005C00080911D02811169C081E080931C0284EA40
:1005D0005DC083E080931B0210921902CFCF8091FF
:1005E0001902803208F04DC0E091190281E08E0FAF
:1005F000809319028091BB00F0E0E750FE4F8083AA
:10060000BDCF85EC8093BC0010921B028091190233
:10061000803230F4E0911902F0E0E750FE4F108292
:100620006091190270E089EF91E0E0E0F0E0099557
:100630001092190234C084E080931B021092F801DA
:100640001092F701E0E0F0E009958091F701811147
:1006500005C081E08093F7011092D701E091F80185
:1006600081E08E0F8093F801F0E0E952FE4F808127
:100670008093BB009091F8018091F701981708F4DE
:100680007DCF85E88093BC000AC085EC8093BC00D8
:1006900010921B0204C010921A020E946800FF917F
:1006A000EF91BF91AF919F918F917F916F915F91EA
:1006B0004F913F912F910F900FBE0F901F90189563
:1006C0000895CF93DF93EC018D819E81DC01ED9144
:1006D000FC910084F185E02D09951816190654F453
:1006E0008D819E81DC01ED91FC910284F385E02DEA
:1006F0000995EACFDF91CF9108958F929F92AF92A3
:10070000BF92CF92DF92EF92FF92CF93DF93EC01F3
:100710006B010E94B9014B015C01E12CF12C8D8130
:100720009E81DC01ED91FC910284F385E02D099519
:1007300097FF0FC00E94B901DC01CB01881999090C
:10074000AA09BB098C159D05AE05BF0540F38FEFC7
:100750009FEFDF91CF91FF90EF90DF90CF90BF9010
:10076000AF909F908F900895FC01238134812627BC
:10077000022E2295207F2025032E322F22952F70C6
:100780000226269532272327220F220F220F20250B
:10079000348323830895CF92DF92EF92FF920F93D9
:1007A0001F936801790100E010E020E030E00E9432
:1007B000E6091F910F91FF90EF90DF90CF90089581
:1007C0000F931F9300E010E020E030E00E94CB0385
:1007D0001F910F910895CF93DF9300D01F92CDB753
:1007E000DEB729E42983FC0126852A836B8343E055
:1007F00050E0BE016F5F7F4F848595850E94E003C6
:1008000081E090E00F900F900F90DF91CF910895CD
:10081000CF93DF93FC01228921110BC0EC014389A6
:1008200050E065897689848595850E94E00381E0A2
:100830008B8BDF91CF910895CF93DF9300D0CDB70D
:10084000DEB7DC0152968C915297882379F080E5CF
:1008500089836A8342E050E0BE016F5F7F4F1C9640
:100860008D919C911D970E94E0031FC05596ED91BC
:10087000FC91569753968C91539791E0980F53960D
:100880009C935397E80FF11D608353969C91539767
:1008900054968C915497981308C0ED91FC91119740
:1008A0000680F781E02DCD01099581E090E00F9061
:1008B0000F90DF91CF910895CF92DF92EF92FF9248
:1008C0000F931F93CF93DF93CDB7DEB72E970FB65D
:1008D000F894DEBF0FBECDBF7C01C7010E9461034B
:1008E00068EE73E080E090E00E94F10FD70115966A
:1008F0008D919C911697DC01ED91FC910084F1851E
:10090000E02D09951816190644F3DD24D39482E3EB
:10091000C82E85E0E6E0F1E0DE01119601900D922F
:100920008A95E1F7F701D08645E050E0BE016F5FA0
:100930007F4FC7010E94E00363E0D70115968D91B8
:100940009C9116970E94D60D6AEF70E080E090E0CF
:100950000E94F10F66E770E0F701858196810E94A1
:10096000010C6AEF70E080E090E00E94F10F64E714
:1009700070E0D70115968D919C9116970E94010CFD
:1009800064EF71E080E090E00E94F10F68E670E0B3
:10099000F701858196810E94010C64EF71E080E08F
:1009A00090E00E94F10FC7010E94610385E0EBE037
:1009B000F1E0DE01169601900D928A95E1F7D701DC
:1009C0001896CC9204E010E09E01255F3F4F45E071
:1009D00050E0BE016A5F7F4FC7010E94CB038F3F8B
:1009E000BFEF9B0739F468EE73E080E090E00E946F
:1009F000F10F8FCF2B852111FFCF049701F52C85A7
:100A000030E02053310984E6829FA001839F500D7E
:100A100011242D8530E0205331096AE0629FC00126
:100A2000639F900D1124840F951F2E8530E0205375
:100A30003109820F931FF7019283818307C084E6F7
:100A400090E0D70112969C938E93119782E3F70161
:100A500080872E960FB6F894DEBF0FBECDBFDF9114
:100A6000CF911F910F91FF90EF90DF90CF9008955D
:100A7000CF92DF92EF92FF920F931F930E94B901E2
:100A80000091C8011091C9012091CA013091CB0198
:100A90006B017C01C01AD10AE20AF30A6091D2010B
:100AA0007091D3018091D4019091D50148EEC41684
:100AB00043E0D406E104F104D0F0DC01CB0101965F
:100AC000A11DB11D8093D2019093D301A093D401B5
:100AD000B093D50108511C4F2F4F3F4F0093C801D1
:100AE0001093C9012093CA013093CB01C7CF1F9146
:100AF0000F91FF90EF90DF90CF9008954F925F920B
:100B00006F927F928F929F92AF92BF92CF92DF921D
:100B1000EF92FF920F931F93CF93DF934B015C01F2
:100B20008091C4019091C501A091C601B091C70107
:100B300088159905AA05BB0509F4D2C08CE3C82E17
:100B4000D12CE12CF12CC501B401A70196010E9422
:100B5000A0126093BD03CA01B901A70196010E94CA
:100B6000A0126093BE03C501B40120E13EE040E065
:100B700050E00E94A012CA01B90128E130E040E033
:100B800050E00E94A0126093BF03C501B40120E8A9
:100B900031E541E050E00E94A01269017A01CA01EA
:100BA000B9016C5F7F4F8F4F9F4F27E030E040E0EF
:100BB00050E00E94A0126F5F6093C003412C512C43
:100BC000320140E004E610E0C0E9D1E0242F30E03B
:100BD0002E54384FF901E370FF27309789F4C9018B
:100BE000B8010E941313892B31F4C901BE010E9480
:100BF0001313892B29F48EE691E0A0E0B0E004C045
:100C00008DE691E0A0E0B0E0480E591E6A1E7B1E02
:100C1000D301C201AA27BB27C816D906EA06FB06DC
:100C200010F04F5FD3CF4093C303309799F4C901BD
:100C300064E670E00E941313892B39F4C90160E95E
:100C400071E00E941313892B29F48EE691E0A0E055
:100C5000B0E004C08DE691E0A0E0B0E0481A590A87
:100C60006A0A7B0AC418D508E608F708C90164E6D1
:100C700070E00E941313EC01C90160E971E00E9469
:100C80001313A0E1B1E020E0213039F4309749F4AA
:100C9000209729F4009729F402C04C9103C04DE13C
:100CA00001C04CE150E060E070E0C416D506E606F5
:100CB000F70640F0C41AD50AE60AF70A2F5F119624
:100CC0002C3011F72F5F2093C203C394C092C1034D
:100CD0008092C4019092C501A092C601B092C70152
:100CE000DF91CF911F910F91FF90EF90DF90CF9008
:100CF000BF90AF909F908F907F906F905F904F903C
:100D00000895CF93DF93EC016AE38EE893E00E94AD
:100D1000D60DCA30D1052CF460E38EE893E00E9432
:100D2000D60DCE01DF91CF910C943B0E2F923F92C6
:100D30004F925F926F927F928F929F92AF92BF92EB
:100D4000CF92DF92EF92FF920F931F93CF93DF9397
:100D5000CDB7DEB7E2970FB6F894DEBF0FBECDBFBA
:100D60000E94AF0B81111EC06AE671E0CE010196B0
:100D70000E945D0DCE0101960E94D90BCE01019615
:100D80000E94E30C6FE671E0CE0101960E945D0DBA
:100D9000CE0101960E94C70CCE0101960E94E30C81
:100DA0000E94E80C8AE393E00E947F0B80914C0341
:100DB000882309F4EAC167E971E0CE0185960E94B3
:100DC0005D0D0E94B20997FD0CC089831A8241E033
:100DD00050E0BE016F5F7F4FCE0185960E94990C57
:100DE000F0CF62E871E0CE0101960E945D0D89A509
:100DF0009AA5892B69F0EDA0FEA069817A81C701CF
:100E00000E945015009721F08C010E191F0902C095
:100E10000FEF1FEFCE0101960E94E30C58012FEF58
:100E2000A21AB20AB501CE0185960E9496094C011C
:100E30001C013FEF231A330AB101CE0185960E94AF
:100E400096093C0101969CA78BA7BC01CE01859613
:100E50000E9496099EA78DA762E871E0CE010196D7
:100E60000E945D0D89A59AA52D813E817C01E21A23
:100E7000F30A2115310581F1009771F1821793076B
:100E800058F1E816F90620F07C01A1E0EA1AF10811
:100E9000CDA0DEA029813A8138AB2FA7C60144241A
:100EA0004A9455245A94D601AE0DBF1DBAABA9ABD6
:100EB00029A93AA92817390798F06FA578A90E949F
:100EC0005015009769F09C012C193D09E216F306B4
:100ED00008F029010196ECCFEE24EA94FE2C01C023
:100EE0007201CE0101960E94E30C980140E050E0AF
:100EF000BE016B5D7F4FCE014F960E94720D940133
:100F0000A501BE016B5D7F4FCE0149960E94720D17
:100F10009301A101BE016B5D7F4FCE0143960E94FC
:100F2000720D2DA53EA54BA55CA5BE016B5D7F4F47
:100F3000CE010D960E94720D4DA55EA54F5F5F4FCD
:100F40009701BE016B5D7F4FCE0107960E94720D27
:100F500029A53AA5A7014F5F5F4FBE016B5D7F4F8B
:100F6000CE0101960E94720DCE014F960E948E0C0A
:100F7000962E862F972F9093C3018093C201CE01A6
:100F800049960E948E0C362E862F972F9093C10182
:100F90008093C001CE0143960E948E0C262E862F90
:100FA000972F9093BF018093BE01CE010D960E94B2
:100FB0008E0C6BA76093BC017093BD01CE010796A8
:100FC0000E948E0C862E6093BA017093BB01CE01F5
:100FD00001960E948E0CFB01643671051CF0E25BE9
:100FE000F74001C07E96E093C3038092C2033BA505
:100FF0003093C1039092BF033092BE032092BD0391
:10100000AE2FB0E020E833E341EE51E00E94C2127F
:101010002B013C0122EB37E0FF27C901825B97409F
:101020008E179F07ECF4C90183709927892BA9F4C7
:10103000C90164E670E00E941313892B39F4C901D9
:1010400060E971E00E941313892B39F480E8480E9F
:1010500081E5581E81E0681E711C2F5F3F4FDDCF78
:10106000EE54F84FCF0164E670E00E9413136C0158
:10107000CF0160E971E00E9413135C0180E1E82E6A
:1010800081E0F82E01E010E0A82DB0E0BEA7ADA7EA
:10109000E370FF272DA53EA5021713073CF502308C
:1010A000110581F4309771F4C114D10419F4A1141D
:1010B000B10441F430E8430E3BE3531E36E2631EB5
:1010C000711C0EC0D7018C91A82FB0E020E831E54B
:1010D00041E050E00E94C212460E571E681E791E63
:1010E0000F5F1F4FBFEFEB1AFB0AD4CF292D30E063
:1010F000A0E1BEE00E9404136B017C01232D30E0CF
:10110000ACE3B0E00E940413DC01CB018C0D9D1D0B
:10111000AE1DBF1D6C017D01C20CD11CE11CF11C78
:101120002BA5A22FB0E0119720E831E541E050E077
:101130000E942713DC01CB018C0D9D1DAE1DBF1D30
:10114000BC01CD01640D751D861D971D0E94C50152
:10115000CE0101960E94E30CCE0107960E94E30C9B
:10116000CE010D960E94E30CCE0143960E94E30C43
:10117000CE0149960E94E30CCE014F960E94E30CEB
:10118000CE0185960E94E30C0DCEE2960FB6F89440
:10119000DEBF0FBECDBFDF91CF911F910F91FF90AA
:1011A000EF90DF90CF90BF90AF909F908F907F9007
:1011B0006F905F904F903F902F900895CF92DF9265
:1011C000EF92FF920F931F93CF93DF936C017A01FD
:1011D0008B01C0E0D0E0CE15DF0581F0D8016D9124
:1011E0008D01D601ED91FC910190F081E02DC601B9
:1011F0000995892B11F02196EECF7E01C701DF9171
:10120000CF911F910F91FF90EF90DF90CF900895B5
:101210008091A00381110BC08091A3039091A4033E
:10122000009711F00E94E11381E08093A003809168
:101230009E0390919F03009731F00E94E11310925A
:101240009F0310929E030895CF93DF9300D0CDB7F4
:10125000DEB780914B03882381F087E789838091F3
:1012600048038A8342E050E0BE016F5F7F4F809168
:101270004603909147030E94E00310924B030F90A6
:101280000F90DF91CF9108950F931F93CF93DF932A
:10129000EC0188819981009729F02A813B812617EA
:1012A000370788F48B016F5F7F4F0E946A140097A5
:1012B00061F0998388831B830A832C813D81232BD2
:1012C00011F4FC01108281E001C080E0DF91CF9138
:1012D0001F910F910895EF92FF920F931F93CF9359
:1012E000DF93EC017B018A01BA010E944409288145
:1012F000398181110DC02115310519F0C9010E94F4
:10130000E113198218821D821C821B821A8206C078
:101310001D830C83B701C9010E944915CE01DF91DD
:10132000CF911F910F91FF90EF900895CF93DF938E
:10133000FC01248135816217730778F49B01C08119
:10134000D1816AE370E0CE01820F931F0E943E15A7
:10135000009719F08C1B9D0B02C08FEF9FEFDF9160
:10136000CF9108950F931F930E94B9016093420398
:101370007093430380934403909345038AE393E07F
:101380000E94DA0097FF1FC00E94B901009142033A
:10139000109143032091440330914503DC01CB01BC
:1013A000801B910BA20BB30B00913E0310913F03E6
:1013B000209140033091410380179107A207B307A2
:1013C000E8F28FEF9FEF1F910F9108952F923F92B8
:1013D0004F925F926F927F928F929F92AF92BF9245
:1013E000CF92DF92EF92FF920F931F93CF93DF93F1
:1013F000CDB7DEB72E970FB6F894DEBF0FBECDBFC8
:101400009E878D873B0129019A01200F311F3A8366
:1014100029838A80912C22242A94322CCB01840F98
:10142000951F98878F83D201A00FB11FBA87A98714
:10143000F701EC0DFD1DFC87EB87AD85BE85189689
:101440008C911897981608F03FC114963C922E92F2
:10145000139715968D919C911697DC01ED91FC9157
:101460000190F081E02D6FEF09956FEF8D859E85DE
:101470000E94B403ED85FE8585819681DC01ED91A6
:10148000FC910190F081E02DAD85BE856C910995B0
:10149000ED85FE856081CF010E94B403AD85BE85D8
:1014A00015968D919C911697DC01ED91FC91019020
:1014B000F081E02D682D0995682D8D859E850E940F
:1014C000B403ED85FE8585819681DC01ED91FC916B
:1014D0000190F081E02D6981099569818D859E8556
:1014E0000E94B4035301EF81F885AE16BF06C1F028
:1014F000AD85BE8515968D919C9116978501DC0171
:10150000ED91FC910190F081E02DD5016D915D018F
:101510000995F80160818D859E850E94B403E3CF13
:101520008201AD85BE8515968D919C911697E985B2
:10153000FA850E171F0791F05801DC01ED91FC911F
:101540000190F081E02DD8016D918D010995F50193
:1015500060818D859E850E94B403E3CFAD85BE85F5
:1015600014966C91DC01ED91FC910190F081E02DDD
:101570000995ED85FE8585819681DC01ED91FC91D3
:101580000190F081E02DAD85BE8513966C91099593
:1015900068EC70E08D859E850E947D038F3F9105EC
:1015A00009F086C0ED85FE85348223826FEFCF017E
:1015B0000E94B40365E070E08D859E850E947D03E6
:1015C000AD85BE856C91262F30E08217930709F018
:1015D0006FC0CD010E94B4036AE070E08D859E85E6
:1015E0000E947D035C0197FD63C0682F8D859E85F9
:1015F0000E94B4036AE070E08D859E850E947D03A1
:101600008C0197FD55C0682F8D859E850E94B4037F
:10161000AC821B82EB81FC810E0F1F1F57019701CB
:10162000200F311F3E832D838D819E81A816B90620
:10163000C1F0AB85BC85AA16BB0699F065E070E0E9
:101640008D859E850E947D0397FD07C0F5018083EF
:10165000682F8D859E850E94B403FFEFAF1ABF0AE5
:10166000E3CF65E070E08D859E850E947D035C017F
:1016700097FD1EC065E070E08D859E850E947D030C
:1016800097FD16C0BA2CAA248A0D9B1DAD85BE8578
:1016900013962D913C9114978217930749F48C91DE
:1016A0008F5F8C93C801C016D10680F4C6010EC0AE
:1016B000939464E670E080E090E00E94F10F8D85E5
:1016C0009E850E946103B9CE8FEF9FEF2E960FB6D5
:1016D000F894DEBF0FBECDBFDF91CF911F910F9168
:1016E000FF90EF90DF90CF90BF90AF909F908F9042
:1016F0007F906F905F904F903F902F900895EF9262
:10170000FF920F931F93CF93DF9300D01F92CDB71B
:10171000DEB7FC012289211118C07C01138A8FE4F5
:10172000898380E48B8386858A839F012C5E3F4F6B
:1017300000E410E043E050E0BE016F5F7F4F84851E
:1017400095850E94CB03F701828B0F900F900F902D
:10175000DF91CF911F910F91FF90EF9008950F931C
:101760001F93CF93DF9300D01F92CDB7DEB782E7F0
:101770008983809148038A8301E010E09E012D5FF8
:101780003F4F42E050E0BE016F5F7F4F80914603C4
:10179000909147030E94CB0381E09B81913009F037
:1017A00080E00F900F900F90DF91CF911F910F91DC
:1017B00008950F931F93CF93DF938C010E94240908
:1017C00086E090E00E944913EC01198218821B8286
:1017D0001A821D821C820817190751F0F8016081D6
:1017E00071816115710521F0448155810E946B0959
:1017F000D0934A03C0934903DF91CF911F910F917A
:101800000895EF92FF920F931F93CF93DF938C0174
:101810007B01C0E0D0E0F701EC0FFD1F649166236F
:1018200061F0D801ED91FC910190F081E02DC801AB
:101830000995892B11F02196EECFCE01DF91CF9142
:101840001F910F91FF90EF90089580919A039091CE
:101850009B03FC012781211104C021E027830E9402
:101860005C040E94080980E290E00E944913909372
:101870009F0380939E030895FC01A089B18982E0B3
:101880008C93A485B5851C92A685B78587E08C933B
:10189000108EA489B58986E08C93A289B3898C9136
:1018A00080618C93A289B3898C9188608C93A28982
:1018B000B3898C9180688C930288F389E02D8081B4
:1018C0008F7D80830895EF92FF920F931F93CF93A4
:1018D000DF9300D0CDB7DEB7FC012685211115C0FE
:1018E0007C01178680E7898380E28A832089318999
:1018F00000E210E042E050E0BE016F5F7F4F848560
:1019000095850E94CB03F70186870F900F90DF919A
:10191000CF911F910F91FF90EF900895FC0180816E
:101920009181009711F00C94641260E070E0CB019B
:101930000895EF92FF920F931F93CF93DF9361155A
:10194000710511F480E01CC041155105C1F07B0107
:10195000EC018C819D818A01080F191FB801CE010D
:101960000E944409882371F3288139818C819D81EB
:10197000B701820F931F0E9449151D830C8381E0DC
:10198000DF91CF911F910F91FF90EF9008950F93EA
:101990001F93CF93DF938C01CAE3D3E041E050E083
:1019A00064E871E08F8598890E94990CF801448160
:1019B0005581608171818F859889DF91CF911F91C9
:1019C0000F910C94990CFC01808191810C94E1138E
:1019D000CF92DF92EF92FF920F931F93CF93DF93FB
:1019E00000D000D0CDB7DEB782E58B83E09149030C
:1019F000F0914A03048115812081318142E0C42E97
:101A0000D12CCE0101967C0141E050E0BE016D5F1A
:101A10007F4F80914603909147030E94E6098A8197
:101A2000809348030091490310914A030115110561
:101A300031F0C8010E94E30CC8010E94E11310922A
:101A40004A03109249038981811103C081E0809388
:101A50004B030E94AF0B882339F064E670E080E00E
:101A600090E00E94F10FF5CF87E58B8380914803CA
:101A70008C8302E010E09E012F5F3F4F42E050E078
:101A8000BE016D5F7F4F80914603909147030E9496
:101A9000CB03898190E0982F88272A81820F911D9E
:101AA0000F900F900F900F90DF91CF911F910F919A
:101AB000FF90EF90DF90CF900895FC01118210828B
:101AC00013821282158214826115710551F0FB0197
:101AD00001900020E9F73197AF01461B570B0C949A
:101AE0006B090895BF92CF92DF92EF92FF920F930E
:101AF0001F93CF93DF937C016B01EA0189012417C7
:101B0000350720F48D2FE901042F182F67E971E0C4
:101B1000C7010E945D0DD60114968D919C91159779
:101B2000C817D907C0F58017910708F48C01D601B2
:101B3000ED91FC911197E00FF11FB08010826D9133
:101B40007C916C0F7D1F6115710561F0FB010190A7
:101B50000020E9F73197AF01461B570BC7010E94E0
:101B60006B0913C0F70180819181009711F00E94E9
:101B7000E113D70111961C921E9215961C921E928B
:101B8000149713961C921E921297D601ED91FC9118
:101B9000E00FF11FB082C701DF91CF911F910F912C
:101BA000FF90EF90DF90CF90BF900895DC01ED9112
:101BB000FC910190F081E02D09946115710579F097
:101BC000FB0101900020E9F73197AF01461B570B4D
:101BD000DC01ED91FC910280F381E02D099480E01D
:101BE00090E008958F929F92AF92BF92EF92FF92F2
:101BF0000F931F93CF93DF93CDB7DEB7A1970FB6A7
:101C0000F894DEBF0FBECDBF7C01FA01CB0119A253
:101C1000223008F42AE08E010F5D1F4F822E912C96
:101C2000A12CB12CBF01A50194010E94A012F901C1
:101C3000CA01015011096A3014F4605D01C0695C89
:101C4000D8016C93232B242B252B61F7B801C701F6
:101C50000E94DD0DA1960FB6F894DEBF0FBECDBF7A
:101C6000DF91CF911F910F91FF90EF90BF90AF90B8
:101C70009F908F900895CF92DF92EF92FF92CF9333
:101C8000DF936C01990FEE08FF08F7FE1BC06DE2B1
:101C90008EE893E00E94D60DEC0144275527BA0147
:101CA0004C195D096E097F092AE08EE893E00E94D5
:101CB000F20D8C0F9D1FDF91CF91FF90EF90DF9081
:101CC000CF9008952AE0B701A6018EE893E0DF9156
:101CD000CF91FF90EF90DF90CF900C94F20DFC012C
:101CE000538D448D252F30E0842F90E0821B930B81
:101CF000541710F0CF96089501970895FC01918D27
:101D0000828D981761F0828DDF01A80FB11D5D965D
:101D10008C91928D9F5F9F73928F90E008958FEFCB
:101D20009FEF0895FC01918D828D981731F0828D7F
:101D3000E80FF11D858D90E008958FEF9FEF0895D6
:101D4000FC01918D228D892F90E0805C9F4F821B3A
:101D500091098F73992708958AE492E00E94A00E5A
:101D600021E0892B09F420E0822F0895FC01848D65
:101D7000DF01A80FB11DA35ABF4F2C91848D90E0B5
:101D800001968F739927848FA689B7892C93A08990
:101D9000B1898C91837080648C93938D848D98131A
:101DA00006C00288F389E02D80818F7D80830895AD
:101DB000EF92FF920F931F93CF93DF93EC0181E09B
:101DC000888F9B8D8C8D981305C0E889F989808157
:101DD00085FD26C0F62E0B8D10E00F5F1F4F0F7391
:101DE0001127E02E8C8DE8120CC00FB607FCFACF3D
:101DF000E889F989808185FFF5CFCE010E94B60E72
:101E0000F1CF8B8DFE01E80FF11DE35AFF4FF082F9
:101E10009FB7F8940B8FEA89FB89808180620AC0A2
:101E20009FB7F894EE89FF896083E889F9898081FA
:101E30008370806480839FBF81E090E0DF91CF91C9
:101E40001F910F91FF90EF900895CF93DF93EC01D6
:101E5000888D8823C9F0EA89FB89808185FD05C0CA
:101E6000A889B9898C9186FD0FC00FB607FCF5CF04
:101E7000808185FFF2CFA889B9898C9185FFEDCF4C
:101E8000CE010E94B60EE7CFDF91CF91089580E09A
:101E900090E0892B29F00E94AC0E81110C94000077
:101EA00008958F929F92AF92BF92CF92DF92EF925E
:101EB000FF920F931F93CF93DF937C018B016C01F3
:101EC00082E0C80ED11C4701E5E08E0E911CC0E0F7
:101ED000D0E0F60141916F0150E060E070E02AE04F
:101EE000C8010E94F20D5C016EE2C8010E94D60D8D
:101EF0008A0D9B1DC80FD91FC814D90451F7F701CB
:101F0000458150E060E070E02AE0C8010E94F20DD7
:101F10008C0F9D1FDF91CF911F910F91FF90EF903C
:101F2000DF90CF90BF90AF909F908F9008950E94C8
:101F300030151F920F920FB60F9211242F933F93DB
:101F40004F935F936F937F938F939F93AF93BF93C1
:101F5000EF93FF938AE492E00E94B60EFF91EF9117
:101F6000BF91AF919F918F917F916F915F914F91B1
:101F70003F912F910F900FBE0F901F9018951F92B9
:101F80000F920FB60F9211242F938F939F93EF937D
:101F9000FF93E0915A02F0915B028081E091600230
:101FA000F091610282FD12C09081809163028F5F87
:101FB0008F7320916402821751F0E0916302F0E088
:101FC000E65BFD4F958F8093630201C08081FF9196
:101FD000EF919F918F912F910F900FBE0F901F90B7
:101FE00018958F929F92AF92BF92CF92DF92EF920D
:101FF000FF926B017C010E9494014B015C01C114B2
:10200000D104E104F104F1F00E949401DC01CB0160
:1020100088199909AA09BB09883E9340A105B10511
:1020200070F321E0C21AD108E108F10888EE880EA9
:1020300083E0981EA11CB11CC114D104E104F10479
:1020400019F7DDCFFF90EF90DF90CF90BF90AF906A
:102050009F908F9008958AE491E090933B03809342
:102060003A030E9424098CE591E090938F038093BA
:102070008E030C940809CF93DF93EAE4F2E0138215
:10208000128248EE53E060E070E04483558366833B
:10209000778380E291E09183808385EC90E095875F
:1020A000848784EC90E09787868780EC90E0918B22
:1020B000808B81EC90E0938B828B82EC90E0958B0F
:1020C000848B86EC90E0978B868B118E128E138E0C
:1020D000148EA5EAB3E013961C921E9212971496E2
:1020E0004D935D936D937C93179782E391E08D936D
:1020F0009C93AEE8B3E013961C921E92129714962E
:102100004D935D936D937C9317978CE591E01196B9
:102110009C938E93CFE2D3E01D96DC93CE931C97D5
:102120001E961C921E971F961C921F9751961C92EA
:102130001E92509781E052968C931882FE83ED8315
:102140001F821886FA87E987E1EBF3E084E491E0E7
:10215000918380831282138214821582E7EEF2E06B
:1021600016821782108611861286138614861586AB
:1021700016861786108A118A128A138A148A158A7B
:10218000EAE3F3E013821282448355836683778304
:102190002AE431E031832083D587C487118A128AEB
:1021A000138AE7EBF3E09183808312821382148217
:1021B0001582DF91CF910895CF93DF9300D000D0A7
:1021C00000D0CDB7DEB7789484B5826084BD84B585
:1021D000816084BD85B5826085BD85B5816085BD22
:1021E00080916E00816080936E00109281008091DA
:1021F0008100826080938100809181008160809362
:102200008100809180008160809380008091B10086
:1022100084608093B1008091B00081608093B000B1
:1022200080917A00846080937A0080917A00826045
:1022300080937A0080917A00816080937A00809107
:102240007A00806880937A001092C100109229036E
:1022500010922A0310922B0310922C031092E90281
:102260001092EA021092EB021092EC020E94B90165
:102270006B017C014B015C0128EB820E2BE0921E6E
:10228000A11CB11C0E94B9016C157D058E059F052E
:1022900028F086169706A806B906A0F78EE893E000
:1022A00090932E0380932D038091380390913903EE
:1022B0000E943C0C80913603811107C081E080931D
:1022C00036038FE293E00E945C040E94250C60EDCF
:1022D00077E080E090E00E94F10F0E94B9016093E6
:1022E000E9027093EA028093EB029093EC0266E8B5
:1022F00071E080912D0390912E030E94DD0D0E94CC
:10230000B9016B017C014B015C013AE0830E911C29
:10231000A11CB11C0E94B9016C157D058E059F059D
:1023200028F086169706A806B906A0F711E01093C4
:10233000FD0280913803909139030E943C0C8091FA
:102340003603811106C0109336038FE293E00E949A
:102350005C040E94250C81E6F82EF98201E010E071
:102360009E012F5F3F4F41E050E0B90180919A03F9
:1023700090919B030E94CB038981813071F70E9469
:10238000AF0B81111EC06AE671E0CE0101960E947A
:102390005D0DCE0101960E94D90BCE0101960E94DF
:1023A000E30C68E971E0CE0101960E945D0DCE015B
:1023B00001960E94C70CCE0101960E94E30C0E9478
:1023C000E80C0E9496060E94B901C090C403D09008
:1023D000C503E090C603F090C7039B01AC012C1924
:1023E0003D094E095F0969017A0130E8C3163EEEE6
:1023F000D30636E3E306F10408F463C06093C40334
:102400007093C5038093C6039093C7030E949606FA
:102410006EEA71E08EE893E00E94DD0D65E971E0FF
:102420008EE893E00E94DD0D0E9438050E947E0533
:102430008091BF0390E00E943B0E0E9438050E94ED
:102440007E058091BE0390E00E9481060E943805BF
:102450000E947E058091BD0390E00E94810660E2AB
:102460008EE893E00E94D60D0E9438050E947E05FA
:102470008091C10390E00E943B0E60E28EE893E001
:102480000E94D60D0E9438050E947E058091C203ED
:1024900090E00E943B0E60E28EE893E00E94D60D31
:1024A0000E9438050E947E058091C30390E08E54FF
:1024B000984F0E943B0E65E971E08EE893E00E9420
:1024C000DD0D0E94470F7FCF1F93FC0199278827BE
:1024D000BC01E89411911032E9F3193010F01E306C
:1024E000C8F31B3251F01D3249F4689406C00E94B3
:1024F0008B12610F711D811D911D119110531A30A6
:10250000B0F33EF490958095709561957F4F8F4F15
:102510009F4F1F910895592F482F372F262F660F51
:10252000771F881F991F660F771F881F991F620FDB
:10253000731F841F951F660F771F881F991F0895AB
:10254000A1E21A2EAA1BBB1BFD010DC0AA1FBB1FB7
:10255000EE1FFF1FA217B307E407F50720F0A21B29
:10256000B30BE40BF50B661F771F881F991F1A9496
:1025700069F760957095809590959B01AC01BD01C0
:10258000CF0108950E940413A59F900DB49F900D54
:10259000A49F800D911D112408952F923F924F9278
:1025A0005F926F927F928F929F92AF92BF92CF92E3
:1025B000DF92EF92FF920F931F93CF93DF93CDB7EC
:1025C000DEB7CA1BDB0B0FB6F894DEBF0FBECDBF64
:1025D00009942A88398848885F846E847D848C8435
:1025E0009B84AA84B984C884DF80EE80FD800C813E
:1025F0001B81AA81B981CE0FD11D0FB6F894DEBF21
:102600000FBECDBFED010895A29FB001B39FC001E1
:10261000A39F700D811D1124911DB29F700D811D0E
:102620001124911D089597FB072E16F4009407D0EE
:1026300077FD09D00E942F1307FC05D03EF490953A
:1026400081959F4F0895709561957F4F0895B7FFCD
:102650000C94C2120E94C212821B930B0895AA1BF3
:10266000BB1B51E107C0AA1FBB1FA617B70710F07D
:10267000A61BB70B881F991F5A95A9F780959095AF
:10268000BC01CD010895EE0FFF1F0590F491E02DE0
:1026900009940F931F93CF93DF938230910510F429
:1026A00082E090E0E091CA03F091CB0320E030E0BB
:1026B000A0E0B0E0309719F140815181028113818F
:1026C00048175907C8F08417950769F4109731F037
:1026D00012960C93129713961C9327C00093CA036B
:1026E0001093CB0322C02115310519F0421753076F
:1026F00018F49A01BD01EF01DF01F801DBCF2115CC
:102700003105F9F0281B390B2430310580F48A811A
:102710009B816115710521F0FB019383828304C0C5
:102720009093CB038093CA03FE01329644C0FE010E
:10273000E20FF31F8193919322503109398328834B
:102740003AC02091C8033091C903232B41F4209152
:102750000201309103013093C9032093C8032091F3
:102760000001309101012115310541F42DB73EB72B
:102770004091040150910501241B350BE091C803E1
:10278000F091C903E217F307A0F42E1B3F0B2817A3
:10279000390778F0AC014E5F5F4F2417350748F0DA
:1027A0004E0F5F1F5093C9034093C80381939193C9
:1027B00002C0E0E0F0E0CF01DF91CF911F910F91D7
:1027C0000895CF93DF93009709F481C0FC013297FD
:1027D00013821282A091CA03B091CB03109781F4A7
:1027E00020813181820F931F2091C8033091C9034A
:1027F0002817390751F5F093C903E093C80367C060
:10280000ED0120E030E0CE17DF0740F44A815B8124
:102810009E0141155105F1F0EA01F5CFD383C28342
:1028200040815181840F951FC817D90759F48881B9
:102830009981840F951F0296918380838A819B8161
:10284000938382832115310529F4F093CB03E09320
:10285000CA033DC0E901FB83EA8349915991C40F42
:10286000D51FEC17FD0761F480819181840F951FBE
:102870000296E90199838883828193819B838A836D
:10288000E0E0F0E012968D919C911397009719F07B
:10289000FD01DC01F7CF8D919C9111979D012E5F79
:1028A0003F4F820F931F2091C8033091C90328170F
:1028B000390769F4309729F41092CB031092CA03B8
:1028C00002C013821282B093C903A093C803DF91A0
:1028D000CF910895A0E0B0E0E0E7F4E10C94D112CC
:1028E000EC01009721F4CB010E944913B4C0FC0114
:1028F000E60FF71F9C0122503109E217F30708F495
:10290000A8C0D9010D911C91119706171707B0F0B7
:102910000530110508F49BC0C80104978617970776
:1029200008F495C002501109061B170B019311936F
:102930006D937C93CF010E94E11389C05B01A01AC3
:10294000B10A4C01800E911EA091CA03B091CB0335
:10295000612C712CE12CF12C109709F446C08D915B
:102960009C911197A815B905B1F56C0142E0C40E10
:10297000D11CCA14DB0478F14C018A189B0864014D
:1029800042E0C40ED11C1296BC9012971396AC91E3
:10299000B5E0CB16D10440F0B282A383918280824D
:1029A000D9016D937C9309C00E5F1F4F800F911F5B
:1029B000F90191838083EB2DFA2FE114F10431F0BA
:1029C000D7011396FC93EE93129741C0F093CB037B
:1029D000E093CA033CC06816790608F43C017D0107
:1029E00012960D90BC91A02DB7CF8091C803909105
:1029F000C90388169906E1F466167706C8F4809133
:102A0000000190910101009741F48DB79EB740916C
:102A1000040150910501841B950BE817F907C8F4D0
:102A2000F093C903E093C803F901718360830FC079
:102A3000CB010E9449137C01009759F0A801BE0107
:102A40000E943515CE010E94E113C70104C0CE01DA
:102A500002C080E090E0CDB7DEB7EEE00C94ED125E
:102A600081E090E0F8940C946A15FB01DC0102C04F
:102A700001900D9241505040D8F70895FC0181918A
:102A8000861721F08823D9F7992708953197CF0128
:102A90000895FB01DC0101900D920020E1F70895FB
:102AA000FB0151915523A9F0BF01DC014D91451760
:102AB0004111E1F759F4CD010190002049F04D9109
:102AC00040154111C9F3FB014111EFCF81E090E0C6
:102AD0000197089510E0CDE3D0E004C0FE010E940C
:0E2AE00043132196CE33D107C9F7F894FFCFE8
:102AEE000000CC0380005858585858585831303090
:102AFE001F1C1F1E1F1E1F1F1E1F1E1F000000005B
:102B0E00D80EDE086F0E250FA00E7E0E920E000060
:102B1E000000B200A700C4006003A0009D009A0050
:102B2E0000000000510F00000000EB03DE08C4009F
:102B3E006003F200DA00C700000000001C0435013B
:102B4E00C40008042B011101FC0064617465002BA4
:102B5E0025483A254D3A25533A25643A256D3A25AE
:102B6E0079003A00FE00564D4450565F317C315F7D
:102B7E00564D4450560D0A002B256D2C25642C25E0
:102B8E00792C25412C25482C254D2C255300546994
:0A2B9E006D652053796E63656400D5
:00000001FF
