:100000000C943E000C9466000C9466000C94660000
:100010000C9466000C9466000C9466000C946600C8
:100020000C9466000C9466000C9466000C946600B8
:100030000C9466000C9466000C9466000C946600A8
:100040000C9412090C9466000C9449070C94230735
:100050000C9466000C9466000C9466000C94660088
:100060000C945C090C94660072756E2D6272696462
:1000700067650A000A000A00F30DE30D11241FBE94
:10008000CFEFD8E0DEBFCDBF23E0AEEAB1E001C0E4
:100090001D92AC3BB207E1F711E0A0E0B1E0EAE26B
:1000A000FAE202C005900D92AE3AB107D9F710E01E
:1000B000CDE3D0E004C02197FE010E94E112CC33D1
:1000C000D107C9F70E94940E0C9408150C940000F7
:1000D000CF92DF92EF92FF920F931F93CF93DF9314
:1000E0006C017A018B01C0E0D0E0CE15DF0581F014
:1000F000D8016D918D01D601ED91FC910190F081B7
:10010000E02DC6010995892B11F02196EECF7E01D5
:10011000C701DF91CF911F910F91FF90EF90DF907A
:10012000CF900895CF93DF9300D0CDB7DEB7809105
:10013000AF02882381F087E789838091AC028A83AC
:1001400042E050E0BE016F5F7F4F8091AA02909124
:10015000AB020E94760C1092AF020F900F90DF91CD
:10016000CF9108958091040381110BC08091070302
:1001700090910803009711F00E947F1381E0809313
:1001800004038091020390910303009731F00E94D1
:100190007F13109203031092020308950F931F938D
:1001A000CF93DF93EC0188819981009729F02A8110
:1001B0003B812617370788F48B016F5F7F4F0E94C2
:1001C0000814009761F0998388831B830A832C812C
:1001D0003D81232B11F4FC01108281E001C080E0FD
:1001E000DF91CF911F910F910895EF92FF920F939E
:1001F0001F93CF93DF93EC017B018A01BA010E9428
:10020000CE002881398181110DC02115310519F0E9
:10021000C9010E947F13198218821D821C821B82D1
:100220001A8206C01D830C83B701C9010E94E7141E
:10023000CE01DF91CF911F910F91FF90EF90089524
:100240002F923F924F925F926F927F928F929F92E6
:10025000AF92BF92CF92DF92EF92FF920F931F93D4
:10026000CF93DF93CDB7DEB72E970FB6F894DEBFEE
:100270000FBECDBF9E878D873B0129019A01200FBC
:10028000311F3A8329838A80912C22242A94322C8C
:10029000CB01840F951F98878F83D201A00FB11FC8
:1002A000BA87A987F701EC0DFD1DFC87EB87AD85AB
:1002B000BE8518968C911897981608F03FC1149631
:1002C0003C922E92139715968D919C911697DC0176
:1002D000ED91FC910190F081E02D6FEF09956FEFAA
:1002E0008D859E850E944A0CED85FE8585819681CF
:1002F000DC01ED91FC910190F081E02DAD85BE8592
:100300006C910995ED85FE856081CF010E944A0CB4
:10031000AD85BE8515968D919C911697DC01ED916A
:10032000FC910190F081E02D682D0995682D8D8557
:100330009E850E944A0CED85FE8585819681DC01B3
:10034000ED91FC910190F081E02D69810995698121
:100350008D859E850E944A0C5301EF81F885AE166B
:10036000BF06C1F0AD85BE8515968D919C911697FF
:100370008501DC01ED91FC910190F081E02DD5012A
:100380006D915D010995F80160818D859E850E94C2
:100390004A0CE3CF8201AD85BE8515968D919C9167
:1003A0001697E985FA850E171F0791F05801DC01B1
:1003B000ED91FC910190F081E02DD8016D918D01BE
:1003C0000995F50160818D859E850E944A0CE3CFD9
:1003D000AD85BE8514966C91DC01ED91FC91019088
:1003E000F081E02D0995ED85FE8585819681DC0102
:1003F000ED91FC910190F081E02DAD85BE851396C5
:100400006C91099568EC70E08D859E850E94130CB7
:100410008F3F910509F086C0ED85FE8534822382E9
:100420006FEFCF010E944A0C65E070E08D859E85DC
:100430000E94130CAD85BE856C91262F30E082178B
:10044000930709F06FC0CD010E944A0C6AE070E08A
:100450008D859E850E94130C5C0197FD63C0682FFB
:100460008D859E850E944A0C6AE070E08D859E8590
:100470000E94130C8C0197FD55C0682F8D859E85B9
:100480000E944A0CAC821B82EB81FC810E0F1F1F65
:1004900057019701200F311F3E832D838D819E814F
:1004A000A816B906C1F0AB85BC85AA16BB0699F0A3
:1004B00065E070E08D859E850E94130C97FD07C056
:1004C000F5018083682F8D859E850E944A0CFFEF81
:1004D000AF1ABF0AE3CF65E070E08D859E850E946C
:1004E000130C5C0197FD1EC065E070E08D859E8554
:1004F0000E94130C97FD16C0BA2CAA248A0D9B1DCE
:10050000AD85BE8513962D913C9114978217930764
:1005100049F48C918F5F8C93C801C016D10680F48A
:10052000C6010EC0939464E670E080E090E00E9403
:100530007B078D859E850E94F70BB9CE8FEF9FEFCD
:100540002E960FB6F894DEBF0FBECDBFDF91CF91D0
:100550001F910F91FF90EF90DF90CF90BF90AF90E1
:100560009F908F907F906F905F904F903F902F90D3
:1005700008950F931F93CF93DF938C010E949200F5
:1005800086E090E00E94E712EC01198218821B823B
:100590001A821D821C820817190751F0F801608128
:1005A00071816115710521F0448155810E94F5002A
:1005B000D093AE02C093AD02DF91CF911F910F9106
:1005C00008950F931F93CF93DF9300D01F92CDB761
:1005D000DEB782E789838091AC028A8301E010E074
:1005E0009E012D5F3F4F42E050E0BE016F5F7F4FA5
:1005F0008091AA029091AB020E94610C81E09B81E4
:10060000913009F080E00F900F900F90DF91CF9123
:100610001F910F910895EF92FF920F931F93CF9325
:10062000DF938C017B01C0E0D0E0F701EC0FFD1FF0
:100630006491662361F0D801ED91FC910190F08105
:10064000E02DC8010995892B11F02196EECFCE013E
:10065000DF91CF911F910F91FF90EF9008958091BE
:10066000FE029091FF02FC012781211104C021E0CC
:1006700027830E94F20C0E94B20080E290E00E9468
:10068000E71290930303809302030895FC01A0896D
:10069000B18982E08C93A485B5851C92A685B78527
:1006A00087E08C93108EA489B58986E08C93A2890B
:1006B000B3898C9180618C93A289B3898C91886075
:1006C0008C93A289B3898C9180688C930288F3897A
:1006D000E02D80818F7D80830895CF93DF93FC018F
:1006E000248135816217730778F49B01C081D18121
:1006F0006AE370E0CE01820F931F0E94DC14009722
:1007000019F08C1B9D0B02C08FEF9FEFDF91CF91F3
:1007100008950F931F930E9406096093A602709399
:10072000A7028093A8029093A9028EE992E00E940A
:10073000270897FF1FC00E9406090091A60210918A
:10074000A7022091A8023091A902DC01CB01801BF5
:10075000910BA20BB30B0091A2021091A302209166
:10076000A4023091A50280179107A207B307E8F20F
:100770008FEF9FEF1F910F910895EF92FF920F93CC
:100780001F93CF93DF9300D01F92CDB7DEB7FC014C
:100790002289211118C07C01138A8FE4898380E4A7
:1007A0008B8386858A839F012C5E3F4F00E410E097
:1007B00043E050E0BE016F5F7F4F848595850E94C6
:1007C000610CF701828B0F900F900F90DF91CF910A
:1007D0001F910F91FF90EF900895EF92FF920F936A
:1007E0001F93CF93DF9300D0CDB7DEB7FC012685F2
:1007F000211115C07C01178680E7898380E28A83F6
:100800002089318900E210E042E050E0BE016F5FD4
:100810007F4F848595850E94610CF70186870F9034
:100820000F90DF91CF911F910F91FF90EF9008955E
:10083000FC0180819181009711F00C94021260E01C
:1008400070E0CB010895EF92FF920F931F93CF9327
:10085000DF936115710511F480E01CC0411551054D
:10086000C1F07B01EC018C819D818A01080F191F69
:10087000B801CE010E94CE00882371F3288139810E
:100880008C819D81B701820F931F0E94E7141D8305
:100890000C8381E0DF91CF911F910F91FF90EF903A
:1008A00008950F931F93CF93DF938C01CEE9D2E08D
:1008B00041E050E06AE671E08F8598890E94230448
:1008C000F80144815581608171818F859889DF911C
:1008D000CF911F910F910C942304FC018081918191
:1008E0000C947F13CF92DF92EF92FF920F931F939E
:1008F000CF93DF9300D000D0CDB7DEB782E58B83F6
:10090000E091AD02F091AE02048115812081318128
:1009100042E0C42ED12CCE0101967C0141E050E092
:10092000BE016D5F7F4F8091AA029091AB020E9441
:1009300020018A818093AC020091AD021091AE0239
:100940000115110531F0C8010E946D04C8010E9413
:100950007F131092AE021092AD028981811103C003
:1009600081E08093AF020E94E102882339F064E6BF
:1009700070E080E090E00E947B07F5CF87E58B83F5
:100980008091AC028C8302E010E09E012F5F3F4F0C
:1009900042E050E0BE016D5F7F4F8091AA029091CE
:1009A000AB020E94610C898190E0982F88272A81F0
:1009B000820F911D0F900F900F900F90DF91CF91AC
:1009C0001F910F91FF90EF90DF90CF900895FC0161
:1009D00011821082138212821582148261157105B0
:1009E00051F0FB0101900020E9F73197AF01461B60
:1009F000570B0C94F5000895BF92CF92DF92EF92BF
:100A0000FF920F931F93CF93DF937C016B01EA0159
:100A100089012417350720F48D2FE901042F182FA1
:100A20006DE771E0C7010E94E704D60114968D912D
:100A30009C911597C817D907C0F58017910708F43E
:100A40008C01D601ED91FC911197E00FF11FB08060
:100A500010826D917C916C0F7D1F6115710561F0A5
:100A6000FB0101900020E9F73197AF01461B570BBE
:100A7000C7010E94F50013C0F701808191810097A2
:100A800011F00E947F13D70111961C921E921596A9
:100A90001C921E92149713961C921E921297D601C6
:100AA000ED91FC91E00FF11FB082C701DF91CF9172
:100AB0001F910F91FF90EF90DF90CF90BF9008951E
:100AC000DC01ED91FC910190F081E02D099461151C
:100AD000710579F0FB0101900020E9F73197AF0132
:100AE000461B570BDC01ED91FC910280F381E02D58
:100AF000099480E090E008958F929F92AF92BF9208
:100B0000EF92FF920F931F93CF93DF93CDB7DEB792
:100B1000A1970FB6F894DEBF0FBECDBF7C01FA01DE
:100B2000CB0119A2223008F42AE08E010F5D1F4F7D
:100B3000822E912CA12CB12CBF01A50194010E9401
:100B40003E12F901CA01015011096A3014F4605DC6
:100B500001C0695CD8016C93232B242B252B61F7F2
:100B6000B801C7010E946705A1960FB6F894DEBFD1
:100B70000FBECDBFDF91CF911F910F91FF90EF90EE
:100B8000BF90AF909F908F900895CF92DF92EF9299
:100B9000FF92CF93DF936C01990FEE08FF08F7FEE9
:100BA0001BC06DE282EF92E00E946005EC014427D9
:100BB0005527BA014C195D096E097F092AE082EFB9
:100BC00092E00E947C058C0F9D1FDF91CF91FF90DA
:100BD000EF90DF90CF9008952AE0B701A60182EF51
:100BE00092E0DF91CF91FF90EF90DF90CF900C9447
:100BF0007C05FC01538D448D252F30E0842F90E03F
:100C0000821B930B541710F0CF9608950197089507
:100C1000FC01918D828D981761F0828DDF01A80F04
:100C2000B11D5D968C91928D9F5F9F73928F90E026
:100C300008958FEF9FEF0895FC01918D828D981795
:100C400031F0828DE80FF11D858D90E008958FEFD2
:100C50009FEF0895FC01918D228D892F90E0805C9B
:100C60009F4F821B91098F73992708958EEA91E017
:100C70000E942A0621E0892B09F420E0822F0895A2
:100C8000FC01848DDF01A80FB11DA35ABF4F2C9129
:100C9000848D90E001968F739927848FA689B789F8
:100CA0002C93A089B1898C91837080648C93938DEF
:100CB000848D981306C00288F389E02D80818F7D92
:100CC00080830895EF92FF920F931F93CF93DF934A
:100CD000EC0181E0888F9B8D8C8D981305C0E8898D
:100CE000F989808185FD26C0F62E0B8D10E00F5FFF
:100CF0001F4F0F731127E02E8C8DE8120CC00FB61A
:100D000007FCFACFE889F989808185FFF5CFCE010C
:100D10000E944006F1CF8B8DFE01E80FF11DE35AD2
:100D2000FF4FF0829FB7F8940B8FEA89FB8980818F
:100D300080620AC09FB7F894EE89FF896083E889D2
:100D4000F98980818370806480839FBF81E090E017
:100D5000DF91CF911F910F91FF90EF900895CF9366
:100D6000DF93EC01888D8823C9F0EA89FB898081B3
:100D700085FD05C0A889B9898C9186FD0FC00FB685
:100D800007FCF5CF808185FFF2CFA889B9898C91C6
:100D900085FFEDCFCE010E944006E7CFDF91CF91D6
:100DA000089580E090E0892B29F00E943606811199
:100DB0000C94000008958F929F92AF92BF92CF92B1
:100DC000DF92EF92FF920F931F93CF93DF937C01FB
:100DD0008B016C0182E0C80ED11C4701E5E08E0E4C
:100DE000911CC0E0D0E0F60141916F0150E060E05D
:100DF00070E02AE0C8010E947C055C016EE2C80137
:100E00000E9460058A0D9B1DC80FD91FC814D90404
:100E100051F7F701458150E060E070E02AE0C80139
:100E20000E947C058C0F9D1FDF91CF911F910F9128
:100E3000FF90EF90DF90CF90BF90AF909F908F90FA
:100E400008950E94CE141F920F920FB60F92112494
:100E50002F933F934F935F936F937F938F939F93C2
:100E6000AF93BF93EF93FF938EEA91E00E94400609
:100E7000FF91EF91BF91AF919F918F917F916F9172
:100E80005F914F913F912F910F900FBE0F901F9048
:100E900018951F920F920FB60F9211242F938F93D4
:100EA0009F93EF93FF93E091BE01F091BF0180818A
:100EB000E091C401F091C50182FD12C09081809142
:100EC000C7018F5F8F732091C801821751F0E091A5
:100ED000C701F0E0E255FE4F958F8093C70101C036
:100EE0008081FF91EF919F918F912F910F900FBE75
:100EF0000F901F9018958F929F92AF92BF92CF92B2
:100F0000DF92EF92FF926B017C010E94E1084B019E
:100F10005C01C114D104E104F104F1F00E94E10884
:100F2000DC01CB0188199909AA09BB09883E9340C5
:100F3000A105B10570F321E0C21AD108E108F1085A
:100F400088EE880E83E0981EA11CB11CC114D10448
:100F5000E104F10419F7DDCFFF90EF90DF90CF901F
:100F6000BF90AF909F908F90089585ED8093BC00C7
:100F70008091BC0084FDFCCF1092890308954091BC
:100F80006503262F30E0240F311D21323105DCF4BA
:100F9000209189032430C9F4FC0180E090E0861799
:100FA00058F4309165032191DC01AB5BBC4FA30F7A
:100FB000B11D2C930196F3CF80916503680F609368
:100FC000650380E0089581E0089582E008958FEF41
:100FD0009FEF08958FEF9FEF08958091440390E075
:100FE0009195819591090895CF93DF93CB01EA0103
:100FF000642F0E94BF07CE01DF91CF910895CF9358
:10100000DF931F92CDB7DEB7698361E0CE01019611
:101010000E94BF0781E090E00F90DF91CF9108958B
:10102000089580E090E00895CF93DF93EC010E9453
:10103000BD038A89882331F08B89C80FD11D8C8923
:1010400090E002C08FEF9FEFDF91CF910895CF9393
:10105000DF93EC010E94BD038A89882359F08150F7
:101060008A8B8B8991E0980F9B8BC80FD11D8C893F
:1010700090E002C08FEF9FEFDF91CF910895CF9363
:10108000DF93EC010E94BD038A8990E0DF91CF914C
:101090000895CF93DF93EC010E94ED038E858823A2
:1010A00041F08F85E889F989E80FF11D808190E092
:1010B00002C08FEF9FEFDF91CF910895CF93DF9321
:1010C000EC010E94ED038E85882369F081508E87A4
:1010D000E889F9898F8591E0980F9F87E80FF11DC6
:1010E000808190E002C08FEF9FEFDF91CF91089554
:1010F000CF93DF93EC010E94ED038E8590E0DF91AA
:10110000CF9108958F929F92AF92BF92CF92DF922C
:10111000EF92FF920F931F93CF93DF931F92CDB760
:10112000DEB75C019B014A01DC0152968C91811172
:1011300005C08B017B01E40EF51E31C080E589837B
:10114000C12CD12CE12CF12C8A0141E050E0BE01F0
:101150006F5F7F4FF501848595850E94200122C035
:10116000D5015596ED91FC91569753968C915397D6
:1011700091E0980F53969C93D8019D918D01E80FB3
:10118000F11D9083F50193898489981308C001901B
:10119000F081E02D0680F781E02DC5010995E0166C
:1011A000F106F1F6C4010F90DF91CF911F910F91DD
:1011B000FF90EF90DF90CF90BF90AF909F908F9077
:1011C00008953FB7F8948091B4039091B503A0912E
:1011D000B603B091B70326B5A89B05C02F3F19F001
:1011E0000196A11DB11D3FBFBA2FA92F982F8827A7
:1011F000820F911DA11DB11DBC01CD0142E0660F02
:10120000771F881F991F4A95D1F708952FB7F89433
:101210006091B0037091B1038091B2039091B303D8
:101220002FBF08951F920F920FB60F9211242F9384
:101230003F938F939F93AF93BF938091B00390910F
:10124000B103A091B203B091B3033091AF0323E097
:10125000230F2D3720F40196A11DB11D05C026E8EE
:10126000230F0296A11DB11D2093AF038093B003FD
:101270009093B103A093B203B093B3038091B403EE
:101280009091B503A091B603B091B7030196A11D4B
:10129000B11D8093B4039093B503A093B603B093AC
:1012A000B703BF91AF919F918F913F912F910F9075
:1012B0000FBE0F901F9018951F920F920FB60F92AE
:1012C00011242F933F934F935F936F937F938F934B
:1012D0009F93AF93BF93EF93FF938091B900887F63
:1012E000803609F49CC068F5883209F45BC090F43C
:1012F000803109F454C038F4882309F4F2C08830EE
:1013000009F44DC0F2C0883109F44CC0803209F4B0
:101310005DC0EBC0803409F468C048F4803309F440
:1013200055C0883309F0E1C080938803D4C080356C
:1013300009F44FC0883509F45DC0883409F0D5C080
:10134000D2C0883909F4C3C0A8F4883709F467C04B
:1013500038F4883609F463C0803709F460C0C5C02A
:10136000883809F4B4C0803909F45FC0803809F0C6
:10137000BCC05BC0803B09F484C038F4803A09F4F7
:1013800066C0883A09F47DC0B0C0803C09F4A3C0AF
:10139000883C09F4A0C0883B09F486C0A6C08091AF
:1013A000AE0310C09091AD038091AC03981770F517
:1013B000E091AD0381E08E0F8093AD03F0E0E45740
:1013C000FC4F80818093BB0085EC82C080938803B2
:1013D0008AC0E091AD0381E08E0F8093AD038091D0
:1013E000BB00F0E0E457FC4F80839091AD03809107
:1013F000AC036AC0E091AD0381E08E0F8093AD0332
:101400008091BB00F0E0E457FC4F808380918B0318
:10141000811169C081E080938A0384EA5DC083E022
:101420008093890310928703CFCF80918703803206
:1014300008F04DC0E091870381E08E0F8093870311
:101440008091BB00F0E0E959FC4F8083BDCF85EC73
:101450008093BC001092890380918703803230F41E
:10146000E0918703F0E0E959FC4F10826091870317
:1014700070E087E693E0E0E0F0E0099510928703E2
:1014800034C084E080938903109266031092650350
:10149000E0E0F0E0099580916503811105C081E0ED
:1014A0008093650310924503E091660381E08E0FFF
:1014B00080936603F0E0EB5BFC4F80818093BB0080
:1014C0009091660380916503981708F47DCF85E8B5
:1014D0008093BC000AC085EC8093BC001092890305
:1014E00004C0109288030E94B507FF91EF91BF914D
:1014F000AF919F918F917F916F915F914F913F91AC
:101500002F910F900FBE0F901F9018950895609324
:101510004003709341038093420390934303DC01A3
:10152000CB01845D9E4FAF4FBF4F80933C039093A0
:101530003D03A0933E03B0933F0382E090E090937D
:101540003B0380933A030E9406096093360370932D
:10155000370380933803909339030895CF92DF9235
:10156000EF92FF920F931F930E940609009136039A
:101570001091370320913803309139036B017C01BE
:10158000C01AD10AE20AF30A609140037091410344
:10159000809142039091430348EEC41643E0D40681
:1015A000E104F104D0F0DC01CB010196A11DB11DD5
:1015B0008093400390934103A0934203B09343036D
:1015C00008511C4F2F4F3F4F0093360310933703A2
:1015D0002093380330933903C7CF1F910F91FF90A9
:1015E000EF90DF90CF9008954F925F926F927F922D
:1015F0008F929F92AF92BF92CF92DF92EF92FF9223
:101600000F931F93CF93DF934B015C0180913203C3
:1016100090913303A0913403B09135038815990557
:10162000AA05BB0509F4D2C08CE3C82ED12CE12C4D
:10163000F12CC501B401A70196010E943E126093EE
:101640002103CA01B901A70196010E943E126093CD
:101650002203C501B40120E13EE040E050E00E94D9
:101660003E12CA01B90128E130E040E050E00E949A
:101670003E1260932303C501B40120E831E541E047
:1016800050E00E943E1269017A01CA01B9016C5F03
:101690007F4F8F4F9F4F27E030E040E050E00E94A7
:1016A0003E126F5F60932403412C512C320140E0C5
:1016B00004E610E0C0E9D1E0242F30E02E54384F8A
:1016C000F901E370FF27309789F4C901B8010E943E
:1016D000B112892B31F4C901BE010E94B112892BCC
:1016E00029F48EE691E0A0E0B0E004C08DE691E040
:1016F000A0E0B0E0480E591E6A1E7B1ED301C20155
:10170000AA27BB27C816D906EA06FB0610F04F5FCA
:10171000D3CF40932703309799F4C90164E670E072
:101720000E94B112892B39F4C90160E971E00E946D
:10173000B112892B29F48EE691E0A0E0B0E004C05C
:101740008DE691E0A0E0B0E0481A590A6A0A7B0AE7
:10175000C418D508E608F708C90164E670E00E94DD
:10176000B112EC01C90160E971E00E94B112A4E577
:10177000B1E020E0213039F4309749F4209729F482
:10178000009729F402C04C9103C04DE101C04CE127
:1017900050E060E070E0C416D506E606F70640F0BB
:1017A000C41AD50AE60AF70A2F5F11962C3011F7F2
:1017B0002F5F20932603C394C092250380923203A7
:1017C00090923303A0923403B0923503DF91CF910E
:1017D0001F910F91FF90EF90DF90CF90BF90AF904F
:1017E0009F908F907F906F905F904F900895CF93D0
:1017F000DF93EC018D819E81DC01ED91FC910084F1
:10180000F185E02D09951816190654F48D819E81F5
:10181000DC01ED91FC910284F385E02D0995EACF7E
:10182000DF91CF9108958F929F92AF92BF92CF9206
:10183000DF92EF92FF92CF93DF93EC016B010E9456
:1018400006094B015C01E12CF12C8D819E81DC01AC
:10185000ED91FC910284F385E02D099597FF0FC06F
:101860000E940609DC01CB0188199909AA09BB0964
:101870008C159D05AE05BF0540F38FEF9FEFDF91FF
:10188000CF91FF90EF90DF90CF90BF90AF909F905F
:101890008F900895FC01238134812627022E229502
:1018A000207F2025032E322F22952F700226269589
:1018B00032272327220F220F220F20253483238350
:1018C0000895CF92DF92EF92FF920F931F936801DA
:1018D000790100E010E020E030E00E9420011F913B
:1018E0000F91FF90EF90DF90CF9008950F931F938B
:1018F00000E010E020E030E00E94610C1F910F91A9
:101900000895CF93DF9300D01F92CDB7DEB729E4BF
:101910002983FC0126852A836B8343E050E0BE01C6
:101920006F5F7F4F848595850E94760C81E090E003
:101930000F900F900F90DF91CF910895CF93DF9389
:10194000FC01228921110BC0EC01438950E065891B
:101950007689848595850E94760C81E08B8BDF915A
:10196000CF910895CF93DF9300D0CDB7DEB7DC01E0
:1019700052968C915297882379F080E589836A8307
:1019800042E050E0BE016F5F7F4F1C968D919C91AD
:101990001D970E94760C1FC05596ED91FC915697AD
:1019A00053968C91539791E0980F53969C9353972D
:1019B000E80FF11D608353969C91539754968C9138
:1019C0005497981308C0ED91FC9111970680F78108
:1019D000E02DCD01099581E090E00F900F90DF910F
:1019E000CF910895CF92DF92EF92FF920F931F93C2
:1019F000CF93DF93CDB7DEB72E970FB6F894DEBF47
:101A00000FBECDBF7C01C7010E94F70B68EE73E0EB
:101A100080E090E00E947B07D70115968D919C9104
:101A20001697DC01ED91FC910084F185E02D09957C
:101A30001816190644F3DD24D39482E3C82E85E0FA
:101A4000E0E6F1E0DE01119601900D928A95E1F752
:101A5000F701D08645E050E0BE016F5F7F4FC701C0
:101A60000E94760C63E0D70115968D919C91169794
:101A70000E9460056AEF70E080E090E00E947B07C2
:101A800066E770E0F701858196810E940B036AEF9B
:101A900070E080E090E00E947B0764E770E0D7018F
:101AA00015968D919C9116970E940B0364EF71E03F
:101AB00080E090E00E947B0768E670E0F701858196
:101AC00096810E940B0364EF71E080E090E00E9439
:101AD0007B07C7010E94F70B85E0E5E6F1E0DE0138
:101AE000169601900D928A95E1F7D7011896CC923F
:101AF00004E010E09E01255F3F4F45E050E0BE014D
:101B00006A5F7F4FC7010E94610C8F3FBFEF9B0749
:101B100039F468EE73E080E090E00E947B078FCF9D
:101B20002B852111FFCF049701F52C8530E0205340
:101B3000310984E6829FA001839F500D11242D85D9
:101B400030E0205331096AE0629FC001639F900D2D
:101B50001124840F951F2E8530E020533109820F08
:101B6000931FF7019283818307C084E690E0D70139
:101B700012969C938E93119782E3F70180872E969D
:101B80000FB6F894DEBF0FBECDBFDF91CF911F918E
:101B90000F91FF90EF90DF90CF900895CF93DF9358
:101BA000EC016AE382EF92E00E946005CA30D10541
:101BB0002CF460E382EF92E00E946005CE01DF9199
:101BC000CF910C94C50584E391E090939F0280939C
:101BD0009E020E94920086E491E09093F30280932B
:101BE000F2020C94B200CF93DF93EEEAF1E013829D
:101BF000128248EE53E060E070E0448355836683D0
:101C000077838AE091E09183808385EC90E09587EB
:101C1000848784EC90E09787868780EC90E0918BB6
:101C2000808B81EC90E0938B828B82EC90E0958BA3
:101C3000848B86EC90E0978B868B118E128E138EA0
:101C4000148EA9E0B3E013961C921E92129714967C
:101C50004D935D936D937C9317978CE191E08D93F9
:101C60009C93A2EFB2E013961C921E9212971496C8
:101C70004D935D936D937C93179786E491E0119655
:101C80009C938E93C3E9D2E01D96DC93CE931C9770
:101C90001E961C921E971F961C921F9751961C927F
:101CA0001E92509781E052968C931882FE83ED83AA
:101CB0001F821886FA87E987E5E1F3E08EE291E07A
:101CC000918380831282138214821582EBE4F2E006
:101CD0001682178210861186128613861486158640
:101CE00016861786108A118A128A138A148A158A10
:101CF000EEE9F2E013821282448355836683778390
:101D000024E331E031832083D587C487118A128A86
:101D1000138AEBE1F3E091838083128213821482B1
:101D20001582DF91CF910895CF93DF93CDB7DEB7C2
:101D3000E2970FB6F894DEBF0FBECDBF789484B59E
:101D4000826084BD84B5816084BD85B5826085BDB7
:101D500085B5816085BD80916E00816080936E0045
:101D60001092810080918100826080938100809137
:101D700081008160809381008091800081608093E8
:101D800080008091B10084608093B1008091B000A8
:101D900081608093B00080917A00846080937A00A3
:101DA00080917A00826080937A0080917A008160CD
:101DB00080937A0080917A00806880937A001092F4
:101DC000C10010928D0210928E0210928F0210921A
:101DD000900210924D0210924E0210924F021092F9
:101DE00050020E9406096B017C014B015C0128EB4B
:101DF000820E2BE0921EA11CB11C0E9406096C15DC
:101E00007D058E059F0528F086169706A806B9065B
:101E1000A0F782EF92E090939202809391028091DA
:101E20009C0290919D020E94460380919A0281112A
:101E300007C081E080939A0283E992E00E94F20C4D
:101E40000E942F0360ED77E080E090E00E947B0726
:101E50000E94060960934D0270934E0280934F02D8
:101E6000909350026CE671E0809191029091920201
:101E70000E9467050E9406096B017C014B015C0111
:101E80003AE0830E911CA11CB11C0E9406096C153E
:101E90007D058E059F0528F086169706A806B906CB
:101EA000A0F711E01093610280919C0290919D0235
:101EB0000E94460380919A02811106C010939A02F3
:101EC00083E992E00E94F20C0E942F0321E6F22E99
:101ED000F98201E010E09E012F5F3F4F41E050E0AA
:101EE000B9018091FE029091FF020E94610C8981EC
:101EF000813071F70E94E10281111EC06EE771E02E
:101F0000CE0101960E94E704CE0101960E94B9021B
:101F1000CE0101960E946D0463E871E0CE01019646
:101F20000E94E704CE0101960E945104CE01019661
:101F30000E946D040E9472040E94E10281111EC081
:101F40006EE771E0CE0101960E94E704CE01019692
:101F50000E94B902CE0101960E946D0469E971E008
:101F6000CE0101960E94E704CE0101960E94510421
:101F7000CE0101960E946D040E9472048EE992E0E7
:101F80000E94BD038091B002882309F4EBC16DE784
:101F900071E0CE0185960E94E7040E94890397FDB7
:101FA0000CC089831A8241E050E0BE016F5F7F4F11
:101FB000CE0185960E942304F0CF6CEA71E0CE0139
:101FC00001960E94E70489A59AA5892B69F0EDA0E6
:101FD000FEA069817A81C7010E94EE14009721F06A
:101FE0008C010E191F0902C00FEF1FEFCE010196E1
:101FF0000E946D0458018FEFA81AB80AB501CE01EE
:1020000085960E946D034C011C019FEF291A390A25
:10201000B101CE0185960E946D033C01DC01119651
:10202000BCA7ABA7BD01CE0185960E946D039EA7FC
:102030008DA76CEA71E0CE0101960E94E70489A5A4
:102040009AA52D813E817C01E21AF30A2115310502
:1020500081F1009771F18217930758F1E816F9069C
:1020600020F07C01B1E0EB1AF108CDA0DEA02981BF
:102070003A8138AB2FA7C60144244A9455245A9478
:10208000D601AE0DBF1DBAABA9AB29A93AA9281735
:10209000390798F06FA578A90E94EE14009769F0AF
:1020A0009C012C193D09E216F30608F0290101965E
:1020B000ECCFEE24EA94FE2C01C07201CE01019611
:1020C0000E946D04980140E050E0BE016B5D7F4FBF
:1020D000CE014F960E94FC049401A501BE016B5DE8
:1020E0007F4FCE0149960E94FC049301A101BE01DD
:1020F0006B5D7F4FCE0143960E94FC042DA53EA54B
:102100004BA55CA5BE016B5D7F4FCE010D960E9475
:10211000FC044DA55EA54F5F5F4F9701BE016B5D4F
:102120007F4FCE0107960E94FC0429A53AA5A7017E
:102130004F5F5F4FBE016B5D7F4FCE0101960E94E6
:10214000FC04CE014F960E941804962E862F972FDE
:102150009093310380933003CE0149960E94180476
:10216000362E862F972F90932F0380932E03CE0128
:1021700043960E941804262E862F972F90932D03A6
:1021800080932C03CE010D960E9418046BA76093D8
:102190002A0370932B03CE0107960E941804862E03
:1021A0006093280370932903CE0101960E941804BE
:1021B000FB01643671051CF0E25BF74001C07E96BE
:1021C000E0932703809226033BA53093250390924A
:1021D00023033092220320922103AE2FB0E020E8A7
:1021E00033E341EE51E00E9460122B013C0122EBEF
:1021F00037E0FF27C901825B97408E179F07ECF4F9
:10220000C90183709927892BA9F4C90164E670E09C
:102210000E94B112892B39F4C90160E971E00E9472
:10222000B112892B39F480E8480E81E5581E81E00F
:10223000681E711C2F5F3F4FDDCFEE54F84FCF016A
:1022400064E670E00E94B1126C01CF0160E971E0B8
:102250000E94B1125C0184E5E82E81E0F82E01E0D5
:1022600010E0A82DB0E0BEA7ADA7E370FF272DA515
:102270003EA5021713073CF50230110581F4309793
:1022800071F4C114D10419F4A114B10441F430E87B
:10229000430E3BE3531E36E2631E711C0EC0D70192
:1022A0008C91A82FB0E020E831E541E050E00E9499
:1022B0006012460E571E681E791E0F5F1F4FBFEF3C
:1022C000EB1AFB0AD4CF292D30E0A0E1BEE00E943A
:1022D000A2126B017C01232D30E0ACE3B0E00E9440
:1022E000A212DC01CB018C0D9D1DAE1DBF1D6C012A
:1022F0007D01C20CD11CE11CF11C2BA5A22FB0E06A
:10230000119720E831E541E050E00E94C512DC0160
:10231000CB018C0D9D1DAE1DBF1DBC01CD01640DFB
:10232000751D861D971D0E94870ACE0101960E9489
:102330006D04CE0107960E946D04CE010D960E9499
:102340006D04CE0143960E946D04CE0149960E9411
:102350006D04CE014F960E946D04CE0185960E94B9
:102360006D040CCE0E94AE0A0E94F40A80912303F1
:1023700090E00E94C5050E94AE0A0E94F40A809176
:10238000220390E00E94CE0D0E94AE0A0E94F40A41
:102390008091210390E00E94CE0D60E282EF92E0F6
:1023A0000E9460050E94AE0A0E94F40A80912503F3
:1023B00090E00E94C50560E282EF92E00E94600515
:1023C0000E94AE0A0E94F40A8091260390E00E94C7
:1023D000C50560E282EF92E00E9460050E94AE0AAD
:1023E0000E94F40A8091270390E08E54984F0E9437
:1023F000C5056BE771E082EF92E00E9467050E94DD
:10240000D1069ACD1F93FC0199278827BC01E89437
:1024100011911032E9F3193010F01E30C8F31B325D
:1024200051F01D3249F4689406C00E942912610FD0
:10243000711D811D911D119110531A30B0F33EF49E
:1024400090958095709561957F4F8F4F9F4F1F910D
:102450000895592F482F372F262F660F771F881F73
:10246000991F660F771F881F991F620F731F841FA4
:10247000951F660F771F881F991F0895A1E21A2ED6
:10248000AA1BBB1BFD010DC0AA1FBB1FEE1FFF1F18
:10249000A217B307E407F50720F0A21BB30BE40B68
:1024A000F50B661F771F881F991F1A9469F76095AF
:1024B0007095809590959B01AC01BD01CF01089569
:1024C0000E94A212A59F900DB49F900DA49F800D15
:1024D000911D112408952F923F924F925F926F9217
:1024E0007F928F929F92AF92BF92CF92DF92EF92A4
:1024F000FF920F931F93CF93DF93CDB7DEB7CA1B25
:10250000DB0B0FB6F894DEBF0FBECDBF09942A884F
:10251000398848885F846E847D848C849B84AA84F7
:10252000B984C884DF80EE80FD800C811B81AA8184
:10253000B981CE0FD11D0FB6F894DEBF0FBECDBF4F
:10254000ED010895A29FB001B39FC001A39F700D3C
:10255000811D1124911DB29F700D811D1124911DAB
:10256000089597FB072E16F4009407D077FD09D045
:102570000E94CD1207FC05D03EF4909581959F4FA7
:102580000895709561957F4F0895B7FF0C94601280
:102590000E946012821B930B0895AA1BBB1B51E182
:1025A00007C0AA1FBB1FA617B70710F0A61BB70BC3
:1025B000881F991F5A95A9F780959095BC01CD0168
:1025C0000895EE0FFF1F0590F491E02D09940F93ED
:1025D0001F93CF93DF938230910510F482E090E057
:1025E000E091BA03F091BB0320E030E0A0E0B0E05E
:1025F000309719F1408151810281138148175907A1
:10260000C8F08417950769F4109731F012960C936F
:10261000129713961C9327C00093BA031093BB0321
:1026200022C02115310519F04217530718F49A01F9
:10263000BD01EF01DF01F801DBCF21153105F9F014
:10264000281B390B2430310580F48A819B81611568
:10265000710521F0FB019383828304C09093BB0337
:102660008093BA03FE01329644C0FE01E20FF31FCD
:102670008193919322503109398328833AC0209164
:10268000B8033091B903232B41F42091020130911A
:1026900003013093B9032093B803209100013091D6
:1026A00001012115310541F42DB73EB740910401D8
:1026B00050910501241B350BE091B803F091B9034B
:1026C000E217F307A0F42E1B3F0B2817390778F009
:1026D000AC014E5F5F4F2417350748F04E0F5F1F68
:1026E0005093B9034093B8038193919302C0E0E003
:1026F000F0E0CF01DF91CF911F910F910895CF931B
:10270000DF93009709F481C0FC0132971382128293
:10271000A091BA03B091BB03109781F4208131815D
:10272000820F931F2091B8033091B90328173907FE
:1027300051F5F093B903E093B80367C0ED0120E0D1
:1027400030E0CE17DF0740F44A815B819E014115DE
:102750005105F1F0EA01F5CFD383C2834081518165
:10276000840F951FC817D90759F488819981840F60
:10277000951F0296918380838A819B8193838283B4
:102780002115310529F4F093BB03E093BA033DC052
:10279000E901FB83EA8349915991C40FD51FEC17D6
:1027A000FD0761F480819181840F951F0296E901F4
:1027B00099838883828193819B838A83E0E0F0E020
:1027C00012968D919C911397009719F0FD01DC01F1
:1027D000F7CF8D919C9111979D012E5F3F4F820FF6
:1027E000931F2091B8033091B9032817390769F472
:1027F000309729F41092BB031092BA0302C01382DF
:102800001282B093B903A093B803DF91CF910895DA
:10281000A0E0B0E0EEE0F4E10C946F12EC01009760
:1028200021F4CB010E94E712B4C0FC01E60FF71FB0
:102830009C0122503109E217F30708F4A8C0D9011E
:102840000D911C91119706171707B0F0053011056F
:1028500008F49BC0C80104978617970708F495C031
:1028600002501109061B170B019311936D937C9372
:10287000CF010E947F1389C05B01A01AB10A4C01ED
:10288000800E911EA091BA03B091BB03612C712CF4
:10289000E12CF12C109709F446C08D919C91119771
:1028A000A815B905B1F56C0142E0C40ED11CCA14DB
:1028B000DB0478F14C018A189B08640142E0C40EE5
:1028C000D11C1296BC9012971396AC91B5E0CB1622
:1028D000D10440F0B282A38391828082D9016D93AA
:1028E0007C9309C00E5F1F4F800F911FF9019183E8
:1028F0008083EB2DFA2FE114F10431F0D701139608
:10290000FC93EE93129741C0F093BB03E093BA039C
:102910003CC06816790608F43C017D0112960D90C2
:10292000BC91A02DB7CF8091B8039091B9038816C0
:102930009906E1F466167706C8F48091000190913B
:102940000101009741F48DB79EB740910401509169
:102950000501841B950BE817F907C8F4F093B90338
:10296000E093B803F901718360830FC0CB010E942B
:10297000E7127C01009759F0A801BE010E94D31410
:10298000CE010E947F13C70104C0CE0102C080E0C7
:1029900090E0CDB7DEB7EEE00C948B1281E090E0D2
:1029A000F8940C940815FB01DC0102C001900D9213
:1029B00041505040D8F70895FC018191861721F0CD
:1029C0008823D9F7992708953197CF010895FB01FE
:1029D000DC0101900D920020E1F70895FB01519177
:1029E0005523A9F0BF01DC014D9145174111E1F7D5
:1029F00059F4CD010190002049F04D91401541114D
:102A0000C9F3FB014111EFCF81E090E001970895F8
:102A100010E0CDE3D0E004C0FE010E94E112219657
:0A2A2000CE33D107C9F7F894FFCFB9
:102A2A000000BC0380000000000062066800F9058F
:102A3A00AF062A0608061C0600000000FF07F40776
:102A4A001108860AED07EA07E70700000000DB061F
:102A5A0000000000810C68001108860A3F08270858
:102A6A00140800000000B20C820811089E0C7808B5
:102A7A005E0849081F1C1F1E1F1E1F1F1E1F1E1F28
:102A8A0058585858585858313030FE00564D44500E
:102A9A00565F317C315F564D4450560D0A006461D1
:102AAA007465002B256D2C25642C25792C25412C49
:102ABA0025482C254D2C2553002B25483A254D3ADF
:0E2ACA0025533A25643A256D3A2579003A00E5
:107E0000112484B714BE81FFF0D085E080938100F7
:107E100082E08093C00088E18093C10086E0809377
:107E2000C20080E18093C4008EE0C9D0259A86E02C
:107E300020E33CEF91E0309385002093840096BBD3
:107E4000B09BFECF1D9AA8958150A9F7CC24DD24C4
:107E500088248394B5E0AB2EA1E19A2EF3E0BF2EE7
:107E6000A2D0813461F49FD0082FAFD0023811F036
:107E7000013811F484E001C083E08DD089C08234E0
:107E800011F484E103C0853419F485E0A6D080C0E4
:107E9000853579F488D0E82EFF2485D0082F10E0AE
:107EA000102F00270E291F29000F111F8ED06801E7
:107EB0006FC0863521F484E090D080E0DECF843638
:107EC00009F040C070D06FD0082F6DD080E0C81688
:107ED00080E7D80618F4F601B7BEE895C0E0D1E017
:107EE00062D089930C17E1F7F0E0CF16F0E7DF06D8
:107EF00018F0F601B7BEE89568D007B600FCFDCFD4
:107F0000A601A0E0B1E02C9130E011968C91119780
:107F100090E0982F8827822B932B1296FA010C0160
:107F200087BEE89511244E5F5F4FF1E0A038BF0790
:107F300051F7F601A7BEE89507B600FCFDCF97BE46
:107F4000E89526C08437B1F42ED02DD0F82E2BD052
:107F50003CD0F601EF2C8F010F5F1F4F84911BD097
:107F6000EA94F801C1F70894C11CD11CFA94CF0C13
:107F7000D11C0EC0853739F428D08EE10CD085E9AC
:107F80000AD08FE07ACF813511F488E018D01DD067
:107F900080E101D065CF982F8091C00085FFFCCF94
:107FA0009093C60008958091C00087FFFCCF809118
:107FB000C00084FD01C0A8958091C6000895E0E648
:107FC000F0E098E1908380830895EDDF803219F02E
:107FD00088E0F5DFFFCF84E1DECF1F93182FE3DFCA
:107FE0001150E9F7F2DF1F91089580E0E8DFEE27F6
:047FF000FF270994CA
:027FFE00040479
:0400000300007E007B
:00000001FF