:100000000C9461000C9489000C9489000C94890074
:100010000C9489000C9489000C9489000C9489003C
:100020000C9489000C9489000C9489000C9489002C
:100030000C9489000C9489000C9489000C9489001C
:100040000C9426080C9489000C948B130C94651363
:100050000C9489000C9489000C9489000C948900FC
:100060000C94870C0C94890072756E2D6272696411
:1000700067650A000A000A00000000002500280049
:100080002B00040404040404040402020202020219
:10009000030303030303010204081020408001024C
:1000A00004081020010204081020000000080002CB
:1000B0000100000304070000000000000000BE185B
:1000C000AE1811241FBECFEFD8E0DEBFCDBF25E0B4
:1000D000A2ECB1E001C01D92AA30B207E1F711E035
:1000E000A0E0B1E0EEE1FEE302C005900D92A23C7B
:1000F000B107D9F710E0C0E6D0E004C02197FE01B7
:100100000E94DB1CCF35D107C9F70E9472160C94F0
:10011000021F0C940000089580E090E00895CF93B2
:10012000DF93EC016AE387ED94E00E94D611CA30B8
:10013000D1052CF460E387ED94E00E94D611CE0146
:10014000DF91CF910C94FB137F928F929F92AF928D
:10015000BF92CF92DF92EF92FF920F931F93CF93B4
:10016000DF93CDB7DEB727970FB6F894DEBF0FBE8B
:10017000CDBF0E946E0A6B017C0187E0B82E8E0114
:100180000F5F1F4FF8018B2D11928A95E9F760914F
:1001900096037091970380919803909199030E9420
:1001A0007C0B8091ED018A83609196037091970397
:1001B00080919803909199030E947C0B8091EE01AD
:1001C0008B83C701B6010E947C0B8091F0018C8368
:1001D000C701B6010E947C0B8091F1018D83C7019C
:1001E000B6010E947F0C8E83C8010E94B40A6093FE
:1001F000960370939703809398039093990360916B
:100200009A0370919B0380919C0390919D030E949F
:100210007C0B7090ED0160919A0370919B0380912B
:100220009C0390919D030E947C0B8090EE01C7017E
:10023000B6010E947C0B9090F001C701B6010E94AC
:100240007C0BA090F101C701B6010E947F0CF80160
:100250009B2D11929A95E9F77A828B829C82AD82CE
:100260008E83C8010E94B40A60939A0370939B0323
:1002700080939C0390939D036091A6037091A703C4
:100280008091A8039091A9030E947C0B7090ED01CE
:100290006091A6037091A7038091A8039091A90390
:1002A0000E947C0B8090EE01C701B6010E947C0B7E
:1002B0009090F001C701B6010E947C0BA090F10163
:1002C000C701B6010E947F0CF8019B2D11929A95EF
:1002D000E9F77A828B829C82AD828E83C8010E946C
:1002E000B40A6093A6037093A7038093A803909326
:1002F000A9036091A2037091A3038091A40390913C
:10030000A5030E947C0B7090ED016091A203709197
:10031000A3038091A4039091A5030E947C0B80907D
:10032000EE01C701B6010E947C0B9090F001C7015D
:10033000B6010E947C0BA090F101C701B6010E949A
:100340007F0CF8011192BA94E9F77A828B829C8231
:10035000AD828E83C8010E94B40A6093A203709399
:10036000A3038093A4039093A5032091A00330914D
:10037000A10300919E0310919F038CE3809FB00125
:10038000819F700D1124E0E0F0EACF010E949C1CD7
:10039000620F731F6115704138F080E090E1909317
:1003A000A1038093A00312C080E19EE0089FB001EA
:1003B000099F700D189F700D1124CF010E949C1C85
:1003C000260F371F3093A1032093A00381E090E014
:1003D000A0E0B0E04091960350919703609198039C
:1003E00070919903C416D506E606F70618F480E066
:1003F00090E0DC0140919A0350919B0360919C0333
:1004000070919D03481759076A077B0740F0609178
:10041000A0037091A103809192030E944A0F209142
:10042000AC033091AD030091AA031091AB038CE3B0
:10043000809FB001819F700D1124E0E0F0EACF01B0
:100440000E949C1C620F731F672B29F41092AD034E
:100450001092AC0312C080E19EE0089FB001099F9A
:10046000700D189F700D1124CF010E949C1C261B3B
:10047000370B3093AD032093AC0381E090E0A0E014
:10048000B0E04091A2035091A3036091A403709146
:10049000A503C416D506E606F70618F480E090E03A
:1004A000DC014091A6035091A7036091A8037091CD
:1004B000A903481759076A077B0740F06091AC030E
:1004C0007091AD03809192030E944A0F87ED94E0F2
:1004D0000E94F71387ED94E00E94F7132AE0B7011A
:1004E000A60187ED94E00E94F21187ED94E00E944E
:1004F000F7136AE671E087ED94E00E94DD1187ED65
:1005000094E00E94F7134091A0035091A10360E092
:1005100070E02AE087ED94E00E94F21187ED94E00C
:100520000E94F71387ED94E00E94F7134091AC030B
:100530005091AD0360E070E02AE087ED94E00E9406
:10054000F21187ED94E00E94F71327960FB6F89406
:10055000DEBF0FBECDBFDF91CF911F910F91FF90F6
:10056000EF90DF90CF90BF90AF909F908F907F9053
:1005700008950F931F93CF93DF93EC01CB01BA0142
:1005800026E636E646E65FE30E94051A9B01AC01CB
:1005900060E27CEB8EEB95E40E94A31B20E030E050
:1005A00040E85FE30E94361B20E030E040E05FE37C
:1005B0000E94371B0E94441C0E94151C062F888134
:1005C00091E090937E028093A00210927F0210929D
:1005D000A10289819A81DC01ED91FC910190F08169
:1005E000E02D60E0099581E00E94EE0E88819091F7
:1005F0007D029111FCCF91E090937D0290937C025B
:100600002FEF20937B0210927A021092790290933E
:10061000580290915802880F892B8093580280913C
:100620005702813061F410925702809158028093F2
:10063000BB008091BC0083FDF8CF85EC01C085EE46
:100640008093BC0080917D028130E1F380917A0239
:10065000811103C090917A0201C091E0A9E5B2E056
:10066000ECECF1E080E0891721F02D9121938F5F70
:10067000FACF109256028093550289819A81DC014B
:10068000ED91FC910284F385E02D0995182F482FF8
:100690004F76406160E0CE010E94B50D402F6EEFB5
:1006A000CE010E94B50D412F60E0CE010E94B50D34
:1006B00065E070E080E090E00E94BD13412F406A49
:1006C00060E0CE01DF91CF911F910F910C94B50D99
:1006D0004F925F926F927F928F929F92AF92BF9252
:1006E000CF92DF92EF92FF920F931F93CF93DF93FE
:1006F000CDB7DEB727970FB6F894DEBF0FBECDBFDC
:100700004C01662E742E422E132F0E946E0A6B012E
:100710007C01F401408E118F87E0582E8E010F5F0F
:100720001F4FF801852D11928A95E9F77A826B8225
:10073000C701B6010E947C0B9CEEA92E91E0B92E58
:10074000F50184818C83C701B6010E947C0BF50101
:1007500085818D83C701B6010E947F0C8E83C801FD
:100760000E94B40AF401648B758B868B978B741886
:10077000C701B6010E947C0BF5014480C701B60198
:100780000E947C0BF501B580C701B6010E947F0C69
:10079000F80111925A94E9F77A826B824C82BD82F9
:1007A0008E83C8010E94B40AF401608B718B828B26
:1007B000938B27960FB6F894DEBF0FBECDBFDF91A7
:1007C000CF911F910F91FF90EF90DF90CF90BF904E
:1007D000AF909F908F907F906F905F904F90089513
:1007E0004F925F926F927F928F929F92AF92BF9241
:1007F000CF92DF92EF92FF920F931F93CF93DF93ED
:10080000CDB7DEB727970FB6F894DEBF0FBECDBFCA
:100810004C01662E442E722E132F0E946E0A6B011D
:100820007C01F4017486158787E0582E8E010F5FD6
:100830001F4FF801852D11928A95E9F74A826B8244
:10084000C701B6010E947C0B9CEEA92E91E0B92E47
:10085000F50184818C83C701B6010E947C0BF501F0
:1008600085818D83C701B6010E947F0C8E83C801EC
:100870000E94B40AF4016483758386839783740CA1
:10088000C701B6010E947C0BF5014480C701B60187
:100890000E947C0BF501B580C701B6010E947F0C58
:1008A000F80111925A94E9F77A826B824C82BD82E8
:1008B0008E83C8010E94B40AF40160877187828721
:1008C000938727960FB6F894DEBF0FBECDBFDF919A
:1008D000CF911F910F91FF90EF90DF90CF90BF903D
:1008E000AF909F908F907F906F905F904F90089502
:1008F0002F923F924F925F926F927F928F929F9230
:10090000AF92BF92CF92DF92EF92FF920F931F931D
:10091000CF93DF93CDB7DEB7E2970FB6F894DEBF83
:100920000FBECDBF0E94481681111EC062E771E064
:10093000CE0101960E945D11CE0101960E94C60E65
:10094000CE0101960E94E31067E771E0CE010196A7
:100950000E945D11CE0101960E94C710CE01019642
:100960000E94E3100E94E81083E894E00E941816A9
:1009700080919504882309F443C16BEA71E0CE01AC
:1009800085960E945D110E944B1497FD0CC08983CF
:100990001A8241E050E0BE016F5F7F4FCE01859625
:1009A0000E949910F0CF6AE871E0CE0101960E9492
:1009B0005D1189A59AA5892B69F0EDA0FEA069813A
:1009C0007A81C7010E94E81E009721F08C010E1960
:1009D0001F0902C00FEF1FEFCE0101960E94E31026
:1009E00058012FEFA21AB20AB501CE0185960E94D6
:1009F0002F144C012C013FEF431A530AB201CE01D0
:100A000085960E942F143C011C018FEF281A380A8A
:100A1000B101CE0185960E942F149EA78DA76AE88A
:100A200071E0CE0101960E945D1189A59AA52D81E4
:100A30003E817C01E21AF30A2115310589F1009704
:100A400079F18217930760F1E816F90620F07C012E
:100A500021E0E21AF108CDA0DEA089819A8198AB4D
:100A60008FA7C6012FEF2BA73FEF3CA796012E0DB6
:100A70003F1D3AAB29AB29A93AA928173907A0F09D
:100A80006FA578A90E94E81E009771F09C012C19AF
:100A90003D09E216F30610F02BA73CA70196EBCF19
:100AA000EE24EA94FE2C02C0EBA4FCA4CE01019635
:100AB0000E94E310980140E050E0BE016B5D7F4F63
:100AC000CE014F960E9472119401A501BE016B5D8B
:100AD0007F4FCE0149960E9472119301A201BE017F
:100AE0006B5D7F4FCE0143960E9472112DA53EA5EE
:100AF000A101BE016B5D7F4FCE010D960E94721168
:100B00004DA55EA54F5F5F4F9701BE016B5D7F4FA7
:100B1000CE0107960E94721129A53AA5A7014F5F41
:100B20005F4FBE016B5D7F4FCE0101960E94721137
:100B3000CE014F960E948E10F62E6093CA017093DC
:100B4000CB01CE0149960E948E10062F6093C801FA
:100B50007093C901CE0143960E948E10162F6093A8
:100B6000C6017093C701CE010D960E948E10E62E2D
:100B70006093C4017093C501CE0107960E948E1048
:100B8000D62E6093C2017093C301CE0101960E94DC
:100B90008E10643671051CF0625B774002C0625EA5
:100BA0007F4F6093F201D092F101E092F001F09258
:100BB000EE010093ED011093EC018CEE91E00E94A8
:100BC000B40A0E94470ACE0101960E94E310CE01AA
:100BD00007960E94E310CE010D960E94E310CE010D
:100BE00043960E94E310CE0149960E94E310CE0185
:100BF0004F960E94E310CE0185960E94E310B4CE7A
:100C0000E2960FB6F894DEBF0FBECDBFDF91CF9155
:100C10001F910F91FF90EF90DF90CF90BF90AF901A
:100C20009F908F907F906F905F904F903F902F900C
:100C30000895CF93DF930E9478046CE871E087ED0C
:100C400094E00E94DD1187ED94E00E94F7130E946A
:100C50006E0A0E947C0BCCEED1E08A8190E00E946B
:100C6000FB130E946E0A0E947C0B898190E00E9417
:100C70008F000E946E0A0E947C0B888190E00E9487
:100C80008F0060E287ED94E00E94D6110E946E0A08
:100C90000E947C0B8C8190E00E94FB1360E287ED48
:100CA00094E00E94D6110E946E0A0E947C0B8D81F6
:100CB00090E00E94FB1360E287ED94E00E94D61161
:100CC0000E946E0A0E947F0C0E94FB1387ED94E045
:100CD000DF91CF910C94F713089585ED8093BC00BC
:100CE0008091BC0084FDFCCF10927D02089540915C
:100CF0001302262F30E0240F311D21323105DCF4A0
:100D000020917D022430C9F4FC0180E090E0861738
:100D100058F4309113022191DC01AD50BE4FA30F66
:100D2000B11D2C930196F3CF80911302680F60934D
:100D3000130280E0089581E0089582E00895089507
:100D40000895E091560280915502E81730F4F0E0E2
:100D5000E453FE4F808190E008958FEF9FEF089558
:100D60009091560280915502981750F4E92FF0E0C7
:100D7000E453FE4F208130E09F5F9093560202C003
:100D80002FEF3FEFC90108958091550290E0209127
:100D90005602821B91090895CF92DF92EF92FF9243
:100DA0000F931F93CF93DF937C01CB018A01209196
:100DB0007E02222389F0EB016B01C40ED51ECC15F7
:100DC000DD0569F06991D701ED91FC910190F08109
:100DD000E02DC7010995F3CF642F0E947706C80163
:100DE000DF91CF911F910F91FF90EF90DF90CF9007
:100DF0000895CF93DF931F92CDB7DEB7698320911B
:100E00007E022223D1F02091A102203240F021E085
:100E100030E0FC013383228380E090E015C08091B4
:100E20007F02E82FF0E0E058FD4F998190838F5FBB
:100E300080937F028093A10205C061E0CE010196FC
:100E40000E94770681E090E00F90DF91CF910895A6
:100E5000CF93DF93EC010E9418168A89882331F022
:100E60008B89C80FD11D8C8990E002C08FEF9FEF56
:100E7000DF91CF910895CF93DF93EC010E94181674
:100E80008A89882359F081508A8B8B8991E0980F49
:100E90009B8BC80FD11D8C8990E002C08FEF9FEF14
:100EA000DF91CF910895CF93DF93EC010E94181644
:100EB0008A8990E0DF91CF910895CF93DF93EC0181
:100EC0000E9463108E85882341F08F85E889F98917
:100ED000E80FF11D808190E002C08FEF9FEFDF915E
:100EE000CF910895CF93DF93EC010E9463108E851C
:100EF000882369F081508E87E889F9898F8591E090
:100F0000980F9F87E80FF11D808190E002C08FEF5E
:100F10009FEFDF91CF910895CF93DF93EC010E9473
:100F200063108E8590E0DF91CF9108958F929F920C
:100F3000AF92BF92CF92DF92EF92FF920F931F93E7
:100F4000CF93DF931F92CDB7DEB75C019B014A01BF
:100F5000DC0152968C91811105C08B017B01E40E5E
:100F6000F51E31C080E58983C12CD12CE12CF12CF8
:100F70008A0141E050E0BE016F5F7F4FF50184853B
:100F800095850E947F1422C0D5015596ED91FC9164
:100F9000569753968C91539791E0980F53969C9344
:100FA000D8019D918D01E80FF11D9083F501938982
:100FB0008489981308C00190F081E02D0680F781A4
:100FC000E02DC5010995E016F106F1F6C4010F9078
:100FD000DF91CF911F910F91FF90EF90DF90CF9015
:100FE000BF90AF909F908F9008953FB7F8948091F5
:100FF0004D0290914E02A0914F02B091500226B541
:10100000A89B05C02F3F19F00196A11DB11D3FBF40
:10101000BA2FA92F982F8827820F911DA11DB11DCE
:10102000BC01CD0142E0660F771F881F991F4A95CA
:10103000D1F708952FB7F8946091490270914A0250
:1010400080914B0290914C022FBF08951F920F92F6
:101050000FB60F9211242F933F938F939F93AF93CB
:10106000BF938091490290914A02A0914B02B091A6
:101070004C023091480223E0230F2D3720F40196D3
:10108000A11DB11D05C026E8230F0296A11DB11DAB
:10109000209348028093490290934A02A0934B0206
:1010A000B0934C0280914D0290914E02A0914F025C
:1010B000B09150020196A11DB11D80934D029093F5
:1010C0004E02A0934F02B0935002BF91AF919F91F7
:1010D0008F913F912F910F900FBE0F901F901895F9
:1010E000CF93DF93EC018D819E81DC01ED91FC912A
:1010F0000084F185E02D09951816190654F48D81A8
:101100009E81DC01ED91FC910284F385E02D09952F
:10111000EACFDF91CF9108958F929F92AF92BF92C5
:10112000CF92DF92EF92FF92CF93DF93EC016B01AE
:101130000E941A084B015C01E12CF12C8D819E81EB
:10114000DC01ED91FC910284F385E02D099597FF78
:101150000FC00E941A08DC01CB0188199909AA095D
:10116000BB098C159D05AE05BF0540F38FEF9FEFC2
:10117000DF91CF91FF90EF90DF90CF90BF90AF9035
:101180009F908F900895FC01238134812627022EA1
:101190002295207F2025032E322F22952F700226A4
:1011A000269532272327220F220F220F2025348352
:1011B00023830895CF92DF92EF92FF920F931F93B4
:1011C0006801790100E010E020E030E00E947F1427
:1011D0001F910F91FF90EF90DF90CF9008950F93A4
:1011E0001F9300E010E020E030E00E94DA081F9139
:1011F0000F910895CF93DF9300D01F92CDB7DEB744
:1012000029E42983FC0126852A836B8343E050E08F
:10121000BE016F5F7F4F848595850E94EF0881E056
:1012200090E00F900F900F90DF91CF910895CF93A2
:10123000DF93FC01228921110BC0EC01438950E0AE
:1012400065897689848595850E94EF0881E08B8B7E
:10125000DF91CF910895CF93DF9300D0CDB7DEB764
:10126000DC0152968C915297882379F080E589832E
:101270006A8342E050E0BE016F5F7F4F1C968D9104
:101280009C911D970E94EF081FC05596ED91FC910F
:10129000569753968C91539791E0980F53969C9341
:1012A0005397E80FF11D608353969C915397549682
:1012B0008C915497981308C0ED91FC91119706807A
:1012C000F781E02DCD01099581E090E00F900F901E
:1012D000DF91CF910895CF92DF92EF92FF920F931B
:1012E0001F93CF93DF93CDB7DEB72E970FB6F89449
:1012F000DEBF0FBECDBF7C01C7010E94700868EE43
:1013000073E080E090E00E94BD13D70115968D91A7
:101310009C911697DC01ED91FC910084F185E02D04
:1013200009951816190644F3DD24D39482E3C82ED8
:1013300085E0E6E0F1E0DE01119601900D928A95DC
:10134000E1F7F701D08645E050E0BE016F5F7F4FC7
:10135000C7010E94EF0863E0D70115968D919C911B
:1013600016970E94D6116AEF70E080E090E00E942C
:10137000BD1366E770E0F701858196810E94011038
:101380006AEF70E080E090E00E94BD1364E770E0D7
:10139000D70115968D919C9116970E94011064EFCC
:1013A00071E080E090E00E94BD1368E670E0F70114
:1013B000858196810E94011064EF71E080E090E0E9
:1013C0000E94BD13C7010E94700885E0EBE0F1E0C8
:1013D000DE01169601900D928A95E1F7D7011896D5
:1013E000CC9204E010E09E01255F3F4F45E050E0C5
:1013F000BE016A5F7F4FC7010E94DA088F3FBFEFCF
:101400009B0739F468EE73E080E090E00E94BD1322
:101410008FCF2B852111FFCF049701F52C8530E06C
:101420002053310984E6829FA001839F500D11242F
:101430002D8530E0205331096AE0629FC001639F2F
:10144000900D1124840F951F2E8530E02053310913
:10145000820F931FF7019283818307C084E690E097
:10146000D70112969C938E93119782E3F7018087A0
:101470002E960FB6F894DEBF0FBECDBFDF91CF9191
:101480001F910F91FF90EF90DF90CF9008956093A0
:101490004402709345028093460290934702DC0118
:1014A000CB01845D9E4FAF4FBF4F8093400290931E
:1014B0004102A0934202B093430282E090E09093F5
:1014C0003F0280933E020E941A0860933A02709392
:1014D0003B0280933C0290933D020895CF92DF92AD
:1014E000EF92FF920F931F930E941A0800913A0205
:1014F00010913B0220913C0230913D026B017C0136
:10150000C01AD10AE20AF30A6091440270914502BE
:10151000809146029091470248EEC41643E0D406FB
:10152000E104F104D0F0DC01CB010196A11DB11D55
:101530008093440290934502A0934602B0934702E1
:1015400008511C4F2F4F3F4F00933A0210933B021C
:1015500020933C0230933D02C7CF1F910F91FF9023
:10156000EF90DF90CF9008954F925F926F927F92AD
:101570008F929F92AF92BF92CF92DF92EF92FF92A3
:101580000F931F93CF93DF93FC011681A12FB0E03F
:1015900020E833E341EE51E00E94E51A4B015C0183
:1015A000C2EBD7E09D0104E610E080E9E82EFF24BD
:1015B000F394CE01825B974082179307D4F4CE0157
:1015C00083709927892B99F4CE01B8010E94B01C31
:1015D000892B31F4CE01B7010E94B01C892B39F45C
:1015E00080E8880E81E5981E81E0A81EB11C219636
:1015F000E0CF4580512C2E54384FC90164E670E08D
:101600000E94B01C7C01C90160E971E00E94B01C1D
:101610006C0100E111E0C1E0D0E03901A3E06A22F1
:101620007724C415D50534F5C230D10589F4611489
:10163000710471F4E114F10419F4C114D10441F4FA
:10164000B0E88B0EBBE39B1EB6E2AB1EB11C0EC016
:10165000D8018C91A82FB0E020E831E541E050E0BE
:101660000E94E51A860E971EA81EB91E21960F5FCE
:101670001F4FD7CF4181228130E0A0E1BEE00E9420
:10168000271B6B017C01242F30E0ACE3B0E00E940B
:10169000271BDC01CB018C0D9D1DAE1DBF1D2081C4
:1016A0006C017D01C20ED11CE11CF11CA481B0E0D3
:1016B000119720E831E541E050E00E94D31CDC01A5
:1016C000CB018C0D9D1DAE1DBF1DBC01CD01680D54
:1016D000791D8A1D9B1DDF91CF911F910F91FF9066
:1016E000EF90DF90CF90BF90AF909F908F907F90C2
:1016F0006F905F904F9008954F925F926F927F929C
:101700008F929F92AF92BF92CF92DF92EF92FF9211
:101710000F931F93CF93DF934B015C0180913602AF
:1017200090913702A0913802B0913902881599053D
:10173000AA05BB0509F4D2C08CE3C82ED12CE12C3C
:10174000F12CC501B401A70196010E94C31A609350
:10175000EC01CA01B901A70196010E94C31A609366
:10176000ED01C501B40120E13EE040E050E00E94FF
:10177000C31ACA01B90128E130E040E050E00E94FC
:10178000C31A6093EE01C501B40120E831E541E0E0
:1017900050E00E94C31A69017A01CA01B9016C5F65
:1017A0007F4F8F4F9F4F27E030E040E050E00E9496
:1017B000C31A6F5F6093EF01412C512C320140E05E
:1017C00004E610E0C0E9D1E0242F30E02E54384F79
:1017D000F901E370FF27309789F4C901B8010E942D
:1017E000B01C892B31F4C901BE010E94B01C892BA9
:1017F00029F48EE691E0A0E0B0E004C08DE691E02F
:10180000A0E0B0E0480E591E6A1E7B1ED301C20143
:10181000AA27BB27C816D906EA06FB0610F04F5FB9
:10182000D3CF4093F201309799F4C90164E670E098
:101830000E94B01C892B39F4C90160E971E00E9453
:10184000B01C892B29F48EE691E0A0E0B0E004C042
:101850008DE691E0A0E0B0E0481A590A6A0A7B0AD6
:10186000C418D508E608F708C90164E670E00E94CC
:10187000B01CEC01C90160E971E00E94B01CA0E15C
:10188000B1E020E0213039F4309749F4209729F471
:10189000009729F402C04C9103C04DE101C04CE116
:1018A00050E060E070E0C416D506E606F70640F0AA
:1018B000C41AD50AE60AF70A2F5F11962C3011F7E1
:1018C0002F5F2093F101C394C092F0018092360201
:1018D00090923702A0923802B0923902DF91CF91F4
:1018E0001F910F91FF90EF90DF90CF90BF90AF903E
:1018F0009F908F907F906F905F904F9008950E947F
:101900007C0B8091F20190E08E54984F08951F92C5
:101910000F920FB60F9211242F933F934F935F9323
:101920006F937F938F939F93AF93BF93EF93FF93A7
:101930008091B900887F803609F49CC068F58832B0
:1019400009F45BC090F4803109F454C038F4882362
:1019500009F4F6C0883009F44DC0F6C0883109F4A6
:101960004CC0803209F45DC0EFC0803409F468C017
:1019700048F4803309F455C0883309F0E5C08093FA
:101980007B02D8C0803509F44FC0883509F45DC0AA
:10199000883409F0D9C0D6C0883909F4C7C0A8F482
:1019A000883709F467C038F4883609F463C0803793
:1019B00009F460C0C9C0883809F4B8C0803909F496
:1019C0005FC0803809F0C0C05BC0803B09F486C0AE
:1019D00038F4803A09F466C0883A09F47FC0B4C08C
:1019E000803C09F4A7C0883C09F4A4C0883B09F4F2
:1019F0008AC0AAC08091580210C090917A0280914A
:101A00007902981770F5E0917A0281E08E0F809349
:101A10007A02F0E0E75AFD4F80818093BB0085ECAD
:101A200086C080937B028EC0E0917A0281E08E0FA7
:101A300080937A028091BB00F0E0E75AFD4F8083EB
:101A400090917A02809179026EC0E0917A0281E0F1
:101A50008E0F80937A028091BB00F0E0E75AFD4F31
:101A6000808380917C0281116DC081E08093570258
:101A700084EA61C083E080937D0210923502CFCF6B
:101A800080913502803208F051C0E091350281E04A
:101A90008E0F809335028091BB00F0E0EB5EFD4F2E
:101AA0008083BDCF85EC8093BC0010927D02809135
:101AB0003502803230F4E0913502F0E0EB5EFD4F0C
:101AC00010826091350270E0E0915102F091520273
:101AD00085E192E009951092350236C084E080934A
:101AE0007D021092140210921302E0915302F091C1
:101AF0005402099580911302811105C081E0809301
:101B000013021092F301E091140281E08E0F809392
:101B10001402F0E0ED50FE4F80818093BB00909165
:101B2000140280911302981708F479CF85E8809306
:101B3000BC000AC085EC8093BC0010927D0204C0FA
:101B400010927B020E946D06FF91EF91BF91AF91C1
:101B50009F918F917F916F915F914F913F912F91C5
:101B60000F900FBE0F901F9018951F93CF93DF9388
:101B7000EC01142F888191E090937E028093A00263
:101B800010927F021092A10289819A81DC01ED916D
:101B9000FC910190F081E02D099589819A81DC0109
:101BA000ED91FC910190F081E02D612F099581E08C
:101BB000DF91CF911F910C94EE0EDC01ED91FC9121
:101BC0000190F081E02D099490E0FC01E655FF4F73
:101BD0002491FC01EA56FF4F3491FC01EE57FF4F70
:101BE000E491EE23B1F1222339F1233091F038F45E
:101BF0002130A9F0223001F584B58F7D12C0273045
:101C000091F02830A1F02430B9F4809180008F7DCC
:101C100003C0809180008F77809380000DC084B5D1
:101C20008F7784BD09C08091B0008F7703C0809109
:101C3000B0008F7D8093B000F0E0EE0FFF1FE858FA
:101C4000FF4FA591B4918FB7F894EC91E32BEC93EF
:101C50008FBF0895CF92DF92EF92FF920F931F9361
:101C6000CF93DF936C017A018B01C0E0D0E0CE15F9
:101C7000DF0581F0D8016D918D01D601ED91FC91C8
:101C80000190F081E02DC6010995892B11F0219674
:101C9000EECF7E01C701DF91CF911F910F91FF9091
:101CA000EF90DF90CF9008950F931F93CF93DF9322
:101CB000EC0188819981009729F02A813B812617C0
:101CC000370788F48B016F5F7F4F0E94021E0097D9
:101CD00061F0998388831B830A832C813D81232BA8
:101CE00011F4FC01108281E001C080E0DF91CF910E
:101CF0001F910F910895EF92FF920F931F93CF932F
:101D0000DF93EC017B018A01BA010E94540E288105
:101D1000398181110DC02115310519F0C9010E94C9
:101D2000791D198218821D821C821B821A8206C0AC
:101D30001D830C83B701C9010E94E11ECE01DF9112
:101D4000CF911F910F91FF90EF900895CF93DF9364
:101D500000D0CDB7DEB780919404882381F087E767
:101D60008983809191048A8342E050E0BE016F5FD5
:101D70007F4F80918F04909190040E94EF08109201
:101D800094040F900F90DF91CF9108950F931F93BC
:101D9000CF93DF938C010E94A60E86E090E00E9414
:101DA000E11CEC01198218821B821A821D821C829E
:101DB0000817190751F0F8016081718161157105EB
:101DC00021F0448155810E947B0ED0939304C093EF
:101DD0009204DF91CF911F910F910895282F309198
:101DE000A102313208F04AC080917D028111FCCFFE
:101DF0009091A00242E040937D0220937C022FEF5D
:101E000020937B0210927A0230937902E0E8F2E0AC
:101E1000A9E5B2E020E0321721F041914D932F5F08
:101E2000FACF1092580220915802990F922B90935A
:101E3000580290915702913061F41092570290919C
:101E400058029093BB009091BC0093FDF8CF95ECA5
:101E500001C095EE9093BC0090917D029230E1F329
:101E600090917B029F3F79F080917B02803241F01C
:101E700080917B02803331F084E005C081E003C0B3
:101E800082E001C083E010927F021092A1021092C2
:101E90007E0208950F931F93CF93DF938B01C2E9C6
:101EA000D3E09C8D21E020937E029093A0021092BB
:101EB0007F021092A102AD8DBE8D24E0829FC001F1
:101EC0001124BC016A5F7F4FED91FC911197019045
:101ED000F081E02DCD01099560E070E08D8D9E8D43
:101EE0000E94DD0D60E070E08D8D9E8D0E94DD0D05
:101EF000B8018D8D9E8D0E94DD0D612F70E08D8D5E
:101F00009E8D0E94DD0D81E0DF91CF911F910F9199
:101F10000C94EE0ECF93DF93FC01718360838AE013
:101F200090E0938382831786168680E090E1938FFA
:101F3000828FEF016C961092560210925502109209
:101F40007F021092A10210927D0281E080937C02B8
:101F50001092570282E10E94E40D83E10E94E40D99
:101F6000E9EBF0E080818E7F808380818D7F8083AC
:101F700088E48093B80085E48093BC008FE996E004
:101F8000909354028093530280EA96E09093520219
:101F90008093510240E860E0CE010E94B50D6AE0F6
:101FA00070E080E090E00E94BD1340E050E06AE7FE
:101FB00074E4CE010E94B90240E050E068EC74E4A1
:101FC000CE01DF91CF910C94B9028091E904811187
:101FD0000BC08091EC049091ED04009711F00E94E9
:101FE000791D81E08093E9048091E7049091E804F1
:101FF000009731F00E94791D1092E8041092E704D6
:102000000895EF92FF920F931F93CF93DF938C016C
:102010007B01C0E0D0E0F701EC0FFD1F6491662367
:1020200061F0D801ED91FC910190F081E02DC801A3
:102030000995892B11F02196EECFCE01DF91CF913A
:102040001F910F91FF90EF9008958091E30490917C
:10205000E404FC012781211104C021E027830E94B0
:102060006B090E94E50F80E290E00E94E11C9093D2
:10207000E8048093E7040895FC01A089B18982E017
:102080008C93A485B5851C92A685B78587E08C9333
:10209000108EA489B58986E08C93A289B3898C912E
:1020A00080618C93A289B3898C9188608C93A2897A
:1020B000B3898C9180688C930288F389E02D8081AC
:1020C0008F7D80830895EF92FF920F931F93CF939C
:1020D000DF9300D0CDB7DEB7FC012685211115C0F6
:1020E0007C01178680E7898380E28A832089318991
:1020F00000E210E042E050E0BE016F5F7F4F848558
:1021000095850E94DA08F70186870F900F90DF917E
:10211000CF911F910F91FF90EF900895FC01808166
:102120009181009711F00C94C91960E070E0CB0127
:102130000895EF92FF920F931F93CF93DF93611552
:10214000710511F480E01CC041155105C1F07B01FF
:10215000EC018C819D818A01080F191FB801CE0105
:102160000E94540E882371F3288139818C819D81CE
:10217000B701820F931F0E94E11E1D830C8381E033
:10218000DF91CF911F910F91FF90EF9008950F93E2
:102190001F93CF93DF938C01C3E8D4E041E050E07C
:1021A00068E971E08F8598890E949910F80144814F
:1021B0005581608171818F859889DF91CF911F91C1
:1021C0000F910C949910FC01808191810C94791DE0
:1021D000CF92DF92EF92FF920F931F93CF93DF93F3
:1021E00000D000D0CDB7DEB782E58B83E0919204BA
:1021F000F0919304048115812081318142E0C42E45
:10220000D12CCE0101967C0141E050E0BE016D5F12
:102210007F4F80918F04909190040E947F148A8157
:10222000809391040091920410919304011511057B
:1022300031F0C8010E94E310C8010E94791D10927C
:102240009304109292048981811103C081E08093EC
:1022500094040E944816882339F064E670E080E018
:1022600090E00E94BD13F5CF87E58B8380919104A8
:102270008C8302E010E09E012F5F3F4F42E050E070
:10228000BE016D5F7F4F80918F04909190040E94FA
:10229000DA08898190E0982F88272A81820F911D82
:1022A0000F900F900F900F90DF91CF911F910F9192
:1022B000FF90EF90DF90CF900895FC011182108283
:1022C00013821282158214826115710551F0FB018F
:1022D00001900020E9F73197AF01461B570B0C9492
:1022E0007B0E0895BF92CF92DF92EF92FF920F93F1
:1022F0001F93CF93DF937C016B01EA0189012417BF
:10230000350720F48D2FE901042F182F6BEA71E0B7
:10231000C7010E945D11D60114968D919C9115976D
:10232000C817D907C0F58017910708F48C01D601AA
:10233000ED91FC911197E00FF11FB08010826D912B
:102340007C916C0F7D1F6115710561F0FB0101909F
:102350000020E9F73197AF01461B570BC7010E94D8
:102360007B0E13C0F70180819181009711F00E94CC
:10237000791DD70111961C921E9215961C921E92E1
:10238000149713961C921E921297D601ED91FC9110
:10239000E00FF11FB082C701DF91CF911F910F9124
:1023A000FF90EF90DF90CF90BF900895DC01ED910A
:1023B000FC910190F081E02D09946115710579F08F
:1023C000FB0101900020E9F73197AF01461B570B45
:1023D000DC01ED91FC910280F381E02D099480E015
:1023E00090E008958F929F92AF92BF92EF92FF92EA
:1023F0000F931F93CF93DF93CDB7DEB7A1970FB69F
:10240000F894DEBF0FBECDBF7C01FA01CB0119A24B
:10241000223008F42AE08E010F5D1F4F822E912C8E
:10242000A12CB12CBF01A50194010E94C31AF9018E
:10243000CA01015011096A3014F4605D01C0695C81
:10244000D8016C93232B242B252B61F7B801C701EE
:102450000E94DD11A1960FB6F894DEBF0FBECDBF6E
:10246000DF91CF911F910F91FF90EF90BF90AF90B0
:102470009F908F900895FC01538D448D252F30E05F
:10248000842F90E0821B930B541710F0CF96089581
:1024900001970895FC01918D828D981761F0828DCE
:1024A000DF01A80FB11D5D968C91928D9F5F9F7388
:1024B000928F90E008958FEF9FEF0895FC01918D2A
:1024C000828D981731F0828DE80FF11D858D90E097
:1024D00008958FEF9FEF0895FC01918D228D892F34
:1024E00090E0805C9F4F821B91098F73992708951C
:1024F0008AEE92E00E946C1221E0892B09F420E020
:10250000822F0895FC01848DDF01A80FB11DA35A0D
:10251000BF4F2C91848D90E001968F739927848F03
:10252000A689B7892C93A089B1898C918370806426
:102530008C93938D848D981306C00288F389E02DC7
:1025400080818F7D80830895EF92FF920F931F9378
:10255000CF93DF93EC0181E0888F9B8D8C8D981356
:1025600005C0E889F989808185FD26C0F62E0B8D8E
:1025700010E00F5F1F4F0F731127E02E8C8DE812B4
:102580000CC00FB607FCFACFE889F989808185FF76
:10259000F5CFCE010E948212F1CF8B8DFE01E80FA4
:1025A000F11DE35AFF4FF0829FB7F8940B8FEA8931
:1025B000FB89808180620AC09FB7F894EE89FF8909
:1025C0006083E889F98980818370806480839FBFFC
:1025D00081E090E0DF91CF911F910F91FF90EF90FC
:1025E0000895CF93DF93EC01888D8823C9F0EA89A1
:1025F000FB89808185FD05C0A889B9898C9186FDFC
:102600000FC00FB607FCF5CF808185FFF2CFA889F8
:10261000B9898C9185FFEDCFCE010E948212E7CF60
:10262000DF91CF91089580E090E0892B29F00E94FE
:10263000781281110C94000008958F929F92AF92AE
:10264000BF92CF92DF92EF92FF920F931F93CF939F
:10265000DF937C018B016C0182E0C80ED11C470125
:10266000E5E08E0E911CC0E0D0E0F60141916F01D3
:1026700050E060E070E02AE0C8010E94F2115C01C5
:102680006EE2C8010E94D6118A0D9B1DC80FD91F8A
:10269000C814D90451F7F701458150E060E070E0BB
:1026A0002AE0C8010E94F2118C0F9D1FDF91CF918B
:1026B0001F910F91FF90EF90DF90CF90BF90AF9060
:1026C0009F908F9008950E94C81E1F920F920FB680
:1026D0000F9211242F933F934F935F936F937F93A8
:1026E0008F939F93AF93BF93EF93FF938AEE92E004
:1026F0000E948212FF91EF91BF91AF919F918F91B4
:102700007F916F915F914F913F912F910F900FBEED
:102710000F901F9018951F920F920FB60F921124D1
:102720002F938F939F93EF93FF93E091FA02F09191
:10273000FB028081E0910003F091010382FD12C051
:102740009081809103038F5F8F7320910403821720
:1027500051F0E0910303F0E0E651FD4F958F809337
:10276000030301C08081FF91EF919F918F912F9181
:102770000F900FBE0F901F9018958F929F92AF925F
:10278000BF92CF92DF92EF92FF926B017C010E9489
:10279000F5074B015C01C114D104E104F104F1F02F
:1027A0000E94F507DC01CB0188199909AA09BB0928
:1027B000883E9340A105B10570F321E0C21AD1080B
:1027C000E108F10888EE880E83E0981EA11CB11C78
:1027D000C114D104E104F10419F7DDCFFF90EF90AB
:1027E000DF90CF90BF90AF909F908F90089569EA4F
:1027F00071E00C94DD11CF92DF92EF92FF92CF93B4
:10280000DF936C01990FEE08FF08F7FE1BC06DE225
:1028100087ED94E00E94D611EC0144275527BA01B8
:102820004C195D096E097F092AE087ED94E00E944A
:10283000F2118C0F9D1FDF91CF91FF90EF90DF90F1
:10284000CF9008952AE0B701A60187ED94E0DF91CB
:10285000CF91FF90EF90DF90CF900C94F211CF9337
:10286000DF93FC01248135816217730778F49B01A3
:10287000C081D1816AE370E0CE01820F931F0E9474
:10288000D61E009719F08C1B9D0B02C08FEF9FEF97
:10289000DF91CF9108950F931F930E941A086093C0
:1028A0008B0470938C0480938D0490938E0483E842
:1028B00094E00E943B0797FF1FC00E941A080091F6
:1028C0008B0410918C0420918D0430918E04DC01D6
:1028D000CB01801B910BA20BB30B009187041091CD
:1028E00088042091890430918A0480179107A207F7
:1028F000B307E8F28FEF9FEF1F910F9108952F928A
:102900003F924F925F926F927F928F929F92AF927F
:10291000BF92CF92DF92EF92FF920F931F93CF93CC
:10292000DF93CDB7DEB72E970FB6F894DEBF0FBE9C
:10293000CDBF9E878D873B0129019A01200F311F52
:102940003A8329838A80912C22242A94322CCB0129
:10295000840F951F98878F83D201A00FB11FBA876C
:10296000A987F701EC0DFD1DFC87EB87AD85BE85C2
:1029700018968C911897981608F03FC114963C92BF
:102980002E92139715968D919C911697DC01ED91DF
:10299000FC910190F081E02D6FEF09956FEF8D852F
:1029A0009E850E94C308ED85FE8585819681DC01A8
:1029B000ED91FC910190F081E02DAD85BE856C918B
:1029C0000995ED85FE856081CF010E94C308AD8524
:1029D000BE8515968D919C911697DC01ED91FC9129
:1029E0000190F081E02D682D0995682D8D859E85DB
:1029F0000E94C308ED85FE8585819681DC01ED91FD
:102A0000FC910190F081E02D6981099569818D85A6
:102A10009E850E94C3085301EF81F885AE16BF065C
:102A2000C1F0AD85BE8515968D919C911697850157
:102A3000DC01ED91FC910190F081E02DD5016D91CB
:102A40005D010995F80160818D859E850E94C3080E
:102A5000E3CF8201AD85BE8515968D919C91169729
:102A6000E985FA850E171F0791F05801DC01ED91F9
:102A7000FC910190F081E02DD8016D918D010995B7
:102A8000F50160818D859E850E94C308E3CFAD85E9
:102A9000BE8514966C91DC01ED91FC910190F08162
:102AA000E02D0995ED85FE8585819681DC01ED910E
:102AB000FC910190F081E02DAD85BE8513966C915F
:102AC000099568EC70E08D859E850E948C088F3F8B
:102AD000910509F086C0ED85FE85348223826FEF73
:102AE000CF010E94C30865E070E08D859E850E943D
:102AF0008C08AD85BE856C91262F30E08217930738
:102B000009F06FC0CD010E94C3086AE070E08D85B6
:102B10009E850E948C085C0197FD63C0682F8D859F
:102B20009E850E94C3086AE070E08D859E850E94A4
:102B30008C088C0197FD55C0682F8D859E850E945D
:102B4000C308AC821B82EB81FC810E0F1F1F570153
:102B50009701200F311F3E832D838D819E81A81602
:102B6000B906C1F0AB85BC85AA16BB0699F065E035
:102B700070E08D859E850E948C0897FD07C0F50149
:102B80008083682F8D859E850E94C308FFEFAF1A52
:102B9000BF0AE3CF65E070E08D859E850E948C08BA
:102BA0005C0197FD1EC065E070E08D859E850E94EA
:102BB0008C0897FD16C0BA2CAA248A0D9B1DAD85E2
:102BC000BE8513962D913C9114978217930749F473
:102BD0008C918F5F8C93C801C016D10680F4C6011A
:102BE0000EC0939464E670E080E090E00E94BD1314
:102BF0008D859E850E947008B9CE8FEF9FEF2E962F
:102C00000FB6F894DEBF0FBECDBFDF91CF911F91FD
:102C10000F91FF90EF90DF90CF90BF90AF909F907B
:102C20008F907F906F905F904F903F902F9008957E
:102C3000EF92FF920F931F93CF93DF9300D01F92D9
:102C4000CDB7DEB7FC012289211118C07C01138A9F
:102C50008FE4898380E48B8386858A839F012C5E41
:102C60003F4F00E410E043E050E0BE016F5F7F4F54
:102C7000848595850E94DA08F701828B0F900F906A
:102C80000F90DF91CF911F910F91FF90EF900895DA
:102C90000F931F93CF93DF9300D01F92CDB7DEB772
:102CA00082E78983809191048A8301E010E09E018C
:102CB0002D5F3F4F42E050E0BE016F5F7F4F80913C
:102CC0008F04909190040E94DA0881E09B819130FA
:102CD00009F080E00F900F900F90DF91CF911F913E
:102CE0000F910895CF93DF9300D000D000D0CDB7DF
:102CF000DEB7789484B5826084BD84B5816084BD7C
:102D000085B5826085BD85B5816085BD80916E0089
:102D1000816080936E0010928100809181008260BA
:102D200080938100809181008160809381008091F7
:102D300080008160809380008091B10084608093E6
:102D4000B1008091B00081608093B00080917A00E2
:102D5000846080937A0080917A00826080937A0008
:102D600080917A00816080937A0080917A008068F7
:102D700080937A001092C1001092E4021092E50252
:102D80001092E6021092E7021092A4021092A5029D
:102D90001092A6021092A7020E941A086B017C01F1
:102DA0004B015C0188EB880E8BE0981EA11CB11CC6
:102DB0000E941A086C157D058E059F0528F0861661
:102DC0009706A806B906A0F787ED94E09093E9026C
:102DD0008093E80280919003909191030E943C10AF
:102DE00080918E03811107C081E080938E0387E874
:102DF00093E00E946B090E94251060ED77E080E06F
:102E000090E00E94BD130E941A086093A402709380
:102E1000A5028093A6029093A7026AE971E08091CF
:102E2000E8029091E9020E94DD110E941A086B01EC
:102E30007C014B015C018AE0880E911CA11CB11C35
:102E40000E941A086C157D058E059F0528F08616D0
:102E50009706A806B906A0F711E01093B802809172
:102E60009003909191030E943C1080918E038111F8
:102E700006C010938E0387E893E00E946B090E94BE
:102E8000251081E6F82EF98201E010E09E012F5F07
:102E90003F4F41E050E0B9018091E3049091E40498
:102EA0000E94DA088981813071F70E9448168111E9
:102EB0001EC062E771E0CE0101960E945D11CE0155
:102EC00001960E94C60ECE0101960E94E3106CEAA4
:102ED00071E0CE0101960E945D11CE0101960E9423
:102EE000C710CE0101960E94E3100E94E8100E94D4
:102EF00078042091770430917804A0ECB8EA0E941D
:102F0000C41C6093790470937A0480937B0490933B
:102F10007C0489E196E09093820480938104A091DF
:102F20006B04B0916C042AE030E00E94CC1C6093EA
:102F30006D0470936E0480936F049093700484EA20
:102F400090E0909376048093750460E070E08CE4E8
:102F500094E00E948A0F61E070E08DE294E00E94AC
:102F60008A0F62E070E08EE094E00E948A0F63E0D6
:102F700070E08FEE93E00E948A0F64E070E080EDD5
:102F800093E00E948A0F65E070E081EB93E00E947D
:102F90008A0F60E070E082E993E00E948A0F20EFE0
:102FA00030E040E050E067E070E08CE494E00E94A4
:102FB000F00322ED30E04EE150E067E070E08DE29A
:102FC00094E00E94F00324EB30E040E050E068E041
:102FD00070E08EE094E00E94F00320EF30E040E0EB
:102FE00050E067E070E08FEE93E00E94F00322ED86
:102FF00030E04EE150E067E070E080ED93E00E9449
:10300000F00324EB30E040E050E068E070E081EB5A
:1030100093E00E94F0032AE030E043E250E065E1F3
:1030200070E082E993E00E94F00324EB30E040E09E
:1030300050E064E170E08CE494E00E94680322EDCB
:1030400030E04EE150E063E170E08DE294E00E94F8
:10305000680320EF30E040E050E063E170E08EE094
:1030600094E00E94680324EB30E040E050E064E12B
:1030700070E08FEE93E00E94680322ED30E04EE1B5
:1030800050E063E170E080ED93E00E94680320EF80
:1030900030E040E050E063E170E081EB93E00E94BB
:1030A00068032AE030E040E050E066E170E082E949
:1030B00093E00E9468030E941A0800917104109125
:1030C000720420917304309174046B017C01C01A66
:1030D000D10AE20AF30A00916D0410916E04209166
:1030E0006F0430917004C016D106E206F30650F06A
:1030F00060937104709372048093730490937404CA
:103100000E94A4000E941A0800917D0410917E0480
:1031100020917F04309180046B017C01C01AD10A98
:10312000E20AF30A97018601C0907904D0907A04EC
:10313000E0907B04F0907C040C151D052E053F05E6
:1031400050F060937D0470937E0480937F0490938D
:1031500080040E9419060E941313ADCF8AE491E007
:1031600090938404809383040E94A60E8CE591E0E2
:103170009093D8048093D7040C94E50FCF93DF93FA
:10318000EAEEF2E01382128248EE53E060E070E073
:10319000448355836683778380E291E091838083C3
:1031A00085EC90E09587848784EC90E0978786870C
:1031B00080EC90E0918B808B81EC90E0938B828B04
:1031C00082EC90E0958B848B86EC90E0978B868BDD
:1031D000118E128E138E148EAEEEB4E084E491E064
:1031E00011969C938E9312961C92129713961C9292
:1031F000139714961C92149715961C92A2EAB2E0AB
:1032000016961D921D921D921C9219971A961D9248
:103210001D921D921C921D971E961D921D921D922D
:103220001C92519752961D921D921D921C92559779
:10323000A7EDB4E013961C921E92129714964D932C
:103240005D936D937C9317972CE531E011963C9339
:103250002E93C7E8D3E01D96DC93CE931C971E9661
:103260001C921E971F961C921F9751961C921E929D
:10327000509721E052962C931882FE83ED831F8293
:103280001886FA87E987E4EFF4E013821282448318
:1032900055836683778322E331E031832083A3E87B
:1032A000B4E013961C921E92129714964D935D9360
:1032B0006D937C9317972AE431E011963C932E93FB
:1032C0001D96DC93CE931C9751961C925197529663
:1032D0001C92529753961C92A0E0B5E011969C93D5
:1032E0008E9312961C92129713961C921397149613
:1032F0001C92149715961C9288EE93E09093780494
:103300008093770490936C0480936B04ACE4B4E0F6
:1033100080E45C968C935C975E96FC93EE935D974D
:10332000ADE2B4E05C968C935C975E96FC93EE9372
:103330005D97AEE0B4E05C968C935C975E96FC93F0
:10334000EE935D97AFEEB3E05C968C935C975E96E0
:10335000FC93EE935D97A0EDB3E05C968C935C9745
:103360005E96FC93EE935D97A1EBB3E05C968C9335
:103370005C975E96FC93EE935D97A2E9B3E05C9652
:103380008C935C975E96FC93EE935D97DF91CF9163
:1033900008951F93FC0199278827BC01E894119197
:1033A0001032E9F3193010F01E30C8F31B3251F01F
:1033B0001D3249F4689406C00E94F019610F711D16
:1033C000811D911D119110531A30B0F33EF4909568
:1033D0008095709561957F4F8F4F9F4F1F910895F6
:1033E000592F482F372F262F660F771F881F991FB9
:1033F000660F771F881F991F620F731F841F951F09
:10340000660F771F881F991F08950E94181A0C9441
:10341000891A0E947B1A38F00E94821A20F09523A4
:1034200011F00C94721A0C94781A11240C94BD1A91
:103430000E949A1A70F3959FC1F3950F50E0551FA3
:10344000629FF001729FBB27F00DB11D639FAA27F9
:10345000F00DB11DAA1F649F6627B00DA11D661F48
:10346000829F2227B00DA11D621F739FB00DA11D69
:10347000621F839FA00D611D221F749F3327A00D23
:10348000611D231F849F600D211D822F762F6A2FBF
:1034900011249F5750409AF0F1F088234AF0EE0F24
:1034A000FF1FBB1F661F771F881F91505040A9F751
:1034B0009E3F510580F00C94721A0C94BD1A5F3F28
:1034C000E4F3983ED4F3869577956795B795F7958D
:1034D000E7959F5FC1F7FE2B880F911D9695879505
:1034E00097F9089597F99F6780E870E060E0089584
:1034F0009FEF80EC089500240A941616170618060C
:103500000906089500240A941216130614060506E7
:103510000895092E0394000C11F4882352F0BB0F78
:1035200040F4BF2B11F460FF04C06F5F7F4F8F4FDB
:103530009F4F089557FD9058440F551F59F05F3F16
:1035400071F04795880F97FB991F61F09F3F79F0C5
:1035500087950895121613061406551FF2CF469547
:10356000F1DF08C0161617061806991FF1CF8695C9
:103570007105610508940895E894BB2766277727AD
:10358000CB0197F90895A1E21A2EAA1BBB1BFD01DE
:103590000DC0AA1FBB1FEE1FFF1FA217B307E40732
:1035A000F50720F0A21BB30BE40BF50B661F771F8A
:1035B000881F991F1A9469F760957095809590956A
:1035C0009B01AC01BD01CF0108950E94271BA59F5F
:1035D000900DB49F900DA49F800D911D112408950E
:1035E0002F923F924F925F926F927F928F929F9213
:1035F000AF92BF92CF92DF92EF92FF920F931F9301
:10360000CF93DF93CDB7DEB7CA1BDB0B0FB6F894B1
:10361000DEBF0FBECDBF09942A88398848885F84F1
:103620006E847D848C849B84AA84B984C884DF8062
:10363000EE80FD800C811B81AA81B981CE0FD11D46
:103640000FB6F894DEBF0FBECDBFED010895A29F67
:10365000B001B39FC001A39F700D811D1124911D66
:10366000B29F700D811D1124911D08955058BB27E4
:10367000AA270E944E1B0C94891A0E947B1A38F0CC
:103680000E94821A20F039F49F3F19F426F40C941A
:10369000781A0EF4E095E7FB0C94721AE92F0E9459
:1036A0009A1A58F3BA17620773078407950720F030
:1036B00079F4A6F50C94BC1A0EF4E0950B2EBA2FF3
:1036C000A02D0B01B90190010C01CA01A001112428
:1036D000FF27591B99F0593F50F4503E68F11A16D4
:1036E000F040A22F232F342F4427585FF3CF469565
:1036F00037952795A795F0405395C9F77EF41F1687
:10370000BA0B620B730B840BBAF09150A1F0FF0F50
:10371000BB1F661F771F881FC2F70EC0BA0F621F3C
:10372000731F841F48F4879577956795B795F7952C
:103730009E3F08F0B0CF9395880F08F09927EE0FC1
:103740009795879508950E94B71B0C94891A0E943B
:10375000821A58F00E947B1A40F029F45F3F29F04A
:103760000C94721A51110C94BD1A0C94781A0E9480
:103770009A1A68F39923B1F3552391F3951B550BCE
:10378000BB27AA2762177307840738F09F5F5F4F34
:10379000220F331F441FAA1FA9F335D00E2E3AF073
:1037A000E0E832D091505040E695001CCAF72BD08B
:1037B000FE2F29D0660F771F881FBB1F26173707DC
:1037C0004807AB07B0E809F0BB0B802DBF01FF270E
:1037D00093585F4F3AF09E3F510578F00C94721A5F
:1037E0000C94BD1A5F3FE4F3983ED4F38695779529
:1037F0006795B795F7959F5FC9F7880F911D9695C7
:10380000879597F90895E1E0660F771F881FBB1F22
:10381000621773078407BA0720F0621B730B840BCF
:10382000BA0BEE1F88F7E09508950E94A21A88F05F
:103830009F5798F0B92F9927B751B0F0E1F0660F74
:10384000771F881F991F1AF0BA95C9F714C0B130B5
:1038500091F00E94BC1AB1E008950C94BC1A672F35
:10386000782F8827B85F39F0B93FCCF386957795E4
:103870006795B395D9F73EF49095809570956195CD
:103880007F4F8F4F9F4F08950E94841C90F09F3769
:1038900048F4911116F00C94BD1A60E070E080E8D5
:1038A0009FEB089526F41B16611D711D811D0C945C
:1038B0005B1C0C94761C882371F4772321F09850BC
:1038C000872B762F07C0662311F499270DC09051DE
:1038D000862B70E060E02AF09A95660F771F881FAC
:1038E000DAF7880F9695879597F908959F3F31F0FD
:1038F000915020F4879577956795B795880F911D1E
:103900009695879597F908950E94A21AA0F0BEE7B0
:10391000B91788F4BB279F3860F41616B11D672FBE
:10392000782F8827985FF7CF869577956795B11D93
:1039300093959639C8F30895AA1BBB1B51E107C0A4
:10394000AA1FBB1FA617B70710F0A61BB70B881F2F
:10395000991F5A95A9F780959095BC01CD010895BE
:1039600097FB072E16F4009407D077FD09D00E942C
:103970009C1C07FC05D03EF4909581959F4F0895BF
:10398000709561957F4F08950E94271B332312F491
:103990008A1B9B0B0C94CE1C0E94271BB7FF08951B
:1039A000821B930B0895B7FF0C94E51A0E94E51A49
:1039B000821B930B0895EE0FFF1F0590F491E02DED
:1039C00009940F931F93CF93DF938230910510F4E6
:1039D00082E090E0E0910805F091090520E030E0F8
:1039E000A0E0B0E0309719F140815181028113814C
:1039F00048175907C8F08417950769F4109731F0F4
:103A000012960C93129713961C9327C000930805E7
:103A10001093090522C02115310519F042175307EB
:103A200018F49A01BD01EF01DF01F801DBCF211588
:103A30003105F9F0281B390B2430310580F48A81D7
:103A40009B816115710521F0FB019383828304C082
:103A50009093090580930805FE01329644C0FE014B
:103A6000E20FF31F81939193225031093983288308
:103A70003AC02091060530910705232B41F420918F
:103A80000201309103013093070520930605209130
:103A90000001309101012115310541F42DB73EB7E8
:103AA0004091040150910501241B350BE09106055E
:103AB000F0910705E217F307A0F42E1B3F0B281720
:103AC000390778F0AC014E5F5F4F2417350748F097
:103AD0004E0F5F1F50930705409306058193919306
:103AE00002C0E0E0F0E0CF01DF91CF911F910F9194
:103AF0000895CF93DF93009709F481C0FC013297BA
:103B000013821282A0910805B0910905109781F4E3
:103B100020813181820F931F209106053091070586
:103B20002817390751F5F0930705E093060567C09C
:103B3000ED0120E030E0CE17DF0740F44A815B81E1
:103B40009E0141155105F1F0EA01F5CFD383C283FF
:103B500040815181840F951FC817D90759F4888176
:103B60009981840F951F0296918380838A819B811E
:103B7000938382832115310529F4F0930905E0939D
:103B800008053DC0E901FB83EA8349915991C40FBF
:103B9000D51FEC17FD0761F480819181840F951F7B
:103BA0000296E90199838883828193819B838A832A
:103BB000E0E0F0E012968D919C911397009719F038
:103BC000FD01DC01F7CF8D919C9111979D012E5F36
:103BD0003F4F820F931F209106053091070528174C
:103BE000390769F4309729F41092090510920805F5
:103BF00002C013821282B0930705A0930605DF91DD
:103C0000CF910895A0E0B0E0E8E0FEE10C94F41A52
:103C1000EC01009721F4CB010E94E11CB4C0FC012F
:103C2000E60FF71F9C0122503109E217F30708F451
:103C3000A8C0D9010D911C91119706171707B0F074
:103C40000530110508F49BC0C80104978617970733
:103C500008F495C002501109061B170B019311932C
:103C60006D937C93CF010E94791D89C05B01A01ADE
:103C7000B10A4C01800E911EA0910805B091090572
:103C8000612C712CE12CF12C109709F446C08D9118
:103C90009C911197A815B905B1F56C0142E0C40ECD
:103CA000D11CCA14DB0478F14C018A189B0864010A
:103CB00042E0C40ED11C1296BC9012971396AC91A0
:103CC000B5E0CB16D10440F0B282A383918280820A
:103CD000D9016D937C9309C00E5F1F4F800F911F18
:103CE000F90191838083EB2DFA2FE114F10431F077
:103CF000D7011396FC93EE93129741C0F0930905F8
:103D0000E09308053CC06816790608F43C017D0183
:103D100012960D90BC91A02DB7CF80910605909181
:103D2000070588169906E1F466167706C8F48091AF
:103D3000000190910101009741F48DB79EB7409129
:103D4000040150910501841B950BE817F907C8F48D
:103D5000F0930705E0930605F901718360830FC0B6
:103D6000CB010E94E11C7C01009759F0A801BE0123
:103D70000E94CD1ECE010E94791DC70104C0CE0154
:103D800002C080E090E0CDB7DEB7EEE00C94101BEF
:103D900081E090E0F8940C94021FFB01DC0102C06A
:103DA00001900D9241505040D8F70895FC01819147
:103DB000861721F08823D9F7992708953197CF01E5
:103DC0000895FB01DC0101900D920020E1F70895B8
:103DD000FB0151915523A9F0BF01DC014D9145171D
:103DE0004111E1F759F4CD010190002049F04D91C6
:103DF00040154111C9F3FB014111EFCF81E090E083
:103E00000197089510E0C0E6D0E004C0FE010E94D2
:0E3E1000DB1C2196C136D107C9F7F894FFCF0D
:103E1E0000000A058000585858585858583130300C
:103E2E001F1C1F1E1F1E1F1F1E1F1E1F0000000017
:103E3E00A4122A0E3B12F1126C124A125E120000EC
:103E4E000000F906CC068C006C06C406B006A1066E
:103E5E00000000001D1300000000FA082A0E8C005E
:103E6E006C0653073B072807000000002B09960736
:103E7E008C0017098C0772075D0775706461746595
:103E8E00640064617465002B25483A254D3A25532C
:103E9E003A25643A256D3A2579003A0054696D65E4
:103EAE002053796E63656400FE00564D4450565F94
:103EBE00317C315F564D4450560D0A002B256D2C2A
:103ECE0025642C25792C25412C25482C254D2C2577
:023EDE0053008F
:107E0000112484B714BE81FFF0D085E080938100F7
:107E100082E08093C00088E18093C10086E0809377
:107E2000C20080E18093C4008EE0C9D0259A86E02C
:107E300020E33CEF91E0309385002093840096BBD3
:107E4000B09BFECF1D9AA8958150A9F7CC24DD24C4
:107E500088248394B5E0AB2EA1E19A2EF3E0BF2EE7
:107E6000A2D0813461F49FD0082FAFD0023811F036
:107E7000013811F484E001C083E08DD089C08234E0
:107E800011F484E103C0853419F485E0A6D080C0E4
:107E9000853579F488D0E82EFF2485D0082F10E0AE
:107EA000102F00270E291F29000F111F8ED06801E7
:107EB0006FC0863521F484E090D080E0DECF843638
:107EC00009F040C070D06FD0082F6DD080E0C81688
:107ED00080E7D80618F4F601B7BEE895C0E0D1E017
:107EE00062D089930C17E1F7F0E0CF16F0E7DF06D8
:107EF00018F0F601B7BEE89568D007B600FCFDCFD4
:107F0000A601A0E0B1E02C9130E011968C91119780
:107F100090E0982F8827822B932B1296FA010C0160
:107F200087BEE89511244E5F5F4FF1E0A038BF0790
:107F300051F7F601A7BEE89507B600FCFDCF97BE46
:107F4000E89526C08437B1F42ED02DD0F82E2BD052
:107F50003CD0F601EF2C8F010F5F1F4F84911BD097
:107F6000EA94F801C1F70894C11CD11CFA94CF0C13
:107F7000D11C0EC0853739F428D08EE10CD085E9AC
:107F80000AD08FE07ACF813511F488E018D01DD067
:107F900080E101D065CF982F8091C00085FFFCCF94
:107FA0009093C60008958091C00087FFFCCF809118
:107FB000C00084FD01C0A8958091C6000895E0E648
:107FC000F0E098E1908380830895EDDF803219F02E
:107FD00088E0F5DFFFCF84E1DECF1F93182FE3DFCA
:107FE0001150E9F7F2DF1F91089580E0E8DFEE27F6
:047FF000FF270994CA
:027FFE00040479
:0400000300007E007B
:00000001FF