:100000000C9461000C9489000C9489000C94890074
:100010000C9489000C9489000C9489000C9489003C
:100020000C9489000C9489000C9489000C9489002C
:100030000C9489000C9489000C9489000C9489001C
:100040000C94B70D0C9489000C94BE140C94981465
:100050000C9489000C9489000C9489000C948900FC
:100060000C9418120C948900000000002500280050
:100070002B00040404040404040402020202020229
:10008000030303030303010204081020408001025C
:1000900004081020010204081020000000080002DB
:1000A000010000030407000000000000000072755A
:1000B0006E2D6272696467650A000A000A00271AD9
:1000C000171A11241FBECFEFD8E0DEBFCDBF25E049
:1000D000A8E8B2E001C01D92A63AB207E1F712E02B
:1000E000A0E0B1E0E2E9F1E402C005900D92A83889
:1000F000B107D9F710E0C0E6D0E004C02197FE01B7
:100100000E94951ECF35D107C9F70E94A5170C9400
:10011000BC200C940000089580E090E00895CF93F7
:10012000DF93EC016AE383E795E00E94820BCA301B
:10013000D1052CF460E383E795E00E94820BCE01A9
:10014000DF91CF910C942E15CF92DF92EF92FF9218
:10015000CF93DF936B017C010E940D11C2E9D2E0C5
:100160008A8190E00E942E15C701B6010E940D11F0
:10017000898190E00E948F00C701B6010E940D1195
:10018000888190E00E948F0060E283E795E00E9402
:10019000820BC701B6010E940D118C8190E00E9474
:1001A0002E1560E283E795E00E94820BC701B6013D
:1001B0000E940D118D8190E00E942E1560E283E770
:1001C00095E00E94820BC701B6010E9410120E94A6
:1001D0002E1583E795E0DF91CF91FF90EF90DF90B0
:1001E000CF900C942A152F923F924F925F926F926C
:1001F0007F928F929F92AF92BF92CF92DF92EF92B7
:10020000FF920F931F93CF93DF93CDB7DEB729975C
:100210000FB6F894DEBF0FBECDBF8C010E94FF0F5A
:100220006B017C019E012F5F3F4F590187E0D9018F
:100230001D928A95E9F7F80160857185828593851D
:100240000E940D11809193028A83D80118966D91B6
:100250007D918D919C911B970E940D11809194022C
:100260008B83C701B6010E940D11809195028C838A
:10027000C701B6010E940D11809196028D83C701BE
:10028000B6010E940D11809197028E83C701B601BD
:100290000E941012825B8F83C5010E944510F801F5
:1002A0006087718782879387648575858685978542
:1002B0000E940D1150909302D8011C966D917D9172
:1002C0008D919C911F970E940D1160909402C7011F
:1002D000B6010E940D1170909502C701B6010E94EF
:1002E0000D1180909602C701B6010E940D119090E9
:1002F0009702C701B6010E94101219825A826B82BE
:100300007C828D829E82825B8F83C5010E94451014
:10031000F8016487758786879787608D718D828DD8
:10032000938D0E940D1150909302D80158966D91B3
:100330007D918D919C915B970E940D11609094022C
:10034000C701B6010E940D1170909502C701B60158
:100350000E940D1180909602C701B6010E940D11F6
:1003600090909702C701B6010E94101219825A821A
:100370006B827C828D829E82825B8F83C5010E940C
:100380004510F801608F718F828F938F6489758912
:10039000868997890E940D1150909302D801549636
:1003A0006D917D918D919C9157970E940D11609058
:1003B0009402C701B6010E940D1170909502C70109
:1003C000B6010E940D1180909602C701B6010E94ED
:1003D0000D1190909702C701B6010E941012198268
:1003E0005A826B827C828D829E82825B8F83C50162
:1003F0000E9445104B015C01F801648B758B868B64
:10040000978B408451846284738484859585A68506
:10041000B78524803580C414D504E604F70408F4B5
:1004200046C08C159D05AE05BF0508F440C022816D
:100430003381398728879101A885B9850E947E1E5E
:100440004B015C0120E030E040E752E460897189B3
:10045000828993890E94991B20E030E040E752E4B2
:100460000E94991B0E94A91D9B01AC01C501B4010A
:100470000E945F1E4901330FAA08BB08C701B601DD
:100480006419750986099709A885B9859D01BB0F6F
:10049000440B550B0E94571C829EC001839E900DF9
:1004A000929E900D1124F8019783868369C0C81627
:1004B000D906EA06FB0658F08C149D04AE04BF046E
:1004C00060F0D80117963C922E92169759C0C81426
:1004D000D904EA04FB0408F450C0F801808D918D22
:1004E000A28DB38D8C159D05AE05BF0508F445C0E2
:1004F00022813381398728879101A885B9850E9497
:100500007E1E2B013C0120E030E040E752E4648D88
:10051000758D868D978D0E94991B20E030E040E715
:1005200052E40E94991B0E94A91D9B01AC01C301CA
:10053000B2010E945F1E2901330F66087708C701C8
:10054000B601681979098A099B09A885B9859D01B1
:10055000BB0F440B550B0E94571C429EC001439E8B
:10056000900D529E900D1124F101E81BF90BD8015A
:100570001796FC93EE93169703C0F8011782168224
:10058000D80116968D919C9117972816390620F45C
:1005900017963C922E921697F801E680F7806081BC
:1005A000718180A191E09093C0028093E202109249
:1005B000C1021092E30281A192A17727660F771FF3
:1005C000660F771F6A5F7F4FDC01ED91FC91019010
:1005D000F081E02D099560E070E0F80181A192A121
:1005E0000E94AB0760E070E0D80191968D919C91DC
:1005F00092970E94AB07B701F80181A192A10E94D6
:10060000AB076F2D70E0D80191968D919C919297D8
:100610000E94AB0781E00E944F0729960FB6F8941D
:10062000DEBF0FBECDBFDF91CF911F910F91FF9025
:10063000EF90DF90CF90BF90AF909F908F907F9082
:100640006F905F904F903F902F900895CF92DF92E0
:10065000EF92FF920F931F93CF93DF9384EE94E07A
:100660000E94F30081EC94E00E94F3008EE994E094
:100670000E94F3008BE794E00E94F30088E594E089
:100680000E94F3000E94FF0F6B017C0183E795E05D
:100690000E942A1583E795E00E942A156AE671E018
:1006A00083E795E00E94890B83E795E00E942A1575
:1006B00062E771E083E795E00E94FB0BC701B6019A
:1006C0000E94A40083E795E00E942A1560E871E08B
:1006D00083E795E00E94FB0B04EE14E0F8016085CF
:1006E0007185828593850E94A40064E971E083E7A7
:1006F00095E00E94FB0BF8016485758586859785DA
:100700000E94A40083E795E00E942A1566EA71E042
:1007100083E795E00E94FB0BC8E5D4E06C897D89F6
:100720008E899F890E94A40069EB71E083E795E0C0
:100730000E94FB0B688D798D8A8D9B8D0E94A40091
:1007400083E795E00E942A156AEC71E083E795E063
:100750000E94FB0BF801868197810E94E70B60EEF7
:1007600071E083E795E00E94FB0B8091C7049091B4
:10077000C8040E94E70B66EF71E083E795E00E94F2
:10078000FB0B8091A4049091A5040E94E70B6CE000
:1007900072E083E795E00E94FB0B809181049091C9
:1007A00082040E94E70B63E272E083E795E00E9417
:1007B000FB0B8E819F81DF91CF911F910F91FF9055
:1007C000EF90DF90CF900C94E70B0F931F93CF9394
:1007D000DF93EC01CB01BA0126E636E646E65FE39D
:1007E0000E94991B9B01AC0160E27CEB8EEB95E4CF
:1007F0000E94371D20E030E040E85FE30E94CA1C01
:1008000020E030E040E05FE30E94CB1C0E94DF1D4F
:100810000E94B01D062F888191E09093C0028093C2
:10082000E2021092C1021092E30289819A81DC01F6
:10083000ED91FC910190F081E02D60E0099581E05F
:100840000E944F0788819091BF029111FCCF91E0E7
:100850009093BF029093BE022FEF2093BD0210929F
:10086000BC021092BB0290939A0290919A02880F58
:10087000892B80939A0280919902813061F41092C1
:10088000990280919A028093BB008091BC0083FD05
:10089000F8CF85EC01C085EE8093BC008091BF024B
:1008A0008130E1F38091BC02811103C09091BC02C0
:1008B00001C091E0ABE9B2E0E4EEF2E080E089173C
:1008C00021F02D9121938F5FFACF10920503809331
:1008D000040389819A81DC01ED91FC910284F38506
:1008E000E02D0995182F482F4F76406160E0CE012A
:1008F0000E944613402F6EEFCE010E944613412FF7
:1009000060E0CE010E94461365E070E080E090E078
:100910000E94F014412F406A60E0CE01DF91CF9138
:100920001F910F910C944613CF93DF93EC0110921B
:100930000503109204031092C1021092E302109278
:10094000BF0281E08093BE021092990282E10E9470
:100950004B0983E10E944B09E9EBF0E080818E7F37
:10096000808380818D7F808388E48093B80085E4D4
:100970008093BC0080E39CE0909307038093060380
:1009800081E39CE0909309038093080340E860E0D2
:10099000CE010E9446136AE070E080E090E00E9481
:1009A000F01440E050E06AE774E4CE01DF91CF91AB
:1009B0000C94E5032F923F924F925F926F927F9239
:1009C0008F929F92AF92BF92CF92DF92EF92FF925F
:1009D0000F931F93CF93DF93CDB7DEB7E2970FB698
:1009E000F894DEBF0FBECDBF0E947B1781111EC0E1
:1009F0006AE372E0CE0101960E94090BCE010196D6
:100A00000E942707CE0101960E948F0A6FE372E0D1
:100A1000CE0101960E94090BCE0101960E94730A35
:100A2000CE0101960E948F0A0E94940A8FE195E000
:100A30000E944B1780913105882309F443C161E777
:100A400072E0CE0185960E94090B0E947E1597FDEB
:100A50000CC089831A8241E050E0BE016F5F7F4F76
:100A6000CE0185960E94450AF0CF64EA71E0CE017E
:100A700001960E94090B89A59AA5892B69F0EDA022
:100A8000FEA069817A81C7010E94A220009721F00F
:100A90008C010E191F0902C00FEF1FEFCE01019646
:100AA0000E948F0A58012FEFA21AB20AB501CE0197
:100AB00085960E9462154C012C013FEF431A530AA0
:100AC000B201CE0185960E9462153C011C018FEF98
:100AD000281A380AB101CE0185960E9462159EA798
:100AE0008DA764EA71E0CE0101960E94090B89A5E9
:100AF0009AA52D813E817C01E21AF30A2115310568
:100B000089F1009779F18217930760F1E816F906E9
:100B100020F07C0121E0E21AF108CDA0DEA089815D
:100B20009A8198AB8FA7C6012FEF2BA73FEF3CA769
:100B300096012E0D3F1D3AAB29AB29A93AA92817DA
:100B40003907A0F06FA578A90E94A220009771F044
:100B50009C012C193D09E216F30610F02BA73CA7C7
:100B60000196EBCFEE24EA94FE2C02C0EBA4FCA489
:100B7000CE0101960E948F0A980140E050E0BE012C
:100B80006B5D7F4FCE014F960E941E0B9401A50115
:100B9000BE016B5D7F4FCE0149960E941E0B9301F3
:100BA000A201BE016B5D7F4FCE0143960E941E0BDA
:100BB0002DA53EA5A101BE016B5D7F4FCE010D9617
:100BC0000E941E0B4DA55EA54F5F5F4F9701BE01B2
:100BD0006B5D7F4FCE0107960E941E0B29A53AA59B
:100BE000A7014F5F5F4FBE016B5D7F4FCE01019646
:100BF0000E941E0BCE014F960E943A0AF62E609379
:100C0000900270939102CE0149960E943A0A062FF3
:100C100060938E0270938F02CE0143960E943A0A2F
:100C2000162F60938C0270938D02CE010D960E9458
:100C30003A0AE62E60938A0270938B02CE010796E1
:100C40000E943A0AD62E6093880270938902CE01E0
:100C500001960E943A0A643671051CF0625B774087
:100C600002C0625E7F4F60939802D0929702E0923A
:100C70009602F0929402009393021093920282E9FA
:100C800092E00E9445100E94D80FCE0101960E946A
:100C90008F0ACE0107960E948F0ACE010D960E9400
:100CA0008F0ACE0143960E948F0ACE0149960E9478
:100CB0008F0ACE014F960E948F0ACE0185960E9420
:100CC0008F0AB4CEE2960FB6F894DEBF0FBECDBF4A
:100CD000DF91CF911F910F91FF90EF90DF90CF9018
:100CE000BF90AF909F908F907F906F905F904F904C
:100CF0003F902F9008950E94DA0462E572E083E746
:100D000095E00E94890B83E795E00E942A150E94D6
:100D1000FF0F0C94A400CF92DF92EF92FF920F93FB
:100D20001F93CF93DF936C017A018B01C0E0D0E079
:100D3000CE15DF0581F0D8016D918D01D601ED91C1
:100D4000FC910190F081E02DC6010995892B11F0ED
:100D50002196EECF7E01C701DF91CF911F910F91B8
:100D6000FF90EF90DF90CF9008950F931F93CF9354
:100D7000DF93EC0188819981009729F02A813B81DA
:100D80002617370788F48B016F5F7F4F0E94BC1FC7
:100D9000009761F0998388831B830A832C813D81AE
:100DA000232B11F4FC01108281E001C080E0DF916F
:100DB000CF911F910F910895EF92FF920F931F9380
:100DC000CF93DF93EC017B018A01BA010E94B50643
:100DD0002881398181110DC02115310519F0C90112
:100DE0000E94331F198218821D821C821B821A8264
:100DF00006C01D830C83B701C9010E949B20CE0150
:100E0000DF91CF911F910F91FF90EF900895CF93B5
:100E1000DF9300D0CDB7DEB780913005882381F015
:100E200087E7898380912D058A8342E050E0BE01E7
:100E30006F5F7F4F80912B0590912C050E94800E53
:100E4000109230050F900F90DF91CF9108950F937E
:100E50001F93CF93DF938C010E94070786E090E0F9
:100E60000E949B1EEC01198218821B821A821D822D
:100E70001C820817190751F0F80160817181611512
:100E8000710521F0448155810E94DC06D0932F0525
:100E9000C0932E05DF91CF911F910F910895282FB8
:100EA0003091E302313208F04AC08091BF028111D3
:100EB000FCCF9091E20242E04093BF022093BE0239
:100EC0002FEF2093BD021092BC023093BB02E2ECE4
:100ED000F2E0ABE9B2E020E0321721F041914D930E
:100EE0002F5FFACF10929A0220919A02990F922BBB
:100EF00090939A0290919902913061F41092990224
:100F000090919A029093BB009091BC0093FDF8CF12
:100F100095EC01C095EE9093BC009091BF02923089
:100F2000E1F39091BD029F3F79F08091BD02803244
:100F300041F08091BD02803331F084E005C081E052
:100F400003C082E001C083E01092C1021092E3026C
:100F50001092C0020895DC01ED91FC910190F081A6
:100F6000E02D09942F923F924F925F926F927F9261
:100F70008F929F92AF92BF92CF92DF92EF92FF92A9
:100F80000F931F93CF93DF93CDB7DEB729970FB69B
:100F9000F894DEBF0FBECDBF1C01798768876A0158
:100FA0000E94FF0F2B013C0180E090E0A0E8B0E43C
:100FB000F101848F958FA68FB78F9E012F5F3F4FD2
:100FC000790187E0F90111928A95E9F72885398539
:100FD000B90180E090E00E945C1B20E030E040E836
:100FE00050E40E94CA1C20E030E040E752E40E9436
:100FF000991B4B015C01B60180E090E00E945C1BF4
:10100000A50194010E94CB1C0E94A91D0CE310E0D5
:10101000CB01B8010E944B1E8A83C501B4010E9416
:10102000A91DC601860F971FB8010E94371E6B834A
:10103000C301B2010E940D1102E912E0F80183819F
:101040008C83C301B2010E940D11F80184818D834C
:10105000C301B2010E940D11F80185818E83C30185
:10106000B2010E941012825B8F83C7010E9445105B
:10107000F101648B758B868B978BC301B2010E9443
:101080000D11F801B380C301B2010E940D11F801E6
:10109000D480C301B2010E940D11F8011581C30172
:1010A000B2010E9410121982CA82F885FB83BC82A9
:1010B000DD821E83825B8F83C7010E944510F10190
:1010C000608F718F828F938F29960FB6F894DEBF51
:1010D0000FBECDBFDF91CF911F910F91FF90EF9089
:1010E000DF90CF90BF90AF909F908F907F906F9048
:1010F0005F904F903F902F9008952F923F924F9284
:101100005F926F927F928F929F92AF92BF92CF9297
:10111000DF92EF92FF920F931F93CF93DF93CDB7A0
:10112000DEB72A970FB6F894DEBF0FBECDBF4C01D5
:101130007B015A010E94FF0F2B013C0180E090E0EF
:10114000A0E8B0E4F401808B918BA28BB38BCE012D
:1011500001969987888787E0E885F98511928A95B5
:10116000E9F7AA82EB82C301B2010E940D1102E9E4
:1011700012E0F80183818C83C301B2010E940D113A
:10118000F80184818D83C301B2010E940D11F80121
:1011900085818E83C301B2010E941012825B8F830E
:1011A000CE0101960E944510F40160877187828705
:1011B0009387B70180E090E00E945C1B20E030E064
:1011C00040E850E40E94CB1C20E030E040E752E4CD
:1011D0000E94991B6B017C01C301B2010E940D1199
:1011E000F801F381FA87C301B2010E940D11F801E1
:1011F0002480C301B2010E940D11F8013580C301A2
:10120000B2010E941012782E1982B50180E090E0A0
:101210000E945C1BA70196010E94CB1C0E94A91D85
:101220000CE310E0CB01B8010E944B1E8A83C7017A
:10123000B6010E94A91DC501860F971FB8010E9423
:10124000371E6B83FA85FC832D823E828EE4870DE8
:101250008F83CE0101960E944510F4016487758743
:10126000868797872A960FB6F894DEBF0FBECDBF4C
:10127000DF91CF911F910F91FF90EF90DF90CF9072
:10128000BF90AF909F908F907F906F905F904F90A6
:101290003F902F90089590E0FC01E656FF4F249177
:1012A000FC01EA57FF4F3491FC01EE58FF4FE491E7
:1012B000EE23B1F1222339F1233091F038F42130BB
:1012C000A9F0223001F584B58F7D12C0273091F04E
:1012D0002830A1F02430B9F4809180008F7D03C0C4
:1012E000809180008F77809380000DC084B58F77C8
:1012F00084BD09C08091B0008F7703C08091B00099
:101300008F7D8093B000F0E0EE0FFF1FE859FF4F94
:10131000A591B4918FB7F894EC91E32BEC938FBF28
:1013200008958091850581110BC080918805909169
:101330008905009711F00E94331F81E08093850595
:101340008091830590918405009731F00E94331FAE
:1013500010928405109283050895EF92FF920F93E7
:101360001F93CF93DF938C017B01C0E0D0E0F701A6
:10137000EC0FFD1F6491662361F0D801ED91FC91A3
:101380000190F081E02DC8010995892B11F021967B
:10139000EECFCE01DF91CF911F910F91FF90EF9093
:1013A000089580917F0590918005FC01278121118E
:1013B00004C021E027830E94FC0E0E94910980E274
:1013C00090E00E949B1E909384058093830508956E
:1013D000FC01A089B18982E08C93A485B5851C921B
:1013E000A685B78587E08C93108EA489B58986E0A1
:1013F0008C93A289B3898C9180618C93A289B389E3
:101400008C9188608C93A289B3898C9180688C932D
:101410000288F389E02D80818F7D80830895EF928B
:10142000FF920F931F93CF93DF9300D0CDB7DEB71A
:10143000FC012685211115C07C01178680E7898370
:1014400080E28A832089318900E210E042E050E0A6
:10145000BE016F5F7F4F848595850E946B0EF701FB
:1014600086870F900F90DF91CF911F910F91FF9082
:10147000EF900895FC0180819181009711F00C9408
:10148000201B60E070E0CB010895EF92FF920F9374
:101490001F93CF93DF936115710511F480E01CC099
:1014A00041155105C1F07B01EC018C819D818A01C0
:1014B000080F191FB801CE010E94B506882371F3E9
:1014C000288139818C819D81B701820F931F0E94F1
:1014D0009B201D830C8381E0DF91CF911F910F91A1
:1014E000FF90EF9008950F931F93CF93DF938C019C
:1014F000CFE1D5E041E050E06EE572E08F8598895C
:101500000E94450AF80144815581608171818F856F
:101510009889DF91CF911F910F910C94450AFC019E
:10152000808191810C94331FCF92DF92EF92FF92D2
:101530000F931F93CF93DF9300D000D0CDB7DEB7CA
:1015400082E58B83E0912E05F0912F0504811581B2
:101550002081318142E0C42ED12CCE0101967C0144
:1015600041E050E0BE016D5F7F4F80912B0590916F
:101570002C050E94B2158A8180932D0500912E05BD
:1015800010912F050115110531F0C8010E948F0A35
:10159000C8010E94331F10922F0510922E058981D9
:1015A000811103C081E0809330050E947B1788235E
:1015B00039F064E670E080E090E00E94F014F5CF2E
:1015C00087E58B8380912D058C8302E010E09E01DE
:1015D0002F5F3F4F42E050E0BE016D5F7F4F809133
:1015E0002B0590912C050E946B0E898190E0982F1D
:1015F00088272A81820F911D0F900F900F900F90D6
:10160000DF91CF911F910F91FF90EF90DF90CF90DE
:101610000895FC01118210821382128215821482B5
:101620006115710551F0FB0101900020E9F7319738
:10163000AF01461B570B0C94DC060895BF92CF9266
:10164000DF92EF92FF920F931F93CF93DF937C0172
:101650006B01EA0189012417350720F48D2FE90178
:10166000042F182F61E772E0C7010E94090BD60111
:1016700014968D919C911597C817D907C0F58017BE
:10168000910708F48C01D601ED91FC911197E00FC0
:10169000F11FB08010826D917C916C0F7D1F6115E0
:1016A000710561F0FB0101900020E9F73197AF016E
:1016B000461B570BC7010E94DC0613C0F70180814F
:1016C0009181009711F00E94331FD70111961C924F
:1016D0001E9215961C921E92149713961C921E929F
:1016E0001297D601ED91FC91E00FF11FB082C70176
:1016F000DF91CF911F910F91FF90EF90DF90CF90EE
:10170000BF900895DC01ED91FC910190F081E02DF6
:1017100009946115710579F0FB0101900020E9F74A
:101720003197AF01461B570BDC01ED91FC91028014
:10173000F381E02D099480E090E008958F929F92CC
:10174000AF92BF92EF92FF920F931F93CF93DF93CD
:10175000CDB7DEB7A1970FB6F894DEBF0FBECDBFF1
:101760007C01FA01CB0119A2223008F42AE08E0193
:101770000F5D1F4F822E912CA12CB12CBF01A50112
:1017800094010E94571CF901CA01015011096A30E5
:1017900014F4605D01C0695CD8016C93232B242B89
:1017A000252B61F7B801C7010E94890BA1960FB6DE
:1017B000F894DEBF0FBECDBFDF91CF911F910F9187
:1017C000FF90EF90BF90AF909F908F900895CF9330
:1017D000DF93AC0160E070E02AE083E795E00E94CF
:1017E0009E0BEC0183E795E00E942A158C0F9D1F4C
:1017F000DF91CF9108950C94890B089585ED809326
:10180000BC008091BC0084FDFCCF1092BF02089503
:1018100040912A03262F30E0240F311D213231055B
:10182000DCF42091BF022430C9F4FC0180E090E098
:10183000861758F430912A032191DC01A65FBC4F32
:10184000A30FB11D2C930196F3CF80912A03680F4B
:1018500060932A0380E0089581E0089582E008956E
:1018600008950895E091050380910403E81730F48A
:10187000F0E0EC51FD4F808190E008958FEF9FEFF5
:1018800008959091050380910403981750F4E92F6F
:10189000F0E0EC51FD4F208130E09F5F9093050315
:1018A00002C02FEF3FEFC90108958091040390E03B
:1018B00020910503821B91090895CF92DF92EF9248
:1018C000FF920F931F93CF93DF937C01CB018A018B
:1018D0002091C002222389F0EB016B01C40ED51EBA
:1018E000CC15DD0569F06991D701ED91FC9101906E
:1018F000F081E02DC7010995F3CF642F0E94080CF9
:10190000C801DF91CF911F910F91FF90EF90DF9071
:10191000CF900895CF93DF931F92CDB7DEB7698341
:101920002091C0022223D1F02091E302203240F026
:1019300021E030E0FC013383228380E090E015C099
:101940008091C102E82FF0E0EE53FD4F9981908322
:101950008F5F8093C1028093E30205C061E0CE01F6
:1019600001960E94080C81E090E00F90DF91CF91EA
:101970000895CF93DF93EC010E944B178A89882347
:1019800031F08B89C80FD11D8C8990E002C08FEF98
:101990009FEFDF91CF910895CF93DF93EC010E94E9
:1019A0004B178A89882359F081508A8B8B8991E063
:1019B000980F9B8BC80FD11D8C8990E002C08FEFD0
:1019C0009FEFDF91CF910895CF93DF93EC010E94B9
:1019D0004B178A8990E0DF91CF910895CF93DF93E1
:1019E000EC010E940F0A8E85882341F08F85E889DB
:1019F000F989E80FF11D808190E002C08FEF9FEF21
:101A0000DF91CF910895CF93DF93EC010E940F0AED
:101A10008E85882369F081508E87E889F9898F85C2
:101A200091E0980F9F87E80FF11D808190E002C040
:101A30008FEF9FEFDF91CF910895CF93DF93EC016C
:101A40000E940F0A8E8590E0DF91CF9108958F92CA
:101A50009F92AF92BF92CF92DF92EF92FF920F933D
:101A60001F93CF93DF931F92CDB7DEB75C019B012D
:101A70004A01DC0152968C91811105C08B017B01DA
:101A8000E40EF51E31C080E58983C12CD12CE12CF8
:101A9000F12C8A0141E050E0BE016F5F7F4FF501FC
:101AA000848595850E94B21522C0D5015596ED9189
:101AB000FC91569753968C91539791E0980F5396BB
:101AC0009C93D8019D918D01E80FF11D9083F50144
:101AD00093898489981308C00190F081E02D0680D5
:101AE000F781E02DC5010995E016F106F1F6C40174
:101AF0000F90DF91CF911F910F91FF90EF90DF90AA
:101B0000CF90BF90AF909F908F9008953FB7F8947B
:101B10008091640390916503A0916603B09167037F
:101B200026B5A89B05C02F3F19F00196A11DB11D38
:101B30003FBFBA2FA92F982F8827820F911DA11D73
:101B4000B11DBC01CD0142E0660F771F881F991FB0
:101B50004A95D1F708952FB7F8946091600370917A
:101B6000610380916203909163032FBF08951F92D8
:101B70000F920FB60F9211242F933F938F939F9341
:101B8000AF93BF938091600390916103A091620332
:101B9000B091630330915F0323E0230F2D3720F4CE
:101BA0000196A11DB11D05C026E8230F0296A11DB7
:101BB000B11D20935F038093600390936103A09312
:101BC0006203B09363038091640390916503A091D5
:101BD0006603B09167030196A11DB11D8093640354
:101BE00090936503A0936603B0936703BF91AF9191
:101BF0009F918F913F912F910F900FBE0F901F904B
:101C00001895CF93DF93EC018D819E81DC01ED91DE
:101C1000FC910084F185E02D09951816190654F4FD
:101C20008D819E81DC01ED91FC910284F385E02D94
:101C30000995EACFDF91CF9108958F929F92AF924D
:101C4000BF92CF92DF92EF92FF92CF93DF93EC019E
:101C50006B010E94AB0D4B015C01E12CF12C8D81DD
:101C60009E81DC01ED91FC910284F385E02D0995C4
:101C700097FF0FC00E94AB0DDC01CB0188199909B9
:101C8000AA09BB098C159D05AE05BF0540F38FEF72
:101C90009FEFDF91CF91FF90EF90DF90CF90BF90BB
:101CA000AF909F908F900895FC0123813481262767
:101CB000022E2295207F2025032E322F22952F7071
:101CC0000226269532272327220F220F220F2025B6
:101CD000348323830895CF92DF92EF92FF920F9384
:101CE0001F936801790100E010E020E030E00E94DD
:101CF000B2151F910F91FF90EF90DF90CF90089554
:101D00000F931F9300E010E020E030E00E946B0E84
:101D10001F910F910895CF93DF9300D01F92CDB7FD
:101D2000DEB729E42983FC0126852A836B8343E0FF
:101D300050E0BE016F5F7F4F848595850E94800EC5
:101D400081E090E00F900F900F90DF91CF91089578
:101D5000CF93DF93FC01228921110BC0EC01438951
:101D600050E065897689848595850E94800E81E0A2
:101D70008B8BDF91CF910895CF93DF9300D0CDB7B8
:101D8000DEB7DC0152968C915297882379F080E57A
:101D900089836A8342E050E0BE016F5F7F4F1C96EB
:101DA0008D919C911D970E94800E1FC05596ED91BC
:101DB000FC91569753968C91539791E0980F5396B8
:101DC0009C935397E80FF11D608353969C91539712
:101DD00054968C915497981308C0ED91FC911197EB
:101DE0000680F781E02DCD01099581E090E00F900C
:101DF0000F90DF91CF910895CF92DF92EF92FF92F3
:101E00000F931F93CF93DF93CDB7DEB72E970FB607
:101E1000F894DEBF0FBECDBF7C01C7010E94010E4A
:101E200068EE73E080E090E00E94F014D701159610
:101E30008D919C911697DC01ED91FC910084F185C8
:101E4000E02D09951816190644F3DD24D39482E396
:101E5000C82E85E0E6E0F1E0DE01119601900D92DA
:101E60008A95E1F7F701D08645E050E0BE016F5F4B
:101E70007F4FC7010E94800E63E0D70115968D91B8
:101E80009C9116970E94820B6AEF70E080E090E0D0
:101E90000E94F0146CEB70E0F701858196810E943E
:101EA000AD096AEF70E080E090E00E94F0146AEB08
:101EB00070E0D70115968D919C9116970E94AD09FF
:101EC00064EF71E080E090E00E94F0146EEA70E050
:101ED000F701858196810E94AD0964EF71E080E091
:101EE00090E00E94F014C7010E94010E85E0EBE033
:101EF000F1E0DE01169601900D928A95E1F7D70187
:101F00001896CC9204E010E09E01255F3F4F45E01B
:101F100050E0BE016A5F7F4FC7010E946B0E8F3F8A
:101F2000BFEF9B0739F468EE73E080E090E00E9419
:101F3000F0148FCF2B852111FFCF049701F52C854D
:101F400030E02053310984E6829FA001839F500D29
:101F500011242D8530E0205331096AE0629FC001D1
:101F6000639F900D1124840F951F2E8530E0205320
:101F70003109820F931FF7019283818307C084E6A2
:101F800090E0D70112969C938E93119782E3F7010C
:101F900080872E960FB6F894DEBF0FBECDBFDF91BF
:101FA000CF911F910F91FF90EF90DF90CF90089508
:101FB00060935B0370935C0380935D0390935E0377
:101FC000DC01CB01845D9E4FAF4FBF4F8093570321
:101FD00090935803A0935903B0935A0382E090E082
:101FE00090935603809355030E94AB0D6093510369
:101FF0007093520380935303909354030895CF92A8
:10200000DF92EF92FF920F931F930E94AB0D00910E
:1020100051031091520320915303309154036B01EB
:102020007C01C01AD10AE20AF30A60915B03709145
:102030005C0380915D0390915E0348EEC41643E01B
:10204000D406E104F104D0F0DC01CB010196A11D1E
:10205000B11D80935B0390935C03A0935D03B093E9
:102060005E0308511C4F2F4F3F4F009351031093B5
:1020700052032093530330935403C7CF1F910F9102
:10208000FF90EF90DF90CF9008954F925F926F9204
:102090007F928F929F92AF92BF92CF92DF92EF92F8
:1020A000FF920F931F93CF93DF93FC011681A12F13
:1020B000B0E020E833E341EE51E00E94791C4B018F
:1020C0005C01C2EBD7E09D0104E610E080E9E82E58
:1020D000FF24F394CE01825B974082179307D4F4D8
:1020E000CE0183709927892B99F4CE01B8010E9403
:1020F0004B1E892B31F4CE01B7010E944B1E892B58
:1021000039F480E8880E81E5981E81E0A81EB11C94
:102110002196E0CF4580512C2E54384FC90164E6FA
:1021200070E00E944B1E7C01C90160E971E00E94D1
:102130004B1E6C0100E111E0C1E0D0E03901A3E0E9
:102140006A227724C415D50534F5C230D10589F447
:102150006114710471F4E114F10419F4C114D1048F
:1021600041F4B0E88B0EBBE39B1EB6E2AB1EB11C84
:102170000EC0D8018C91A82FB0E020E831E541E0F5
:1021800050E00E94791C860E971EA81EB91E21964B
:102190000F5F1F4FD7CF4181228130E0A0E1BEE029
:1021A0000E94BB1C6B017C01242F30E0ACE3B0E04B
:1021B0000E94BB1CDC01CB018C0D9D1DAE1DBF1D03
:1021C00020816C017D01C20ED11CE11CF11CA48197
:1021D000B0E0119720E831E541E050E00E948D1E0B
:1021E000DC01CB018C0D9D1DAE1DBF1DBC01CD01C1
:1021F000680D791D8A1D9B1DDF91CF911F910F9155
:10220000FF90EF90DF90CF90BF90AF909F908F9016
:102210007F906F905F904F9008954F925F926F9272
:102220007F928F929F92AF92BF92CF92DF92EF9266
:10223000FF920F931F93CF93DF934B015C0180912B
:102240004D0390914E03A0914F03B0915003881518
:102250009905AA05BB0509F4D2C08CE3C82ED12C80
:10226000E12CF12CC501B401A70196010E94571C75
:1022700060939202CA01B901A70196010E94571CFE
:1022800060939302C501B40120E13EE040E050E0DC
:102290000E94571CCA01B90128E130E040E050E03B
:1022A0000E94571C60939402C501B40120E831E5F7
:1022B00041E050E00E94571C69017A01CA01B9014E
:1022C0006C5F7F4F8F4F9F4F27E030E040E050E042
:1022D0000E94571C6F5F60939502412C512C320174
:1022E00040E004E610E0C0E9D1E0242F30E02E54B5
:1022F000384FF901E370FF27309789F4C901B8011D
:102300000E944B1E892B31F4C901BE010E944B1E55
:10231000892B29F48EE691E0A0E0B0E004C08DE6C0
:1023200091E0A0E0B0E0480E591E6A1E7B1ED3016A
:10233000C201AA27BB27C816D906EA06FB0610F079
:102340004F5FD3CF40939802309799F4C90164E668
:1023500070E00E944B1E892B39F4C90160E971E0DD
:102360000E944B1E892B29F48EE691E0A0E0B0E09C
:1023700004C08DE691E0A0E0B0E0481A590A6A0A6C
:102380007B0AC418D508E608F708C90164E670E0BE
:102390000E944B1EEC01C90160E971E00E944B1ED6
:1023A000A0E1B1E020E0213039F4309749F42097E2
:1023B00029F4009729F402C04C9103C04DE101C0FB
:1023C0004CE150E060E070E0C416D506E606F70682
:1023D00040F0C41AD50AE60AF70A2F5F11962C308E
:1023E00011F72F5F20939702C394C09296028092B8
:1023F0004D0390924E03A0924F03B0925003DF9191
:10240000CF911F910F91FF90EF90DF90CF90BF90F1
:10241000AF909F908F907F906F905F904F900895B6
:102420000E940D118091980290E08E54984F08956B
:102430001F920F920FB60F9211242F933F934F9339
:102440005F936F937F938F939F93AF93BF93EF931C
:10245000FF938091B900887F803609F49CC068F5AD
:10246000883209F45BC090F4803109F454C038F428
:10247000882309F4F6C0883009F44DC0F6C08831CD
:1024800009F44CC0803209F45DC0EFC0803409F417
:1024900068C048F4803309F455C0883309F0E5C0BA
:1024A0008093BD02D8C0803509F44FC0883509F447
:1024B0005DC0883409F0D9C0D6C0883909F4C7C0D6
:1024C000A8F4883709F467C038F4883609F463C083
:1024D000803709F460C0C9C0883809F4B8C08039B1
:1024E00009F45FC0803809F0C0C05BC0803B09F4CC
:1024F00086C038F4803A09F466C0883A09F47FC08F
:10250000B4C0803C09F4A7C0883C09F4A4C0883B4F
:1025100009F48AC0AAC080919A0210C09091BC02AE
:102520008091BB02981770F5E091BC0281E08E0F9C
:102530008093BC02F0E0E556FD4F80818093BB00A4
:1025400085EC86C08093BD028EC0E091BC0281E024
:102550008E0F8093BC028091BB00F0E0E556FD4FEA
:1025600080839091BC028091BB026EC0E091BC025E
:1025700081E08E0F8093BC028091BB00F0E0E556B5
:10258000FD4F80838091BE0281116DC081E08093F8
:10259000990284EA61C083E08093BF0210924C03E9
:1025A000CFCF80914C03803208F051C0E0914C03B2
:1025B00081E08E0F80934C038091BB00F0E0E45DDE
:1025C000FC4F8083BDCF85EC8093BC001092BF028E
:1025D00080914C03803230F4E0914C03F0E0E45DF4
:1025E000FC4F108260914C0370E0E0910803F09181
:1025F00009038CE293E0099510924C0336C084E005
:102600008093BF0210922B0310922A03E0910603DD
:10261000F0910703099580912A03811105C081E09B
:1026200080932A0310920A03E0912B0381E08E0F1E
:1026300080932B03F0E0E65FFC4F80818093BB002A
:1026400090912B0380912A03981708F479CF85E89D
:102650008093BC000AC085EC8093BC001092BF023E
:1026600004C01092BD020E94FE0BFF91EF91BF913A
:10267000AF919F918F917F916F915F914F913F911A
:102680002F910F900FBE0F901F9018951F93CF930F
:10269000DF93EC01142F888191E09093C002809326
:1026A000E2021092C1021092E30289819A81DC0158
:1026B000ED91FC910190F081E02D099589819A813D
:1026C000DC01ED91FC910190F081E02D612F0995E5
:1026D00081E0DF91CF911F910C944F07FC01538D46
:1026E000448D252F30E0842F90E0821B930B5417EC
:1026F00010F0CF96089501970895FC01918D828D79
:10270000981761F0828DDF01A80FB11D5D968C9145
:10271000928D9F5F9F73928F90E008958FEF9FEF50
:102720000895FC01918D828D981731F0828DE80F0C
:10273000F11D858D90E008958FEF9FEF0895FC01C6
:10274000918D228D892F90E0805C9F4F821B910993
:102750008F739927089580EB93E00E949F1321E0E7
:10276000892B09F420E0822F0895FC01848DDF017C
:10277000A80FB11DA35ABF4F2C91848D90E00196F4
:102780008F739927848FA689B7892C93A089B189E3
:102790008C91837080648C93938D848D981306C084
:1027A0000288F389E02D80818F7D80830895EF92E8
:1027B000FF920F931F93CF93DF93EC0181E0888FFB
:1027C0009B8D8C8D981305C0E889F989808185FDE2
:1027D00026C0F62E0B8D10E00F5F1F4F0F731127D1
:1027E000E02E8C8DE8120CC00FB607FCFACFE889FA
:1027F000F989808185FFF5CFCE010E94B513F1CF15
:102800008B8DFE01E80FF11DE35AFF4FF0829FB759
:10281000F8940B8FEA89FB89808180620AC09FB798
:10282000F894EE89FF896083E889F9898081837053
:10283000806480839FBF81E090E0DF91CF911F9102
:102840000F91FF90EF900895CF93DF93EC01888D67
:102850008823C9F0EA89FB89808185FD05C0A889A4
:10286000B9898C9186FD0FC00FB607FCF5CF80812A
:1028700085FFF2CFA889B9898C9185FFEDCFCE0174
:102880000E94B513E7CFDF91CF91089580E090E0EB
:10289000892B29F00E94AB1381110C94000008953C
:1028A0008F929F92AF92BF92CF92DF92EF92FF9260
:1028B0000F931F93CF93DF937C018B016C0182E018
:1028C000C80ED11C4701E5E08E0E911CC0E0D0E09F
:1028D000F60141916F0150E060E070E02AE0C8012C
:1028E0000E949E0B5C016EE2C8010E94820B8A0D61
:1028F0009B1DC80FD91FC814D90451F7F701458192
:1029000050E060E070E02AE0C8010E949E0B8C0F4E
:102910009D1FDF91CF911F910F91FF90EF90DF905E
:10292000CF90BF90AF909F908F9008950E9482208B
:102930001F920F920FB60F9211242F933F934F9334
:102940005F936F937F938F939F93AF93BF93EF9317
:10295000FF9380EB93E00E94B513FF91EF91BF913D
:10296000AF919F918F917F916F915F914F913F9127
:102970002F910F900FBE0F901F9018951F920F92DE
:102980000FB60F9211242F938F939F93EF93FF9382
:10299000E091C003F091C1038081E091C603F09102
:1029A000C70382FD12C090818091C9038F5F8F732E
:1029B0002091CA03821751F0E091C903F0E0E0557D
:1029C000FC4F958F8093C90301C08081FF91EF91E7
:1029D0009F918F912F910F900FBE0F901F90189580
:1029E0008F929F92AF92BF92CF92DF92EF92FF921F
:1029F0006B017C010E94860D4B015C01C114D10466
:102A0000E104F104F1F00E94860DDC01CB0188198C
:102A10009909AA09BB09883E9340A105B10570F345
:102A200021E0C21AD108E108F10888EE880E83E09F
:102A3000981EA11CB11CC114D104E104F10419F7C2
:102A4000DDCFFF90EF90DF90CF90BF90AF909F9041
:102A50008F9008956FE672E00C94890BCF92DF920D
:102A6000EF92FF92CF93DF936C01990FEE08FF086E
:102A7000F7FE1BC06DE283E795E00E94820BEC013C
:102A800044275527BA014C195D096E097F092AE0D0
:102A900083E795E00E949E0B8C0F9D1FDF91CF91E5
:102AA000FF90EF90DF90CF9008952AE0B701A60144
:102AB00083E795E0DF91CF91FF90EF90DF90CF908B
:102AC0000C949E0BCF93DF93FC0124813581621718
:102AD000730778F49B01C081D1816AE370E0CE0175
:102AE000820F931F0E949020009719F08C1B9D0B62
:102AF00002C08FEF9FEFDF91CF9108950F931F9347
:102B00000E94AB0D609327057093280580932905DB
:102B100090932A058FE195E00E94CC0C97FF1FC08F
:102B20000E94AB0D009127051091280520912905E1
:102B300030912A05DC01CB01801B910BA20BB30B5A
:102B4000009123051091240520912505309126053B
:102B500080179107A207B307E8F28FEF9FEF1F914D
:102B60000F9108952F923F924F925F926F927F92B2
:102B70008F929F92AF92BF92CF92DF92EF92FF928D
:102B80000F931F93CF93DF93CDB7DEB72E970FB67A
:102B9000F894DEBF0FBECDBF9E878D873B01290114
:102BA0009A01200F311F3A8329838A80912C222495
:102BB0002A94322CCB01840F951F98878F83D201E2
:102BC000A00FB11FBA87A987F701EC0DFD1DFC8787
:102BD000EB87AD85BE8518968C911897981608F0EE
:102BE0003FC114963C922E92139715968D919C910D
:102BF0001697DC01ED91FC910190F081E02D6FEFD3
:102C000009956FEF8D859E850E94540EED85FE859A
:102C100085819681DC01ED91FC910190F081E02DA0
:102C2000AD85BE856C910995ED85FE856081CF01EE
:102C30000E94540EAD85BE8515968D919C91169778
:102C4000DC01ED91FC910190F081E02D682D09955A
:102C5000682D8D859E850E94540EED85FE858581AB
:102C60009681DC01ED91FC910190F081E02D69816C
:102C7000099569818D859E850E94540E5301EF81CF
:102C8000F885AE16BF06C1F0AD85BE8515968D914F
:102C90009C9116978501DC01ED91FC910190F081EA
:102CA000E02DD5016D915D010995F80160818D855B
:102CB0009E850E94540EE3CF8201AD85BE85159698
:102CC0008D919C911697E985FA850E171F0791F053
:102CD0005801DC01ED91FC910190F081E02DD801CB
:102CE0006D918D010995F50160818D859E850E940C
:102CF000540EE3CFAD85BE8514966C91DC01ED9149
:102D0000FC910190F081E02D0995ED85FE8585818E
:102D10009681DC01ED91FC910190F081E02DAD8573
:102D2000BE8513966C91099568EC70E08D859E8543
:102D30000E941D0E8F3F910509F086C0ED85FE852E
:102D4000348223826FEFCF010E94540E65E070E061
:102D50008D859E850E941D0EAD85BE856C91262FAA
:102D600030E08217930709F06FC0CD010E94540E26
:102D70006AE070E08D859E850E941D0E5C0197FDC6
:102D800063C0682F8D859E850E94540E6AE070E0B6
:102D90008D859E850E941D0E8C0197FD55C0682F64
:102DA0008D859E850E94540EAC821B82EB81FC8136
:102DB0000E0F1F1F57019701200F311F3E832D83D8
:102DC0008D819E81A816B906C1F0AB85BC85AA1677
:102DD000BB0699F065E070E08D859E850E941D0E12
:102DE00097FD07C0F5018083682F8D859E850E9421
:102DF000540EFFEFAF1ABF0AE3CF65E070E08D8598
:102E00009E850E941D0E5C0197FD1EC065E070E06E
:102E10008D859E850E941D0E97FD16C0BA2CAA2492
:102E20008A0D9B1DAD85BE8513962D913C911497FF
:102E30008217930749F48C918F5F8C93C801C01659
:102E4000D10680F4C6010EC0939464E670E080E081
:102E500090E00E94F0148D859E850E94010EB9CEEF
:102E60008FEF9FEF2E960FB6F894DEBF0FBECDBF4B
:102E7000DF91CF911F910F91FF90EF90DF90CF9056
:102E8000BF90AF909F908F907F906F905F904F908A
:102E90003F902F900895EF92FF920F931F93CF933F
:102EA000DF9300D01F92CDB7DEB7FC01228921113C
:102EB00018C07C01138A8FE4898380E48B83868524
:102EC0008A839F012C5E3F4F00E410E043E050E016
:102ED000BE016F5F7F4F848595850E946B0EF70161
:102EE000828B0F900F900F90DF91CF911F910F91D8
:102EF000FF90EF9008950F931F93CF93DF9300D02F
:102F00001F92CDB7DEB782E7898380912D058A8332
:102F100001E010E09E012D5F3F4F42E050E0BE0116
:102F20006F5F7F4F80912B0590912C050E946B0E57
:102F300081E09B81913009F080E00F900F900F901D
:102F4000DF91CF911F910F910895CF93DF9300D020
:102F500000D000D0CDB7DEB7789484B5826084BD50
:102F600084B5816084BD85B5826085BD85B581608D
:102F700085BD80916E00816080936E00109281000B
:102F800080918100826080938100809181008160C6
:102F90008093810080918000816080938000809187
:102FA000B10084608093B1008091B0008160809313
:102FB000B00080917A00846080937A0080917A00DA
:102FC000826080937A0080917A00816080937A0099
:102FD00080917A00806880937A001092C1001092EC
:102FE000AA031092AB031092AC031092AD0310929F
:102FF0006A0310926B0310926C0310926D030E948F
:10300000AB0D6B017C014B015C0188EB880E8BE002
:10301000981EA11CB11C0E94AB0D6C157D058E0580
:103020009F0528F086169706A806B906A0F783E73D
:1030300095E09093AF038093AE03809156049091F6
:1030400057040E94E80980915404811107C081E06F
:10305000809354048DE494E00E94FC0E0E94D109F8
:1030600060ED77E080E090E00E94F0140E94AB0DEC
:1030700060936A0370936B0380936C0390936D036A
:1030800060E672E08091AE039091AF030E94FB0B6B
:103090000E94AB0D6B017C014B015C018AE0880E44
:1030A000911CA11CB11C0E94AB0D6C157D058E05F9
:1030B0009F0528F086169706A806B906A0F711E026
:1030C00010937E0380915604909157040E94E80962
:1030D00080915404811106C0109354048DE494E04F
:1030E0000E94FC0E0E94D10991E6F92EF98201E0BE
:1030F00010E09E012F5F3F4F41E050E0B901809109
:103100007F05909180050E946B0E8981813071F757
:103110000E947B1781111EC06AE372E0CE01019606
:103120000E94090BCE0101960E942707CE0101964D
:103130000E948F0A62E772E0CE0101960E94090B9D
:10314000CE0101960E94730ACE0101960E948F0A59
:103150000E94940A0E94DA04A0911305B09114050C
:1031600020E13EE00E94861E6093150570931605CF
:1031700080931705909318058BE796E090931E05B2
:1031800080931D05A0910705B09108050AE010E0A5
:103190002AE030E00E94861E6093090570930A05BC
:1031A00080930B0590930C0586E293E090931205B3
:1031B000809311051092E5041092E4041093E70443
:1031C0000093E6041092EB041092EA04EE24EA94D1
:1031D0008FE0F82EF092E904E092E80484E095E0B4
:1031E0000E94940440E050E068EC74E484E095E0D0
:1031F0000E94E50381E090E09093C2048093C104B3
:103200001093C4040093C3041092C8041092C7041E
:10321000F092C604E092C50481EE94E00E9494040A
:1032200040E050E068EC74E481EE94E00E94E50335
:1032300082E090E090939F0480939E041093A104F9
:103240000093A0041092A5041092A404F092A30489
:10325000E092A2048EEB94E00E94940440E050E0DF
:1032600068EC74E48EEB94E00E94E50386E090E065
:1032700090937C0480937B0410937E0400937D04E0
:10328000109282041092810482E39FE09093800464
:1032900080937F048BE994E00E94940440E050E026
:1032A00068EC74E48BE994E00E94E50387E090E029
:1032B000909359048093580410935B0400935A042C
:1032C00010925F0410925E0485E69EE090935D0488
:1032D00080935C0488E794E00E94940440E050E00E
:1032E00068EC74E488E794E00E94E50340E050E075
:1032F00067E070E084EE94E00E947D084EE150E0CB
:1033000067E070E081EC94E00E947D0840E050E0CE
:1033100068E070E08EE994E00E947D0840E050E0B3
:1033200068E070E08BE794E00E947D084EE150E099
:1033300068E070E088E594E00E947D0840E050E09D
:1033400064E170E084EE94E00E94B2074EE150E048
:1033500064E170E081EC94E00E94B20740E050E04C
:1033600065E170E08EE994E00E94B20740E050E031
:1033700064E170E08BE794E00E94B2074EE150E018
:1033800064E170E088E594E00E94B2070E94AB0D12
:1033900000910D0510910E0520910F05309110053B
:1033A0006B017C01C01AD10AE20AF30A00910905F7
:1033B00010910A0520910B0530910C05C016D1061D
:1033C000E206F30650F060930D0570930E058093AE
:1033D0000F05909310050E9426030E94AB0D0091EB
:1033E000190510911A0520911B0530911C056B01E0
:1033F0007C01C01AD10AE20AF30A00911505109166
:1034000016052091170530911805C016D106E20661
:10341000F30650F06093190570931A0580931B050D
:1034200090931C050E947B060E944614AFCF8AE44D
:1034300091E09093200580931F050E9407078CE57B
:1034400091E090937405809373050C949109CF9348
:10345000DF93E0EBF3E01382128248EE53E060E08A
:1034600070E0448355836683778380E291E09183A3
:10347000808385EC90E09587848784EC90E0978743
:10348000868780EC90E0918B808B81EC90E0938B31
:10349000828B82EC90E0958B848B86EC90E0978B0E
:1034A000868B118E128E138E148EAAE8B5E084E4FA
:1034B00091E011969C938E9312961C9212971396FC
:1034C0001C92139714961C92149715961C92A8E6BA
:1034D000B3E016961D921D921D921C9219971A9692
:1034E0001D921D921D921C921D971E961D921D925B
:1034F0001D921C92519752961D921D921D921C92E4
:103500005597A3E7B5E013961C921E921297149656
:103510004D935D936D937C9317972CE531E0119655
:103520003C932E93CDE4D4E01D96DC93CE931C9770
:103530001E961C921E971F961C921F9751961C92C6
:103540001E92509721E052962C931882FE83ED83B1
:103550001F821886FA87E987E0E9F5E01382128274
:10356000448355836683778322E331E0318320836C
:10357000AFE1B5E013961C921E92129714964D93EC
:103580005D936D937C9317972AE431E011963C93F9
:103590002E931D96DC93CE931C9751961C925197B7
:1035A00052961C92529753961C92ACE9B5E0119634
:1035B0009C938E9312961C92129713961C921397BB
:1035C00014961C92149715961C9288EE93E0909393
:1035D0001405809313059093080580930705A4EEC6
:1035E000B4E080E490968C9390979296FC93EE933F
:1035F0009197A1ECB4E090968C9390979296FC935F
:10360000EE939197AEE9B4E090968C939097929652
:10361000FC93EE939197ABE7B4E090968C939097E0
:103620009296FC93EE939197A8E5B4E090968C93D4
:1036300090979296FC93EE939197DF91CF91089596
:103640001F93FC0199278827BC01E894119110323F
:10365000E9F3193010F01E30C8F31B3251F01D325F
:1036600049F4689406C00E94471B610F711D811DBB
:10367000911D119110531A30B0F33EF4909580953E
:10368000709561957F4F8F4F9F4F1F910895592FD0
:10369000482F372F262F660F771F881F991F660F19
:1036A000771F881F991F620F731F841F951F660F56
:1036B000771F881F991F0895E89409C097FB3EF46F
:1036C00090958095709561957F4F8F4F9F4F99236F
:1036D000A9F0F92F96E9BB279395F69587957795ED
:1036E0006795B795F111F8CFFAF4BB0F11F460FFAD
:1036F0001BC06F5F7F4F8F4F9F4F16C0882311F005
:1037000096E911C0772321F09EE8872F762F05C018
:10371000662371F096E8862F70E060E02AF09A95B3
:10372000660F771F881FDAF7880F9695879597F9A8
:1037300008950E94AC1B0C941D1C0E940F1C38F0B5
:103740000E94161C20F0952311F00C94061C0C947A
:103750000C1C11240C94511C0E942E1C70F3959F7C
:10376000C1F3950F50E0551F629FF001729FBB2778
:10377000F00DB11D639FAA27F00DB11DAA1F649F14
:103780006627B00DA11D661F829F2227B00DA11DC7
:10379000621F739FB00DA11D621F839FA00D611D4D
:1037A000221F749F3327A00D611D231F849F600D6E
:1037B000211D822F762F6A2F11249F5750409AF097
:1037C000F1F088234AF0EE0FFF1FBB1F661F771F23
:1037D000881F91505040A9F79E3F510580F00C94EE
:1037E000061C0C94511C5F3FE4F3983ED4F386957D
:1037F00077956795B795F795E7959F5FC1F7FE2B8E
:10380000880F911D9695879597F9089597F99F6769
:1038100080E870E060E008959FEF80EC0895002458
:103820000A941616170618060906089500240A9425
:1038300012161306140605060895092E0394000CAB
:1038400011F4882352F0BB0F40F4BF2B11F460FF3A
:1038500004C06F5F7F4F8F4F9F4F089557FD905863
:10386000440F551F59F05F3F71F04795880F97FB44
:10387000991F61F09F3F79F08795089512161306FE
:103880001406551FF2CF4695F1DF08C0161617062D
:103890001806991FF1CF8695710561050894089562
:1038A000E894BB2766277727CB0197F90895A1E213
:1038B0001A2EAA1BBB1BFD010DC0AA1FBB1FEE1FAA
:1038C000FF1FA217B307E407F50720F0A21BB30BF5
:1038D000E40BF50B661F771F881F991F1A9469F771
:1038E00060957095809590959B01AC01BD01CF01CD
:1038F00008950E94BB1CA59F900DB49F900DA49F9E
:10390000800D911D112408952F923F924F925F9246
:103910006F927F928F929F92AF92BF92CF92DF92DF
:10392000EF92FF920F931F93CF93DF93CDB7DEB744
:10393000CA1BDB0B0FB6F894DEBF0FBECDBF0994D8
:103940002A88398848885F846E847D848C849B842F
:10395000AA84B984C884DF80EE80FD800C811B813D
:10396000AA81B981CE0FD11D0FB6F894DEBF0FBE6C
:10397000CDBFED010895A29FB001B39FC001A39FE9
:10398000700D811D1124911DB29F700D811D112498
:10399000911D08955058BB27AA270E94E21C0C9441
:1039A0001D1C0E940F1C38F00E94161C20F039F4D8
:1039B0009F3F19F426F40C940C1C0EF4E095E7FBE1
:1039C0000C94061CE92F0E942E1C58F3BA176207AC
:1039D00073078407950720F079F4A6F50C94501C22
:1039E0000EF4E0950B2EBA2FA02D0B01B90190011A
:1039F0000C01CA01A0011124FF27591B99F0593F5E
:103A000050F4503E68F11A16F040A22F232F342FA5
:103A10004427585FF3CF469537952795A795F040F3
:103A20005395C9F77EF41F16BA0B620B730B840B08
:103A3000BAF09150A1F0FF0FBB1F661F771F881FC0
:103A4000C2F70EC0BA0F621F731F841F48F4879518
:103A500077956795B795F7959E3F08F0B0CF93950A
:103A6000880F08F09927EE0F9795879508950E9483
:103A70004B1D0C941D1C0E94161C58F00E940F1C1C
:103A800040F029F45F3F29F00C94061C51110C946E
:103A9000511C0C940C1C0E942E1C68F39923B1F34A
:103AA000552391F3951B550BBB27AA276217730764
:103AB000840738F09F5F5F4F220F331F441FAA1FF8
:103AC000A9F335D00E2E3AF0E0E832D091505040B4
:103AD000E695001CCAF72BD0FE2F29D0660F771F62
:103AE000881FBB1F261737074807AB07B0E809F048
:103AF000BB0B802DBF01FF2793585F4F3AF09E3FCD
:103B0000510578F00C94061C0C94511C5F3FE4F3B3
:103B1000983ED4F3869577956795B795F7959F5F0F
:103B2000C9F7880F911D9695879597F90895E1E05B
:103B3000660F771F881FBB1F621773078407BA07BA
:103B400020F0621B730B840BBA0BEE1F88F7E09515
:103B500008950E94B01D6894B1110C94511C0895F1
:103B60000E94361C88F09F5798F0B92F9927B751BB
:103B7000B0F0E1F0660F771F881F991F1AF0BA9511
:103B8000C9F714C0B13091F00E94501CB1E0089503
:103B90000C94501C672F782F8827B85F39F0B93FF5
:103BA000CCF3869577956795B395D9F73EF49095C4
:103BB0008095709561957F4F8F4F9F4F08950E941C
:103BC0001F1E90F09F3748F4911116F00C94511C71
:103BD00060E070E080E89FEB089526F41B16611DFD
:103BE000711D811D0C94F61D0C94111E882371F417
:103BF000772321F09850872B762F07C0662311F486
:103C000099270DC09051862B70E060E02AF09A95BC
:103C1000660F771F881FDAF7880F9695879597F9B3
:103C200008959F3F31F0915020F4879577956795DF
:103C3000B795880F911D9695879597F908950E94DD
:103C4000361CA0F0BEE7B91788F4BB279F3860F494
:103C50001616B11D672F782F8827985FF7CF8695A6
:103C600077956795B11D93959639C8F30895AA1B6A
:103C7000BB1B51E107C0AA1FBB1FA617B70710F057
:103C8000A61BB70B881F991F5A95A9F78095909589
:103C9000BC01CD01089597FB072E16F4009407D0C0
:103CA00077FD09D00E94371E07FC05D03EF49095A1
:103CB00081959F4F0895709561957F4F0895052ECA
:103CC00097FB1EF400940E94761E57FD07D00E94B9
:103CD000571C07FC03D04EF40C94761E509540956B
:103CE000309521953F4F4F4F5F4F089590958095A8
:103CF000709561957F4F8F4F9F4F08950E94BB1C19
:103D0000332312F48A1B9B0B0C94881E0E94BB1C4D
:103D1000B7FF0895821B930B0895B7FF0C94791C8D
:103D20000E94791C821B930B0895EE0FFF1F0590D4
:103D3000F491E02D09940F931F93CF93DF9382307A
:103D4000910510F482E090E0E091A405F091A505C2
:103D500020E030E0A0E0B0E0309719F140815181DF
:103D60000281138148175907C8F08417950769F431
:103D7000109731F012960C93129713961C9327C04C
:103D80000093A4051093A50522C02115310519F053
:103D90004217530718F49A01BD01EF01DF01F80142
:103DA000DBCF21153105F9F0281B390B2430310503
:103DB00080F48A819B816115710521F0FB01938359
:103DC000828304C09093A5058093A405FE013296DA
:103DD00044C0FE01E20FF31F8193919322503109F9
:103DE000398328833AC02091A2053091A305232B63
:103DF00041F420910201309103013093A3052093F7
:103E0000A20520910001309101012115310541F4F5
:103E10002DB73EB74091040150910501241B350B8D
:103E2000E091A205F091A305E217F307A0F42E1B81
:103E30003F0B2817390778F0AC014E5F5F4F24170E
:103E4000350748F04E0F5F1F5093A3054093A2051E
:103E50008193919302C0E0E0F0E0CF01DF91CF9138
:103E60001F910F910895CF93DF93009709F481C0BC
:103E7000FC01329713821282A091A405B091A5058E
:103E8000109781F420813181820F931F2091A20528
:103E90003091A3052817390751F5F093A305E09356
:103EA000A20567C0ED0120E030E0CE17DF0740F447
:103EB0004A815B819E0141155105F1F0EA01F5CF80
:103EC000D383C28340815181840F951FC817D907BE
:103ED00059F488819981840F951F0296918380837C
:103EE0008A819B81938382832115310529F4F09384
:103EF000A505E093A4053DC0E901FB83EA83499150
:103F00005991C40FD51FEC17FD0761F48081918191
:103F1000840F951F0296E90199838883828193819A
:103F20009B838A83E0E0F0E012968D919C91139739
:103F3000009719F0FD01DC01F7CF8D919C9111974D
:103F40009D012E5F3F4F820F931F2091A20530915C
:103F5000A3052817390769F4309729F41092A505AD
:103F60001092A40502C013821282B093A305A093FD
:103F7000A205DF91CF910895A0E0B0E0E2ECFFE16F
:103F80000C94881CEC01009721F4CB010E949B1E2D
:103F9000B4C0FC01E60FF71F9C0122503109E21763
:103FA000F30708F4A8C0D9010D911C9111970617C9
:103FB0001707B0F00530110508F49BC0C80104973D
:103FC0008617970708F495C002501109061B170BB6
:103FD000019311936D937C93CF010E94331F89C08D
:103FE0005B01A01AB10A4C01800E911EA091A4059C
:103FF000B091A505612C712CE12CF12C109709F4DE
:1040000046C08D919C911197A815B905B1F56C0129
:1040100042E0C40ED11CCA14DB0478F14C018A18AA
:104020009B08640142E0C40ED11C1296BC9012970A
:104030001396AC91B5E0CB16D10440F0B282A383C5
:1040400091828082D9016D937C9309C00E5F1F4FCE
:10405000800F911FF90191838083EB2DFA2FE114DA
:10406000F10431F0D7011396FC93EE93129741C0FF
:10407000F093A505E093A4053CC06816790608F402
:104080003C017D0112960D90BC91A02DB7CF80917F
:10409000A2059091A30588169906E1F466167706A5
:1040A000C8F48091000190910101009741F48DB70F
:1040B0009EB74091040150910501841B950BE817B0
:1040C000F907C8F4F093A305E093A205F901718301
:1040D00060830FC0CB010E949B1E7C01009759F0AA
:1040E000A801BE010E948720CE010E94331FC70194
:1040F00004C0CE0102C080E090E0CDB7DEB7EEE0B4
:104100000C94A41C81E090E0F8940C94BC20FB017A
:10411000DC0102C001900D9241505040D8F7089543
:10412000FC018191861721F08823D9F799270895FA
:104130003197CF010895FB01DC0101900D92002021
:10414000E1F70895FB0151915523A9F0BF01DC016E
:104150004D9145174111E1F759F4CD01019000202F
:1041600049F04D9140154111C9F3FB014111EFCFC9
:1041700081E090E00197089510E0C0E6D0E004C02F
:10418000FE010E94951E2196C136D107C9F7F89409
:02419000FFCF5F
:104192000000A605800058585858585858313030F9
:1041A2001F1C1F1E1F1E1F1F1E1F1E1F00000000A0
:1041B200D7138B066E1324149F137D1391130000E3
:1041C20000008A0C5D0C8C00FD0B550C410C320C6E
:1041D200000000005014000000008B0E8B068C00C3
:1041E200FD0BE40CCC0CB90C00000000BC0E270D3A
:1041F2008C00A80E1D0D030DEE0C757064617465C4
:10420200640063757272656E742074696D653A003C
:1042120053756E7269736520737461727420746968
:104222006D653A0053756E7269736520656E642020
:1042320074696D653A0053756E73657420737461A9
:1042420072742074696D653A0053756E73657420DB
:10425200656E642074696D653A0063757272656E8D
:104262007420626C756531206F75747075743A00D4
:1042720063757272656E7420626C756532206F753B
:10428200747075743A0063757272656E7420626C34
:10429200756533206F75747075743A006375727248
:1042A200656E7420776869746531206F75747075F6
:1042B200743A0063757272656E742077686974650A
:1042C20032206F75747075743A0064617465002BE6
:1042D20025483A254D3A25533A25643A256D3A2523
:1042E200790054696D652053796E63656400FE0040
:1042F200564D4450565F317C315F564D4450560DF9
:104302000A002B256D2C25642C25792C25412C2582
:08431200482C254D2C25530019
:00000001FF
