:100000000C9461000C9489000C9489000C94890074
:100010000C9489000C9489000C9489000C9489003C
:100020000C9489000C9489000C9489000C9489002C
:100030000C9489000C9489000C9489000C9489001C
:100040000C94490D0C9489000C9450140C942A14AF
:100050000C9489000C9489000C9489000C948900FC
:100060000C94AA110C9489000000000025002800BF
:100070002B00040404040404040402020202020229
:10008000030303030303010204081020408001025C
:1000900004081020010204081020000000080002DB
:1000A000010000030407000000000000000072755A
:1000B0006E2D6272696467650A000A000A003119D0
:1000C000211911241FBECFEFD8E0DEBFCDBF25E040
:1000D000A8E8B2E001C01D92AC39B207E1F712E026
:1000E000A0E0B1E0E8E5FFE302C005900D92A8387A
:1000F000B107D9F710E0C0E6D0E004C02197FE01B7
:100100000E94781DCF35D107C9F70E9437170C948C
:100110009F1F0C940000DC01ED91FC910190F08197
:10012000E02D099490E0FC01E656FF4F2491FC017C
:10013000EA57FF4F3491FC01EE58FF4FE491EE2354
:10014000B1F1222339F1233091F038F42130A9F0B4
:10015000223001F584B58F7D12C0273091F0283010
:10016000A1F02430B9F4809180008F7D03C080918C
:1001700080008F77809380000DC084B58F7784BD19
:1001800009C08091B0008F7703C08091B0008F7D4F
:100190008093B000F0E0EE0FFF1FE859FF4FA591EC
:1001A000B4918FB7F894EC91E32BEC938FBF089543
:1001B000CF92DF92EF92FF920F931F93CF93DF9333
:1001C0006C017A018B01C0E0D0E0CE15DF0581F033
:1001D000D8016D918D01D601ED91FC910190F081D6
:1001E000E02DC6010995892B11F02196EECF7E01F5
:1001F000C701DF91CF911F910F91FF90EF90DF909A
:10020000CF9008950F931F93CF93DF93EC018881D4
:100210009981009729F02A813B812617370788F4B6
:100220008B016F5F7F4F0E949F1E009761F0998343
:1002300088831B830A832C813D81232B11F4FC01CD
:10024000108281E001C080E0DF91CF911F910F917A
:100250000895EF92FF920F931F93CF93DF93EC01DA
:100260007B018A01BA010E94020128813981811132
:100270000DC02115310519F0C9010E94161E198201
:1002800018821D821C821B821A8206C01D830C8369
:10029000B701C9010E947E1FCE01DF91CF911F914E
:1002A0000F91FF90EF900895CF93DF9300D0CDB7DB
:1002B000DEB780912605882381F087E789838091C6
:1002C00023058A8342E050E0BE016F5F7F4F80913B
:1002D0002105909122050E94120E109226050F9082
:1002E0000F90DF91CF9108950F931F93CF93DF93DA
:1002F0008C010E94540186E090E00E947E1DEC017A
:10030000198218821B821A821D821C820817190703
:1003100051F0F801608171816115710521F044810E
:1003200055810E942901D0932505C0932405DF91B2
:10033000CF911F910F910895282F3091DF02313214
:1003400008F04AC08091BB028111FCCF9091DE027F
:1003500042E04093BB022093BA022FEF2093B902F0
:100360001092B8023093B702EEEBF2E0A7E9B2E0E8
:1003700020E0321721F041914D932F5FFACF109278
:10038000960220919602990F922B9093960290914B
:100390009502913061F4109295029091960290939B
:1003A000BB009091BC0093FDF8CF95EC01C095EE99
:1003B0009093BC009091BB029230E1F39091B9020E
:1003C0009F3F79F08091B902803241F08091B9026B
:1003D000803331F084E005C081E003C082E001C0D9
:1003E00083E01092BD021092DF021092BC020895C9
:1003F0000F931F93CF93DF93EC018A01888191E0E3
:100400009093BC028093DE021092BD021092DF0234
:1004100089819A8124E0629FB00111246A5F7F4F35
:10042000DC01ED91FC910190F081E02D099560E0F7
:1004300070E089819A810E948B0060E070E0898180
:100440009A810E948B00B80189819A810E948B0059
:10045000612F70E089819A810E948B0081E0DF9199
:10046000CF911F910F910C949C014F925F926F92CC
:100470007F929F92AF92BF92CF92DF92EF92FF92C4
:100480000F931F93CF93DF93CDB7DEB727970FB6A8
:10049000F894DEBF0FBECDBF7C015B010E94910FBF
:1004A0002B013C0180E090E0A0E0BFE3F701828FE8
:1004B000938FA48FB58FCE0101966C0187E0F60172
:1004C00011928A95E9F7B50180E090E00E94661AE2
:1004D00020E030E441EA54E40E94D51B0E94B31CA2
:1004E0002CE330E0CB01B9010E94551D8A83C50180
:1004F000865F9A4FB9010E94411D6B83C301B2010F
:100500000E949F100EE812E0F80183818C83C301E2
:10051000B2010E949F10F80184818D83C301B20152
:100520000E949F10F80185818E83C301B2010E9451
:10053000A211825B8F83C6010E94D70FF701628BE5
:10054000738B848B958BC301B2010E949F10F801BD
:100550009380C301B2010E949F10F801B480C301CF
:10056000B2010E949F10F8011581C301B2010E94DF
:10057000A2111982AA8296E19B839C82BD821E836E
:10058000825B8F83C6010E94D70FF701668B778B42
:10059000808F918F27960FB6F894DEBF0FBECDBF28
:1005A000DF91CF911F910F91FF90EF90DF90CF904F
:1005B000BF90AF909F907F906F905F904F90089505
:1005C0002F923F924F925F926F927F928F929F9263
:1005D000AF92BF92CF92DF92EF92FF920F931F9351
:1005E000CF93DF93CDB7DEB72A970FB6F894DEBF6F
:1005F0000FBECDBF4C017B015A010E94910F2B0110
:100600003C0180E090E0A0E0BFE3F401868797879B
:10061000A08BB18BCE0101969987888787E0E8850A
:10062000F98511928A95E9F7AA82EB82C301B2019A
:100630000E949F100EE812E0F80183818C83C301B1
:10064000B2010E949F10F80184818D83C301B20121
:100650000E949F10F80185818E83C301B2010E9420
:10066000A211825B8F83CE0101960E94D70FF40105
:100670006683778380879187B70180E090E00E944E
:10068000661A20E030E040E05FE30E94D51B20E0E6
:1006900030E040E752E40E94A31A6B017C01C301E1
:1006A000B2010E949F10F801F381FA87C301B201E1
:1006B0000E949F10F8012480C301B2010E949F1084
:1006C000F8013580C301B2010E94A211782E19826F
:1006D000B50180E090E00E94661AA70196010E9491
:1006E000D51B0E94B31C0CE310E0CB01B8010E94A3
:1006F000551D8A83C701B6010E94B31CC501860F30
:10070000971FB8010E94411D6B83FA85FC832D82DF
:100710003E828EE4870D8F83CE0101960E94D70F13
:10072000F40162877387848795872A960FB6F894B9
:10073000DEBF0FBECDBFDF91CF911F910F91FF9014
:10074000EF90DF90CF90BF90AF909F908F907F9071
:100750006F905F904F903F902F900895CF93DF93CD
:10076000FC01718360838AE090E093838283158229
:100770001482EF016E9610928D0210928C021092EC
:10078000BD021092DF021092BB0281E08093BA0298
:100790001092950282E10E94920083E10E949200F1
:1007A000E9EBF0E080818E7F808380818D7F808384
:1007B00088E48093B80085E48093BC0082EC9BE0E1
:1007C00090938B0280938A0283EC9BE09093890242
:1007D0008093880240E860E0CE010E94D8126AE06F
:1007E00070E080E090E00E94821440E050E06AE710
:1007F00074E4CE010E942F0940E050E068EC74E4FC
:10080000CE01DF91CF910C942F0980917B0581114E
:100810000BC080917E0590917F05009711F00E949A
:10082000161E81E080937B058091790590917A0571
:10083000009731F00E94161E10927A0510927905E9
:100840000895EF92FF920F931F93CF93DF938C0144
:100850007B01C0E0D0E0F701EC0FFD1F649166233F
:1008600061F0D801ED91FC910190F081E02DC8017B
:100870000995892B11F02196EECFCE01DF91CF9112
:100880001F910F91FF90EF900895809175059091C1
:100890007605FC012781211104C021E027830E94F5
:1008A0008E0E0E94050480E290E00E947E1D9093CF
:1008B0007A05809379050895FC01A089B18982E0C9
:1008C0008C93A485B5851C92A685B78587E08C930B
:1008D000108EA489B58986E08C93A289B3898C9106
:1008E00080618C93A289B3898C9188608C93A28952
:1008F000B3898C9180688C930288F389E02D808184
:100900008F7D80830895EF92FF920F931F93CF9373
:10091000DF9300D0CDB7DEB7FC012685211115C0CD
:100920007C01178680E7898380E28A832089318968
:1009300000E210E042E050E0BE016F5F7F4F84852F
:1009400095850E94FD0DF70186870F900F90DF912E
:10095000CF911F910F91FF90EF900895FC0180813E
:100960009181009711F00C942A1A60E070E0CB019D
:100970000895EF92FF920F931F93CF93DF9361152A
:10098000710511F480E01CC041155105C1F07B01D7
:10099000EC018C819D818A01080F191FB801CE01DD
:1009A0000E940201882371F3288139818C819D8105
:1009B000B701820F931F0E947E1F1D830C8381E06D
:1009C000DF91CF911F910F91FF90EF9008950F93BA
:1009D0001F93CF93DF938C01C5E1D5E041E050E058
:1009E0006AE671E08F8598890E94B904F801448114
:1009F0005581608171818F859889DF91CF911F9199
:100A00000F910C94B904FC01808191810C94161E05
:100A1000CF92DF92EF92FF920F931F93CF93DF93CA
:100A200000D000D0CDB7DEB782E58B83E0912405FE
:100A3000F0912505048115812081318142E0C42E89
:100A4000D12CCE0101967C0141E050E0BE016D5FEA
:100A50007F4F80912105909122050E9444158A8143
:100A6000809323050091240510912505011511059A
:100A700031F0C8010E940305C8010E94161E1092A1
:100A80002505109224058981811103C081E080939E
:100A900026050E940D17882339F064E670E080E097
:100AA00090E00E948214F5CF87E58B838091230527
:100AB0008C8302E010E09E012F5F3F4F42E050E048
:100AC000BE016D5F7F4F80912105909122050E94AC
:100AD000FD0D898190E0982F88272A81820F911D32
:100AE0000F900F900F900F90DF91CF911F910F916A
:100AF000FF90EF90DF90CF900895FC01118210825B
:100B000013821282158214826115710551F0FB0166
:100B100001900020E9F73197AF01461B570B0C9469
:100B200029010895BF92CF92DF92EF92FF920F9327
:100B30001F93CF93DF937C016B01EA018901241796
:100B4000350720F48D2FE901042F182F61E772E09B
:100B5000C7010E947D05D60114968D919C91159731
:100B6000C817D907C0F58017910708F48C01D60182
:100B7000ED91FC911197E00FF11FB08010826D9103
:100B80007C916C0F7D1F6115710561F0FB01019077
:100B90000020E9F73197AF01461B570BC7010E94B0
:100BA000290113C0F70180819181009711F00E9403
:100BB000161ED70111961C921E9215961C921E921B
:100BC000149713961C921E921297D601ED91FC91E8
:100BD000E00FF11FB082C701DF91CF911F910F91FC
:100BE000FF90EF90DF90CF90BF900895DC01ED91E2
:100BF000FC910190F081E02D09946115710579F067
:100C0000FB0101900020E9F73197AF01461B570B1C
:100C1000DC01ED91FC910280F381E02D099480E0EC
:100C200090E008958F929F92AF92BF92EF92FF92C1
:100C30000F931F93CF93DF93CDB7DEB7A1970FB676
:100C4000F894DEBF0FBECDBF7C01FA01CB0119A223
:100C5000223008F42AE08E010F5D1F4F822E912C66
:100C6000A12CB12CBF01A50194010E94611BF901C7
:100C7000CA01015011096A3014F4605D01C0695C59
:100C8000D8016C93232B242B252B61F7B801C701C6
:100C90000E94FD05A1960FB6F894DEBF0FBECDBF32
:100CA000DF91CF911F910F91FF90EF90BF90AF9088
:100CB0009F908F900895CF93DF93AC0160E070E038
:100CC0002AE089E695E00E941206EC0189E695E0AB
:100CD0000E94BC148C0F9D1FDF91CF9108950C943E
:100CE000FD05089580E090E00895CF93DF93EC0137
:100CF0006AE389E695E00E94F605CA30D1052CF436
:100D000060E389E695E00E94F605CE01DF91CF9180
:100D10000C94C014CF92DF92EF92FF92CF93DF93A7
:100D20006B017C010E949F10CEE8D2E08A8190E0A6
:100D30000E94C014C701B6010E949F10898190E0F3
:100D40000E947506C701B6010E949F10888190E03D
:100D50000E94750660E289E695E00E94F605C701EB
:100D6000B6010E949F108C8190E00E94C01460E246
:100D700089E695E00E94F605C701B6010E949F1022
:100D80008D8190E00E94C01460E289E695E00E94A7
:100D9000F605C701B6010E94A2110E94C01489E69F
:100DA00095E0DF91CF91FF90EF90DF90CF900C9482
:100DB000BC145F926F927F928F929F92AF92BF927C
:100DC000CF92DF92EF92FF920F931F93CF93DF9317
:100DD000CDB7DEB727970FB6F894DEBF0FBECDBFF5
:100DE0008C010E94910F6B017C01CE0101965C0188
:100DF00087E0F50111928A95E9F7F801668177811C
:100E0000808591850E949F1080918F028A83F801CE
:100E100066817781808591850E949F1080919002E4
:100E20008B83C701B6010E949F10809191028C8331
:100E3000C701B6010E949F10809192028D83C70165
:100E4000B6010E949F10809193028E83C701B60164
:100E50000E94A211825B8F83C5010E94D70FF80107
:100E6000668377838087918762857385848595857E
:100E70000E949F1050908F02F801628573858485CF
:100E800095850E949F1060909002C701B6010E9454
:100E90009F1070909102C701B6010E949F10809030
:100EA0009202C701B6010E949F1090909302C70161
:100EB000B6010E94A21119825A826B827C828D82B5
:100EC0009E82825B8F83C5010E94D70FF8016287E3
:100ED00073878487958766897789808D918D0E9435
:100EE0009F1050908F02F80166897789808D918DCF
:100EF0000E949F1060909002C701B6010E949F104F
:100F000070909102C701B6010E949F1080909202DA
:100F1000C701B6010E949F1090909302C701B601CD
:100F20000E94A21119825A826B827C828D829E82DB
:100F3000825B8F83C5010E94D70FF801668B778B88
:100F4000808F918F62897389848995890E949F100F
:100F500050908F02F80162897389848995890E9473
:100F60009F1060909002C701B6010E949F10709080
:100F70009102C701B6010E949F1080909202C701A2
:100F8000B6010E949F1090909302C701B6010E9483
:100F9000A21119825A826B827C828D829E82825B30
:100FA0008F83C5010E94D70FF801628B738B848BEE
:100FB000958B86809780A084B184C814D904EA04F4
:100FC000FB04D0F182849384A484B5848C149D04A2
:100FD000AE04BF0488F1448155816081C8014E96FA
:100FE0000E94F80120E030E040E752E4F801668515
:100FF0007785808991890E94A31A20E030E040E73C
:1010000052E40E94A31A0E94B31CAB01BC0180E011
:1010100090EABA010E94551DF80184819581680FFC
:10102000791F6115F0E17F0708F441C080E090E18D
:10103000F801958384833EC0C616D706E806F906F4
:10104000C8F1F80186899789A08DB18D8C159D0511
:10105000AE05BF0578F1448155816081C8014E9687
:101060000E94F80120E030E040E752E4F801628D90
:10107000738D848D958D0E94A31A20E030E040E7A7
:1010800052E40E94A31A0E94B31CAB01BC0180E091
:1010900090E6BA010E94551DF80184819581680F80
:1010A000791F6115710519F41582148203C0F801C6
:1010B0007583648327960FB6F894DEBF0FBECDBF4D
:1010C000DF91CF911F910F91FF90EF90DF90CF9024
:1010D000BF90AF909F908F907F906F905F9008959A
:1010E000CF92DF92EF92FF920F931F93CF93DF93F4
:1010F0008CED94E00E94D9068BEB94E00E94D90617
:101100008AE994E00E94D90689E794E00E94D90612
:1011100088E594E00E94D9060E94910F6B017C0142
:1011200089E695E00E94BC1489E695E00E94BC1413
:101130006CE671E089E695E00E94FD0589E695E0A0
:101140000E94BC1464E771E089E695E00E946F0696
:10115000C701B6010E948A0689E695E00E94BC1488
:1011600062E871E089E695E00E946F060CED14E0FC
:10117000F80166817781808591850E948A0666E9FB
:1011800071E089E695E00E946F06F801628573853B
:10119000848595850E948A0689E695E00E94BC14A4
:1011A00068EA71E089E695E00E946F06C8E5D4E040
:1011B0006A897B898C899D890E948A066BEB71E024
:1011C00089E695E00E946F066E897F89888D998DEA
:1011D0000E948A0689E695E00E94BC146CEC71E0DE
:1011E00089E695E00E946F06F801848195810E944E
:1011F0005B0662EE71E089E695E00E946F068091E1
:10120000BF049091C0040E945B0668EF71E089E61C
:1012100095E00E946F0680919E0490919F040E9429
:101220005B066EE072E089E695E00E946F068091B1
:101230007D0490917E040E945B0665E272E089E67F
:1012400095E00E946F068C819D81DF91CF911F9167
:101250000F91FF90EF90DF90CF900C945B060F936F
:101260001F93CF93DF93EC01CB01BA0126E636E65C
:1012700046E65FE30E94A31A9B01AC0160E27CEBAF
:101280008EEB95E40E94411C20E030E040E85FE3F3
:101290000E94D41B20E030E040E05FE30E94D51BB9
:1012A0000E94E91C0E94BA1C062F888191E090934D
:1012B000BC028093DE021092BD021092DF0289818F
:1012C0009A81DC01ED91FC910190F081E02D60E0CC
:1012D000099581E00E949C0188819091BB02911147
:1012E000FCCF91E09093BB029093BA022FEF209332
:1012F000B9021092B8021092B702909396029091A0
:101300009602880F892B80939602809195028130F6
:1013100061F410929502809196028093BB008091B7
:10132000BC0083FDF8CF85EC01C085EE8093BC0046
:101330008091BB028130E1F38091B802811103C03A
:101340009091B80201C091E0A7E9B2E0EAEEF2E0C4
:1013500080E0891721F02D9121938F5FFACF1092B1
:101360008D0280938C0289819A81DC01ED91FC9140
:101370000284F385E02D0995182F482F4F764061A0
:1013800060E0CE010E94D812402F6EEFCE010E9485
:10139000D812412F60E0CE010E94D81265E070E0C3
:1013A00080E090E00E948214412F406A60E0CE010C
:1013B000DF91CF911F910F910C94D8122F923F92F1
:1013C0004F925F926F927F928F929F92AF92BF9255
:1013D000CF92DF92EF92FF920F931F93CF93DF9301
:1013E000CDB7DEB7E2970FB6F894DEBF0FBECDBF24
:1013F0000E940D1781111EC06CE372E0CE010196B0
:101400000E947D05CE0101960E947401CE010196D5
:101410000E94030561E472E0CE0101960E947D0501
:10142000CE0101960E94E704CE0101960E940305B9
:101430000E94080585E195E00E94DD168091270550
:10144000882309F443C161E772E0CE0185960E94CA
:101450007D050E94101597FD0CC089831A8241E01A
:1014600050E0BE016F5F7F4FCE0185960E94B904A8
:10147000F0CF66EA71E0CE0101960E947D0589A554
:101480009AA5892B69F0EDA0FEA069817A81C70138
:101490000E94851F009721F08C010E191F0902C0C0
:1014A0000FEF1FEFCE0101960E94030558012FEFA9
:1014B000A21AB20AB501CE0185960E94F4144C011D
:1014C0002C013FEF431A530AB201CE0185960E94C8
:1014D000F4143C011C018FEF281A380AB101CE0127
:1014E00085960E94F4149EA78DA766EA71E0CE014E
:1014F00001960E947D0589A59AA52D813E817C01DA
:10150000E21AF30A2115310589F1009779F1821762
:10151000930760F1E816F90620F07C0121E0E21A59
:10152000F108CDA0DEA089819A8198AB8FA7C60172
:101530002FEF2BA73FEF3CA796012E0D3F1D3AAB97
:1015400029AB29A93AA928173907A0F06FA578A9CE
:101550000E94851F009771F09C012C193D09E2162D
:10156000F30610F02BA73CA70196EBCFEE24EA94EC
:10157000FE2C02C0EBA4FCA4CE0101960E94030540
:10158000980140E050E0BE016B5D7F4FCE014F9669
:101590000E9492059401A501BE016B5D7F4FCE01B3
:1015A00049960E9492059301A201BE016B5D7F4F97
:1015B000CE0143960E9492052DA53EA5A101BE0134
:1015C0006B5D7F4FCE010D960E9492054DA55EA5E5
:1015D0004F5F5F4F9701BE016B5D7F4FCE01079656
:1015E0000E94920529A53AA5A7014F5F5F4FBE0152
:1015F0006B5D7F4FCE0101960E949205CE014F9602
:101600000E94AE04F62E6093E8027093E902CE01C8
:1016100049960E94AE04062F6093E6027093E7029B
:10162000CE0143960E94AE04162F6093E40270939D
:10163000E502CE010D960E94AE04E62E6093E20212
:101640007093E302CE0107960E94AE04D62E6093FB
:10165000E0027093E102CE0101960E94AE0464366E
:1016600071051CF0625B774002C0625E7F4F609341
:101670009402D0929302E0929202F0929002009330
:101680008F0210938E028EE892E00E94D70F0E9484
:101690006A0FCE0101960E940305CE0107960E94B3
:1016A0000305CE010D960E940305CE0143960E94CC
:1016B0000305CE0149960E940305CE014F960E9474
:1016C0000305CE0185960E940305B4CEE2960FB6BF
:1016D000F894DEBF0FBECDBFDF91CF911F910F9168
:1016E000FF90EF90DF90CF90BF90AF909F908F9042
:1016F0007F906F905F904F903F902F9008950E9441
:10170000DE0964E572E089E695E00E94FD0589E660
:1017100095E00E94BC140E94910F0C948A060895D3
:1017200085ED8093BC008091BC0084FDFCCF1092BD
:10173000BB02089540912A03262F30E0240F311D6B
:1017400021323105DCF42091BB022430C9F4FC01C4
:1017500080E090E0861758F430912A032191DC0153
:10176000A65FBC4FA30FB11D2C930196F3CF8091C0
:101770002A03680F60932A0380E0089581E00895AA
:1017800082E0089508950895E0918D0280918C0281
:10179000E81730F4F0E0E651FD4F808190E00895C5
:1017A0008FEF9FEF089590918D0280918C02981792
:1017B00050F4E92FF0E0E651FD4F208130E09F5FCB
:1017C00090938D0202C02FEF3FEFC90108958091E1
:1017D0008C0290E020918D02821B91090895CF9296
:1017E000DF92EF92FF920F931F93CF93DF937C01D1
:1017F000CB018A012091BC02222389F0EB016B010D
:10180000C40ED51ECC15DD0569F06991D701ED91A7
:10181000FC910190F081E02DC7010995F3CF642F71
:101820000E949A0BC801DF91CF911F910F91FF90F9
:10183000EF90DF90CF900895CF93DF931F92CDB7B5
:10184000DEB769832091BC022223D1F02091DF0210
:10185000203240F021E030E0FC013383228380E03D
:1018600090E015C08091BD02E82FF0E0E254FD4FFA
:10187000998190838F5F8093BD028093DF0205C0C2
:1018800061E0CE0101960E949A0B81E090E00F90FA
:10189000DF91CF910895CF93DF93EC010E94DD1685
:1018A0008A89882331F08B89C80FD11D8C8990E0FB
:1018B00002C08FEF9FEFDF91CF910895CF93DF9319
:1018C000EC010E94DD168A89882359F081508A8BA9
:1018D0008B8991E0980F9B8BC80FD11D8C8990E06C
:1018E00002C08FEF9FEFDF91CF910895CF93DF93E9
:1018F000EC010E94DD168A8990E0DF91CF91089576
:10190000CF93DF93EC010E9483048E85882341F0FE
:101910008F85E889F989E80FF11D808190E002C088
:101920008FEF9FEFDF91CF910895CF93DF93EC017D
:101930000E9483048E85882369F081508E87E88910
:10194000F9898F8591E0980F9F87E80FF11D8081BD
:1019500090E002C08FEF9FEFDF91CF910895CF937A
:10196000DF93EC010E9483048E8590E0DF91CF919C
:1019700008958F929F92AF92BF92CF92DF92EF9293
:10198000FF920F931F93CF93DF931F92CDB7DEB7D4
:101990005C019B014A01DC0152968C91811105C0CA
:1019A0008B017B01E40EF51E31C080E58983C12CDB
:1019B000D12CE12CF12C8A0141E050E0BE016F5F97
:1019C0007F4FF501848595850E94441522C0D5017D
:1019D0005596ED91FC91569753968C91539791E0C3
:1019E000980F53969C93D8019D918D01E80FF11D9E
:1019F0009083F50193898489981308C00190F08140
:101A0000E02D0680F781E02DC5010995E016F1066D
:101A1000F1F6C4010F90DF91CF911F910F91FF90CC
:101A2000EF90DF90CF90BF90AF909F908F900895F0
:101A30003FB7F8948091640390916503A091660389
:101A4000B091670326B5A89B05C02F3F19F00196FA
:101A5000A11DB11D3FBFBA2FA92F982F8827820F34
:101A6000911DA11DB11DBC01CD0142E0660F771F84
:101A7000881F991F4A95D1F708952FB7F894609160
:101A800060037091610380916203909163032FBFA3
:101A900008951F920F920FB60F9211242F933F9328
:101AA0008F939F93AF93BF93809160039091610355
:101AB000A0916203B091630330915F0323E0230F91
:101AC0002D3720F40196A11DB11D05C026E8230F76
:101AD0000296A11DB11D20935F0380936003909334
:101AE0006103A0936203B0936303809164039091B8
:101AF0006503A0916603B09167030196A11DB11D16
:101B00008093640390936503A0936603B093670387
:101B1000BF91AF919F918F913F912F910F900FBEE9
:101B20000F901F901895CF93DF93EC018D819E81CC
:101B3000DC01ED91FC910084F185E02D09951816EA
:101B4000190654F48D819E81DC01ED91FC91028493
:101B5000F385E02D0995EACFDF91CF9108958F921B
:101B60009F92AF92BF92CF92DF92EF92FF92CF936C
:101B7000DF93EC016B010E943D0D4B015C01E12CF8
:101B8000F12C8D819E81DC01ED91FC910284F38525
:101B9000E02D099597FF0FC00E943D0DDC01CB01A0
:101BA00088199909AA09BB098C159D05AE05BF05C1
:101BB00040F38FEF9FEFDF91CF91FF90EF90DF9099
:101BC000CF90BF90AF909F908F900895FC0123819C
:101BD00034812627022E2295207F2025032E322FA6
:101BE00022952F700226269532272327220F220FB7
:101BF000220F2025348323830895CF92DF92EF9222
:101C0000FF920F931F936801790100E010E020E03C
:101C100030E00E9444151F910F91FF90EF90DF90EC
:101C2000CF9008950F931F9300E010E020E030E084
:101C30000E94FD0D1F910F910895CF93DF9300D067
:101C40001F92CDB7DEB729E42983FC0126852A83BC
:101C50006B8343E050E0BE016F5F7F4F84859585C5
:101C60000E94120E81E090E00F900F900F90DF9194
:101C7000CF910895CF93DF93FC01228921110BC0EE
:101C8000EC01438950E065897689848595850E94B9
:101C9000120E81E08B8BDF91CF910895CF93DF936C
:101CA00000D0CDB7DEB7DC0152968C9152978823D5
:101CB00079F080E589836A8342E050E0BE016F5F7E
:101CC0007F4F1C968D919C911D970E94120E1FC0F4
:101CD0005596ED91FC91569753968C91539791E0C0
:101CE000980F53969C935397E80FF11D608353967A
:101CF0009C91539754968C915497981308C0ED91EA
:101D0000FC9111970680F781E02DCD01099581E0C6
:101D100090E00F900F90DF91CF910895CF92DF92D6
:101D2000EF92FF920F931F93CF93DF93CDB7DEB760
:101D30002E970FB6F894DEBF0FBECDBF7C01C70152
:101D40000E94930D68EE73E080E090E00E948214A0
:101D5000D70115968D919C911697DC01ED91FC9120
:101D60000084F185E02D09951816190644F3DD2449
:101D7000D39482E3C82E85E0E6E0F1E0DE0111961F
:101D800001900D928A95E1F7F701D08645E050E089
:101D9000BE016F5F7F4FC7010E94120E63E0D70143
:101DA00015968D919C9116970E94F6056AEF70E04A
:101DB00080E090E00E9482146CEB70E0F701858176
:101DC00096810E9421046AEF70E080E090E00E941A
:101DD00082146AEB70E0D70115968D919C9116974D
:101DE0000E94210464EF71E080E090E00E94821480
:101DF0006EEA70E0F701858196810E94210464EF0C
:101E000071E080E090E00E948214C7010E94930D6F
:101E100085E0EBE0F1E0DE01169601900D928A95E7
:101E2000E1F7D7011896CC9204E010E09E01255FFF
:101E30003F4F45E050E0BE016A5F7F4FC7010E94FF
:101E4000FD0D8F3FBFEF9B0739F468EE73E080E034
:101E500090E00E9482148FCF2B852111FFCF049731
:101E600001F52C8530E02053310984E6829FA001E2
:101E7000839F500D11242D8530E0205331096AE0F5
:101E8000629FC001639F900D1124840F951F2E85C2
:101E900030E020533109820F931FF7019283818331
:101EA00007C084E690E0D70112969C938E93119719
:101EB00082E3F70180872E960FB6F894DEBF0FBE3F
:101EC000CDBFDF91CF911F910F91FF90EF90DF90E9
:101ED000CF90089560935B0370935C0380935D03E0
:101EE00090935E03DC01CB01845D9E4FAF4FBF4FEB
:101EF0008093570390935803A0935903B0935A03C8
:101F000082E090E090935603809355030E943D0D2C
:101F1000609351037093520380935303909354033F
:101F20000895CF92DF92EF92FF920F931F930E943A
:101F30003D0D0091510310915203209153033091B4
:101F400054036B017C01C01AD10AE20AF30A6091C2
:101F50005B0370915C0380915D0390915E0348EE9A
:101F6000C41643E0D406E104F104D0F0DC01CB0157
:101F70000196A11DB11D80935B0390935C03A09318
:101F80005D03B0935E0308511C4F2F4F3F4F0093EA
:101F90005103109352032093530330935403C7CF3C
:101FA0001F910F91FF90EF90DF90CF9008954F9287
:101FB0005F926F927F928F929F92AF92BF92CF92D9
:101FC000DF92EF92FF920F931F93CF93DF93FC0169
:101FD0001681A12FB0E020E833E341EE51E00E94EA
:101FE000831B4B015C01C2EBD7E09D0104E610E0CE
:101FF00080E9E82EFF24F394CE01825B974082179C
:102000009307D4F4CE0183709927892B99F4CE01DC
:10201000B8010E94551D892B31F4CE01B7010E94F1
:10202000551D892B39F480E8880E81E5981E81E0E2
:10203000A81EB11C2196E0CF4580512C2E54384F5C
:10204000C90164E670E00E94551D7C01C90160E988
:1020500071E00E94551D6C0100E111E0C1E0D0E08B
:102060003901A3E06A227724C415D50534F5C230BE
:10207000D10589F46114710471F4E114F10419F4C7
:10208000C114D10441F4B0E88B0EBBE39B1EB6E251
:10209000AB1EB11C0EC0D8018C91A82FB0E020E877
:1020A00031E541E050E00E94831B860E971EA81E7A
:1020B000B91E21960F5F1F4FD7CF4181228130E09B
:1020C000A0E1BEE00E94C51B6B017C01242F30E023
:1020D000ACE3B0E00E94C51BDC01CB018C0D9D1D63
:1020E000AE1DBF1D20816C017D01C20ED11CE11C03
:1020F000F11CA481B0E0119720E831E541E050E007
:102100000E94701DDC01CB018C0D9D1DAE1DBF1DFD
:10211000BC01CD01680D791D8A1D9B1DDF91CF91FA
:102120001F910F91FF90EF90DF90CF90BF90AF90F5
:102130009F908F907F906F905F904F9008954F92F7
:102140005F926F927F928F929F92AF92BF92CF9247
:10215000DF92EF92FF920F931F93CF93DF934B0188
:102160005C0180914D0390914E03A0914F03B0917B
:10217000500388159905AA05BB0509F4D2C08CE364
:10218000C82ED12CE12CF12CC501B401A701960178
:102190000E94611B60938E02CA01B901A7019601DA
:1021A0000E94611B60938F02C501B40120E13EE0F3
:1021B00040E050E00E94611BCA01B90128E130E013
:1021C00040E050E00E94611B60939002C501B401A1
:1021D00020E831E541E050E00E94611B69017A018D
:1021E000CA01B9016C5F7F4F8F4F9F4F27E030E0EE
:1021F00040E050E00E94611B6F5F60939102412CB0
:10220000512C320140E004E610E0C0E9D1E0242F77
:1022100030E02E54384FF901E370FF27309789F4EE
:10222000C901B8010E94551D892B31F4C901BE01B5
:102230000E94551D892B29F48EE691E0A0E0B0E0C4
:1022400004C08DE691E0A0E0B0E0480E591E6A1E81
:102250007B1ED301C201AA27BB27C816D906EA06EE
:10226000FB0610F04F5FD3CF40939402309799F460
:10227000C90164E670E00E94551D892B39F4C9013B
:1022800060E971E00E94551D892B29F48EE691E0EA
:10229000A0E0B0E004C08DE691E0A0E0B0E0481A14
:1022A000590A6A0A7B0AC418D508E608F708C90162
:1022B00064E670E00E94551DEC01C90160E971E01F
:1022C0000E94551DA0E1B1E020E0213039F43097A3
:1022D00049F4209729F4009729F402C04C9103C0D7
:1022E0004DE101C04CE150E060E070E0C416D5065D
:1022F000E606F70640F0C41AD50AE60AF70A2F5F89
:1023000011962C3011F72F5F20939302C394C09243
:10231000920280924D0390924E03A0924F03B0928E
:102320005003DF91CF911F910F91FF90EF90DF90BD
:10233000CF90BF90AF909F908F907F906F905F9065
:102340004F9008950E949F108091940290E08E54C7
:10235000984F08951F920F920FB60F9211242F934A
:102360003F934F935F936F937F938F939F93AF931D
:10237000BF93EF93FF938091B900887F803609F473
:102380009CC068F5883209F45BC090F4803109F490
:1023900054C038F4882309F4F6C0883009F44DC0DD
:1023A000F6C0883109F44CC0803209F45DC0EFC03A
:1023B000803409F468C048F4803309F455C0883388
:1023C00009F0E5C08093B902D8C0803509F44FC048
:1023D000883509F45DC0883409F0D9C0D6C0883981
:1023E00009F4C7C0A8F4883709F467C038F4883600
:1023F00009F463C0803709F460C0C9C0883809F4A3
:10240000B8C0803909F45FC0803809F0C0C05BC033
:10241000803B09F486C038F4803A09F466C0883AF3
:1024200009F47FC0B4C0803C09F4A7C0883C09F41B
:10243000A4C0883B09F48AC0AAC08091960210C04B
:102440009091B8028091B702981770F5E091B802A8
:1024500081E08E0F8093B802F0E0E956FD4F808155
:102460008093BB0085EC86C08093B9028EC0E0915A
:10247000B80281E08E0F8093B8028091BB00F0E03B
:10248000E956FD4F80839091B8028091B7026EC0EB
:10249000E091B80281E08E0F8093B8028091BB007A
:1024A000F0E0E956FD4F80838091BA0281116DC042
:1024B00081E08093950284EA61C083E08093BB024F
:1024C00010924C03CFCF80914C03803208F051C062
:1024D000E0914C0381E08E0F80934C038091BB0010
:1024E000F0E0E45DFC4F8083BDCF85EC8093BC00C1
:1024F0001092BB0280914C03803230F4E0914C0387
:10250000F0E0E45DFC4F108260914C0370E0E091DC
:102510008802F09189028CE293E0099510924C03B5
:1025200036C084E08093BB0210922B0310922A03E2
:10253000E0918A02F0918B02099580912A03811122
:1025400005C081E080932A0310920A03E0912B03D7
:1025500081E08E0F80932B03F0E0E65FFC4F8081DB
:102560008093BB0090912B0380912A03981708F465
:1025700079CF85E88093BC000AC085EC8093BC00CD
:102580001092BB0204C01092B9020E94900BFF91FE
:10259000EF91BF91AF919F918F917F916F915F91DB
:1025A0004F913F912F910F900FBE0F901F90189554
:1025B0001F93CF93DF93EC01142F888191E09093C8
:1025C000BC028093DE021092BD021092DF0289816C
:1025D0009A81DC01ED91FC910190F081E02D09954B
:1025E00089819A81DC01ED91FC910190F081E02DCF
:1025F000612F099581E0DF91CF911F910C949C018F
:10260000FC01538D448D252F30E0842F90E0821BF8
:10261000930B541710F0CF96089501970895FC017D
:10262000918D828D981761F0828DDF01A80FB11D09
:102630005D968C91928D9F5F9F73928F90E008952D
:102640008FEF9FEF0895FC01918D828D981731F0E7
:10265000828DE80FF11D858D90E008958FEF9FEF3B
:102660000895FC01918D228D892F90E0805C9F4F11
:10267000821B91098F739927089580EB93E00E9444
:10268000311321E0892B09F420E0822F0895FC0109
:10269000848DDF01A80FB11DA35ABF4F2C91848DEB
:1026A00090E001968F739927848FA689B7892C9320
:1026B000A089B1898C91837080648C93938D848D73
:1026C000981306C00288F389E02D80818F7D808376
:1026D0000895EF92FF920F931F93CF93DF93EC0136
:1026E00081E0888F9B8D8C8D981305C0E889F989CE
:1026F000808185FD26C0F62E0B8D10E00F5F1F4FE9
:102700000F731127E02E8C8DE8120CC00FB607FC5A
:10271000FACFE889F989808185FFF5CFCE010E9443
:102720004713F1CF8B8DFE01E80FF11DE35AFF4FE8
:10273000F0829FB7F8940B8FEA89FB8980818062D1
:102740000AC09FB7F894EE89FF896083E889F98908
:1027500080818370806480839FBF81E090E0DF91FF
:10276000CF911F910F91FF90EF900895CF93DF933A
:10277000EC01888D8823C9F0EA89FB89808185FD79
:1027800005C0A889B9898C9186FD0FC00FB607FCDA
:10279000F5CF808185FFF2CFA889B9898C9185FF1B
:1027A000EDCFCE010E944713E7CFDF91CF9108957F
:1027B00080E090E0892B29F00E943D1381110C9458
:1027C000000008958F929F92AF92BF92CF92DF92B6
:1027D000EF92FF920F931F93CF93DF937C018B01B6
:1027E0006C0182E0C80ED11C4701E5E08E0E911C01
:1027F000C0E0D0E0F60141916F0150E060E070E090
:102800002AE0C8010E9412065C016EE2C8010E9423
:10281000F6058A0D9B1DC80FD91FC814D90451F79E
:10282000F701458150E060E070E02AE0C8010E94B5
:1028300012068C0F9D1FDF91CF911F910F91FF907A
:10284000EF90DF90CF90BF90AF909F908F900895C2
:102850000E94651F1F920F920FB60F9211242F93A3
:102860003F934F935F936F937F938F939F93AF9318
:10287000BF93EF93FF9380EB93E00E944713FF9188
:10288000EF91BF91AF919F918F917F916F915F91E8
:102890004F913F912F910F900FBE0F901F90189561
:1028A0001F920F920FB60F9211242F938F939F9325
:1028B000EF93FF93E091C003F091C1038081E09119
:1028C000C603F091C70382FD12C090818091C903B5
:1028D0008F5F8F732091CA03821751F0E091C90373
:1028E000F0E0E055FC4F958F8093C90301C08081D3
:1028F000FF91EF919F918F912F910F900FBE0F90AD
:102900001F9018958F929F92AF92BF92CF92DF92B5
:10291000EF92FF926B017C010E94180D4B015C014C
:10292000C114D104E104F104F1F00E94180DDC019E
:10293000CB0188199909AA09BB09883E9340A105D2
:10294000B10570F321E0C21AD108E108F10888EE60
:10295000880E83E0981EA11CB11CC114D104E104AF
:10296000F10419F7DDCFFF90EF90DF90CF90BF908B
:10297000AF909F908F9008956FE672E00C94FD05E4
:10298000CF92DF92EF92FF92CF93DF936C01990F7A
:10299000EE08FF08F7FE1BC06DE289E695E00E9495
:1029A000F605EC0144275527BA014C195D096E095B
:1029B0007F092AE089E695E00E9412068C0F9D1F90
:1029C000DF91CF91FF90EF90DF90CF9008952AE0B4
:1029D000B701A60189E695E0DF91CF91FF90EF90D6
:1029E000DF90CF900C941206CF93DF93FC012481EB
:1029F00035816217730778F49B01C081D1816AE346
:102A000070E0CE01820F931F0E94731F009719F090
:102A10008C1B9D0B02C08FEF9FEFDF91CF9108952C
:102A20000F931F930E943D0D60931D0570931E052B
:102A300080931F059093200585E195E00E945E0C30
:102A400097FF1FC00E943D0D00911D0510911E05AE
:102A500020911F0530912005DC01CB01801B910BDB
:102A6000A20BB30B0091190510911A0520911B05BB
:102A700030911C0580179107A207B307E8F28FEF8A
:102A80009FEF1F910F9108952F923F924F925F9267
:102A90006F927F928F929F92AF92BF92CF92DF926E
:102AA000EF92FF920F931F93CF93DF93CDB7DEB7D3
:102AB0002E970FB6F894DEBF0FBECDBF9E878D87D1
:102AC0003B0129019A01200F311F3A8329838A8013
:102AD000912C22242A94322CCB01840F951F9887A5
:102AE0008F83D201A00FB11FBA87A987F701EC0D20
:102AF000FD1DFC87EB87AD85BE8518968C911897D8
:102B0000981608F03FC114963C922E921397159692
:102B10008D919C911697DC01ED91FC910190F081D3
:102B2000E02D6FEF09956FEF8D859E850E94E60D74
:102B3000ED85FE8585819681DC01ED91FC9101900A
:102B4000F081E02DAD85BE856C910995ED85FE8502
:102B50006081CF010E94E60DAD85BE8515968D91F1
:102B60009C911697DC01ED91FC910190F081E02D94
:102B7000682D0995682D8D859E850E94E60DED8551
:102B8000FE8585819681DC01ED91FC910190F081BB
:102B9000E02D6981099569818D859E850E94E60DEC
:102BA0005301EF81F885AE16BF06C1F0AD85BE8535
:102BB00015968D919C9116978501DC01ED91FC9104
:102BC0000190F081E02DD5016D915D010995F8012D
:102BD00060818D859E850E94E60DE3CF8201AD85E3
:102BE000BE8515968D919C911697E985FA850E17ED
:102BF0001F0791F05801DC01ED91FC910190F081EB
:102C0000E02DD8016D918D010995F50160818D85CB
:102C10009E850E94E60DE3CFAD85BE8514966C912E
:102C2000DC01ED91FC910190F081E02D0995ED859D
:102C3000FE8585819681DC01ED91FC910190F0810A
:102C4000E02DAD85BE8513966C91099568EC70E01A
:102C50008D859E850E94AF0D8F3F910509F086C03E
:102C6000ED85FE85348223826FEFCF010E94E60D51
:102C700065E070E08D859E850E94AF0DAD85BE85B7
:102C80006C91262F30E08217930709F06FC0CD01B9
:102C90000E94E60D6AE070E08D859E850E94AF0D72
:102CA0005C0197FD63C0682F8D859E850E94E60DAF
:102CB0006AE070E08D859E850E94AF0D8C0197FDC6
:102CC00055C0682F8D859E850E94E60DAC821B82C3
:102CD000EB81FC810E0F1F1F57019701200F311F41
:102CE0003E832D838D819E81A816B906C1F0AB85E8
:102CF000BC85AA16BB0699F065E070E08D859E85BF
:102D00000E94AF0D97FD07C0F5018083682F8D8568
:102D10009E850E94E60DFFEFAF1ABF0AE3CF65E084
:102D200070E08D859E850E94AF0D5C0197FD1EC0F1
:102D300065E070E08D859E850E94AF0D97FD16C001
:102D4000BA2CAA248A0D9B1DAD85BE8513962D91A4
:102D50003C9114978217930749F48C918F5F8C9361
:102D6000C801C016D10680F4C6010EC0939464E673
:102D700070E080E090E00E9482148D859E850E9424
:102D8000930DB9CE8FEF9FEF2E960FB6F894DEBF5E
:102D90000FBECDBFDF91CF911F910F91FF90EF90AC
:102DA000DF90CF90BF90AF909F908F907F906F906B
:102DB0005F904F903F902F900895EF92FF920F9366
:102DC0001F93CF93DF9300D01F92CDB7DEB7FC01E6
:102DD0002289211118C07C01138A8FE4898380E441
:102DE0008B8386858A839F012C5E3F4F00E410E031
:102DF00043E050E0BE016F5F7F4F848595850E9460
:102E0000FD0DF701828B0F900F900F90DF91CF9106
:102E10001F910F91FF90EF9008950F931F93CF9301
:102E2000DF9300D01F92CDB7DEB782E78983809110
:102E300023058A8301E010E09E012D5F3F4F42E0B1
:102E400050E0BE016F5F7F4F809121059091220578
:102E50000E94FD0D81E09B81913009F080E00F9090
:102E60000F900F90DF91CF911F910F910895CF9305
:102E7000DF9300D000D000D0CDB7DEB7789484B512
:102E8000826084BD84B5816084BD85B5826085BD66
:102E900085B5816085BD80916E00816080936E00F4
:102EA00010928100809181008260809381008091E6
:102EB0008100816080938100809180008160809397
:102EC00080008091B10084608093B1008091B00057
:102ED00081608093B00080917A00846080937A0052
:102EE00080917A00826080937A0080917A0081607C
:102EF00080937A0080917A00806880937A001092A3
:102F0000C1001092AA031092AB031092AC0310926E
:102F1000AD0310926A0310926B0310926C0310922F
:102F20006D030E943D0D6B017C014B015C0188EB40
:102F3000880E8BE0981EA11CB11C0E943D0D6C15E3
:102F40007D058E059F0528F086169706A806B9060A
:102F5000A0F789E695E09093AF038093AE0380914C
:102F60005604909157040E945C048091540481118E
:102F700007C081E0809354048DE494E00E948E0E9B
:102F80000E94450460ED77E080E090E00E948214AA
:102F90000E943D0D60936A0370936B0380936C03F2
:102FA00090936D0360E672E08091AE039091AF0361
:102FB0000E946F060E943D0D6B017C014B015C017C
:102FC0008AE0880E911CA11CB11C0E943D0D6C155D
:102FD0007D058E059F0528F086169706A806B9067A
:102FE000A0F711E010937E0380915604909157044E
:102FF0000E945C0480915404811106C01093540413
:103000008DE494E00E948E0E0E94450481E6F82E25
:10301000F98201E010E09E012F5F3F4F41E050E058
:10302000B90180917505909176050E94FD0D898109
:10303000813071F70E940D1781111EC06CE372E0A0
:10304000CE0101960E947D05CE0101960E94740179
:10305000CE0101960E94030562E772E0CE0101965F
:103060000E947D05CE0101960E94E704CE010196E3
:103070000E9403050E9408050E94DE09A09109052F
:10308000B0910A0520E13EE00E94691D60930B05A6
:1030900070930C0580930D0590930E058FE79BE0D0
:1030A0009093140580931305A091FD04B091FE0444
:1030B0002AE030E00E94691D6093FF0470930005D0
:1030C000809301059093020580E798E090930805AE
:1030D0008093070560E070E08CED94E00E94AE0301
:1030E00061E070E08BEB94E00E94AE0362E070E080
:1030F0008AE994E00E94AE0366E070E089E794E01C
:103100000E94AE0367E070E088E594E00E94AE03A1
:1031100048E250E064E170E08CED94E00E94E0024F
:1031200042E350E064E170E08BEB94E00E94E00247
:1031300040E050E065E170E08AE994E00E94E0023E
:1031400048E250E064E170E089E794E00E94E00228
:1031500042E350E064E170E088E594E00E94E00220
:1031600060E070E08CED94E00E9435026AE070E06F
:103170008BEB94E00E94350264E170E08AE994E010
:103180000E94350260E070E089E794E00E94350219
:103190006AE070E088E594E00E9435020E943D0DEF
:1031A0000091030510910405209105053091060555
:1031B0006B017C01C01AD10AE20AF30A0091FF04F4
:1031C000109100052091010530910205C016D1062D
:1031D000E206F30650F060930305709304058093B4
:1031E0000505909306050E9470080E943D0D009110
:1031F0000F051091100520911105309112056B01FA
:103200007C01C01AD10AE20AF30A97018601C09034
:103210000B05D0900C05E0900D05F0900E050C15F7
:103220001D052E053F0550F060930F0570931005A6
:1032300080931105909312050E947F0B0E94D81372
:10324000ADCF8AE491E090931605809315050E9416
:1032500054018CE591E090936A05809369050C9484
:103260000504CF93DF93E0EBF3E01382128248EE84
:1032700053E060E070E0448355836683778380E2A7
:1032800091E09183808385EC90E09587848784EC3E
:1032900090E09787868780EC90E0918B808B81EC23
:1032A00090E0938B828B82EC90E0958B848B86EC04
:1032B00090E0978B868B118E128E138E148EA0E861
:1032C000B5E084E491E011969C938E9312961C9243
:1032D000129713961C92139714961C921497159696
:1032E0001C92A8E6B3E016961D921D921D921C92A8
:1032F00019971A961D921D921D921C921D971E964B
:103300001D921D921D921C92519752961D921D92D4
:103310001D921C925597A9E6B5E013961C921E9239
:10332000129714964D935D936D937C9317972CE5AC
:1033300031E011963C932E93CDE4D4E01D96DC93BE
:10334000CE931C971E961C921E971F961C921F9739
:1033500051961C921E92509721E052962C931882FF
:10336000FE83ED831F821886FA87E987E6E8F5E099
:1033700013821282448355836683778322E331E08C
:1033800031832083A5E1B5E013961C921E9212971B
:1033900014964D935D936D937C9317972AE431E0D7
:1033A00011963C932E931D96DC93CE931C975196C9
:1033B0001C92519752961C92529753961C92A2E9D6
:1033C000B5E011969C938E9312961C9212971396C9
:1033D0001C92139714961C92149715961C9288EEC3
:1033E00093E090930A05809309059093FE048093DF
:1033F000FD04ACEDB4E080E45E968C935E9790960D
:10340000FC93EE935F97ABEBB4E05E968C935E9784
:103410009096FC93EE935F97AAE9B4E05E968C9346
:103420005E979096FC93EE935F97A9E7B4E05E9663
:103430008C935E979096FC93EE935F97A8E5B4E02B
:103440005E968C935E979096FC93EE935F97DF91D8
:10345000CF9108951F93FC0199278827BC01E89418
:1034600011911032E9F3193010F01E30C8F31B32FD
:1034700051F01D3249F4689406C00E94511A610F40
:10348000711D811D911D119110531A30B0F33EF43E
:1034900090958095709561957F4F8F4F9F4F1F91AD
:1034A0000895592F482F372F262F660F771F881F13
:1034B000991F660F771F881F991F620F731F841F44
:1034C000951F660F771F881F991F0895E89409C0FC
:1034D00097FB3EF490958095709561957F4F8F4F47
:1034E0009F4F9923A9F0F92F96E9BB279395F6955D
:1034F000879577956795B795F111F8CFFAF4BB0FDB
:1035000011F460FF1BC06F5F7F4F8F4F9F4F16C03E
:10351000882311F096E911C0772321F09EE8872FC8
:10352000762F05C0662371F096E8862F70E060E084
:103530002AF09A95660F771F881FDAF7880F9695FD
:10354000879597F908950E94B61A0C94271B0E943C
:10355000191B38F00E94201B20F0952311F00C94C9
:10356000101B0C94161B11240C945B1B0E94381B1F
:1035700070F3959FC1F3950F50E0551F629FF001C6
:10358000729FBB27F00DB11D639FAA27F00DB11DDF
:10359000AA1F649F6627B00DA11D661F829F222768
:1035A000B00DA11D621F739FB00DA11D621F839FEF
:1035B000A00D611D221F749F3327A00D611D231FC5
:1035C000849F600D211D822F762F6A2F11249F5713
:1035D00050409AF0F1F088234AF0EE0FFF1FBB1F16
:1035E000661F771F881F91505040A9F79E3F5105D5
:1035F00080F00C94101B0C945B1B5F3FE4F3983E2F
:10360000D4F3869577956795B795F795E7959F5F7E
:10361000C1F7FE2B880F911D9695879597F9089510
:1036200097F99F6780E870E060E008959FEF80EC75
:10363000089500240A941616170618060906089518
:1036400000240A9412161306140605060895092E7E
:103650000394000C11F4882352F0BB0F40F4BF2BED
:1036600011F460FF04C06F5F7F4F8F4F9F4F08952D
:1036700057FD9058440F551F59F05F3F71F0479523
:10368000880F97FB991F61F09F3F79F08795089508
:10369000121613061406551FF2CF4695F1DF08C027
:1036A000161617061806991FF1CF86957105610544
:1036B00008940895E894BB2766277727CB0197F9EC
:1036C0000895A1E21A2EAA1BBB1BFD010DC0AA1F63
:1036D000BB1FEE1FFF1FA217B307E407F50720F07B
:1036E000A21BB30BE40BF50B661F771F881F991FF6
:1036F0001A9469F760957095809590959B01AC013F
:10370000BD01CF0108950E94C51BA59F900DB49FD8
:10371000900DA49F800D911D112408952F923F922A
:103720004F925F926F927F928F929F92AF92BF92D1
:10373000CF92DF92EF92FF920F931F93CF93DF937D
:10374000CDB7DEB7CA1BDB0B0FB6F894DEBF0FBEDA
:10375000CDBF09942A88398848885F846E847D8427
:103760008C849B84AA84B984C884DF80EE80FD8029
:103770000C811B81AA81B981CE0FD11D0FB6F8949F
:10378000DEBF0FBECDBFED010895A29FB001B39F74
:10379000C001A39F700D811D1124911DB29F700D5A
:1037A000811D1124911D08955058BB27AA270E94FE
:1037B000EC1B0C94271B0E94191B38F00E94201B45
:1037C00020F039F49F3F19F426F40C94161B0EF4E4
:1037D000E095E7FB0C94101BE92F0E94381B58F36F
:1037E000BA17620773078407950720F079F4A6F5E6
:1037F0000C945A1B0EF4E0950B2EBA2FA02D0B0142
:10380000B90190010C01CA01A0011124FF27591B25
:1038100099F0593F50F4503E68F11A16F040A22F2B
:10382000232F342F4427585FF3CF4695379527959C
:10383000A795F0405395C9F77EF41F16BA0B620B9B
:10384000730B840BBAF09150A1F0FF0FBB1F661FE2
:10385000771F881FC2F70EC0BA0F621F731F841F25
:1038600048F4879577956795B795F7959E3F08F04B
:10387000B0CF9395880F08F09927EE0F979587950D
:1038800008950E94551C0C94271B0E94201B58F081
:103890000E94191B40F029F45F3F29F00C94101B83
:1038A00051110C945B1B0C94161B0E94381B68F37F
:1038B0009923B1F3552391F3951B550BBB27AA27E9
:1038C00062177307840738F09F5F5F4F220F331F23
:1038D000441FAA1FA9F335D00E2E3AF0E0E832D0EB
:1038E00091505040E695001CCAF72BD0FE2F29D0EE
:1038F000660F771F881FBB1F261737074807AB07C0
:10390000B0E809F0BB0B802DBF01FF2793585F4F34
:103910003AF09E3F510578F00C94101B0C945B1B01
:103920005F3FE4F3983ED4F3869577956795B79516
:10393000F7959F5FC9F7880F911D9695879597F921
:103940000895E1E0660F771F881FBB1F621773079A
:103950008407BA0720F0621B730B840BBA0BEE1FAF
:1039600088F7E09508950E94BA1C6894B1110C94F0
:103970005B1B08950E94401B88F09F5798F0B92F59
:103980009927B751B0F0E1F0660F771F881F991F94
:103990001AF0BA95C9F714C0B13091F00E945A1BC1
:1039A000B1E008950C945A1B672F782F8827B85FD1
:1039B00039F0B93FCCF3869577956795B395D9F7EC
:1039C0003EF490958095709561957F4F8F4F9F4FF6
:1039D00008950E94291D90F09F3748F4911116F028
:1039E0000C945B1B60E070E080E89FEB089526F488
:1039F0001B16611D711D811D0C94001D0C941B1D57
:103A0000882371F4772321F09850872B762F07C0F5
:103A1000662311F499270DC09051862B70E060E069
:103A20002AF09A95660F771F881FDAF7880F969508
:103A3000879597F908959F3F31F0915020F487952D
:103A400077956795B795880F911D9695879597F906
:103A500008950E94401BA0F0BEE7B91788F4BB2769
:103A60009F3860F41616B11D672F782F8827985F4E
:103A7000F7CF869577956795B11D93959639C8F3DD
:103A80000895AA1BBB1B51E107C0AA1FBB1FA617A5
:103A9000B70710F0A61BB70B881F991F5A95A9F7F7
:103AA00080959095BC01CD01089597FB072E16F4E3
:103AB000009407D077FD09D00E94411D07FC05D076
:103AC0003EF4909581959F4F0895709561957F4F35
:103AD00008950E94C51BB7FF0895821B930B08959C
:103AE000B7FF0C94831B0E94831B821B930B0895CA
:103AF000EE0FFF1F0590F491E02D09940F931F9393
:103B0000CF93DF938230910510F482E090E0E09152
:103B10009A05F0919B0520E030E0A0E0B0E03097FE
:103B200019F1408151810281138148175907C8F06A
:103B30008417950769F4109731F012960C93129739
:103B400013961C9327C000939A0510939B0522C0DF
:103B50002115310519F04217530718F49A01BD01D8
:103B6000EF01DF01F801DBCF21153105F9F0281B4A
:103B7000390B2430310580F48A819B8161157105F0
:103B800021F0FB019383828304C090939B05809373
:103B90009A05FE01329644C0FE01E20FF31F8193A5
:103BA000919322503109398328833AC02091980596
:103BB00030919905232B41F42091020130910301AA
:103BC00030939905209398052091000130910101CF
:103BD0002115310541F42DB73EB7409104015091B4
:103BE0000501241B350BE0919805F0919905E2172A
:103BF000F307A0F42E1B3F0B2817390778F0AC0110
:103C00004E5F5F4F2417350748F04E0F5F1F5093EC
:103C10009905409398058193919302C0E0E0F0E00C
:103C2000CF01DF91CF911F910F910895CF93DF9333
:103C3000009709F481C0FC01329713821282A0918F
:103C40009A05B0919B05109781F420813181820FF4
:103C5000931F20919805309199052817390751F540
:103C6000F0939905E093980567C0ED0120E030E0FE
:103C7000CE17DF0740F44A815B819E014115510553
:103C8000F1F0EA01F5CFD383C28340815181840FE3
:103C9000951FC817D90759F488819981840F951FFA
:103CA0000296918380838A819B81938382832115ED
:103CB000310529F4F0939B05E0939A053DC0E90195
:103CC000FB83EA8349915991C40FD51FEC17FD0777
:103CD00061F480819181840F951F0296E901998397
:103CE0008883828193819B838A83E0E0F0E012964F
:103CF0008D919C911397009719F0FD01DC01F7CF8E
:103D00008D919C9111979D012E5F3F4F820F931FC4
:103D100020919805309199052817390769F4309753
:103D200029F410929B0510929A0502C01382128208
:103D3000B0939905A0939805DF91CF910895A0E0E5
:103D4000B0E0E5EAFEE10C94921BEC01009721F44F
:103D5000CB010E947E1DB4C0FC01E60FF71F9C0141
:103D600022503109E217F30708F4A8C0D9010D91D8
:103D70001C91119706171707B0F00530110508F4CC
:103D80009BC0C80104978617970708F495C0025096
:103D90001109061B170B019311936D937C93CF01AF
:103DA0000E94161E89C05B01A01AB10A4C01800E48
:103DB000911EA0919A05B0919B05612C712CE12C6C
:103DC000F12C109709F446C08D919C911197A8157C
:103DD000B905B1F56C0142E0C40ED11CCA14DB0474
:103DE00078F14C018A189B08640142E0C40ED11C92
:103DF0001296BC9012971396AC91B5E0CB16D104F5
:103E000040F0B282A38391828082D9016D937C932A
:103E100009C00E5F1F4F800F911FF90191838083AE
:103E2000EB2DFA2FE114F10431F0D7011396FC9336
:103E3000EE93129741C0F0939B05E0939A053CC026
:103E40006816790608F43C017D0112960D90BC912C
:103E5000A02DB7CF80919805909199058816990665
:103E6000E1F466167706C8F4809100019091010193
:103E7000009741F48DB79EB7409104015091050120
:103E8000841B950BE817F907C8F4F0939905E093A4
:103E90009805F901718360830FC0CB010E947E1DDC
:103EA0007C01009759F0A801BE010E946A1FCE0153
:103EB0000E94161EC70104C0CE0102C080E090E03F
:103EC000CDB7DEB7EEE00C94AE1B81E090E0F89445
:103ED0000C949F1FFB01DC0102C001900D92415028
:103EE0005040D8F70895FC018191861721F088236E
:103EF000D9F7992708953197CF010895FB01DC0187
:103F000001900D920020E1F70895FB015191552396
:103F1000A9F0BF01DC014D9145174111E1F759F4BA
:103F2000CD010190002049F04D9140154111C9F398
:103F3000FB014111EFCF81E090E00197089510E07F
:103F4000C0E6D0E004C0FE010E94781D2196C13673
:083F5000D107C9F7F894FFCF77
:103F580000009C058000585858585858583130303F
:103F68001F1C1F1E1F1E1F1F1E1F1E1F00000000DC
:103F78006913D8000013B61331130F13231300006D
:103F880000001C0CEF0B72068F0BE70BD30BC40B56
:103F980000000000E213000000001D0ED8007206A9
:103FA8008F0B760C5E0C4B0C000000004E0EB90C0B
:103FB80072063A0EAF0C950C800CFE0075706461A9
:103FC8007465640063757272656E742074696D65DA
:103FD8003A0053756E726973652073746172742048
:103FE80074696D653A0053756E7269736520656E04
:103FF800642074696D653A0053756E736574207337
:10400800746172742074696D653A0053756E7365D6
:104018007420656E642074696D653A006375727208
:10402800656E7420626C756531206F757470757477
:104038003A0063757272656E7420626C7565322021
:104048006F75747075743A0063757272656E74205A
:10405800626C756533206F75747075743A0063759A
:104068007272656E7420776869746531206F757433
:104078007075743A0063757272656E74207768693A
:10408800746532206F75747075743A006461746574
:10409800002B25483A254D3A25533A25643A256D93
:1040A8003A25790054696D652053796E636564001B
:1040B800564D4450565F317C315F564D4450560D35
:1040C8000A002B256D2C25642C25792C25412C25BF
:0840D800482C254D2C25530056
:00000001FF
